{
  "contractName": "CelebrityExchange",
  "abi": [
    {
      "inputs": [
        {
          "internalType": "uint256",
          "name": "_feePercent",
          "type": "uint256"
        },
        {
          "internalType": "address",
          "name": "_FANCTokenAddress",
          "type": "address"
        },
        {
          "internalType": "address",
          "name": "_WETHERAddress",
          "type": "address"
        },
        {
          "internalType": "address",
          "name": "_CelebrityOwnerTokenAddress",
          "type": "address"
        },
        {
          "internalType": "address payable",
          "name": "_oracleAddress",
          "type": "address"
        },
        {
          "internalType": "uint256",
          "name": "_allocationToNFTOwner",
          "type": "uint256"
        },
        {
          "internalType": "uint8",
          "name": "_sellPriceSpread",
          "type": "uint8"
        },
        {
          "internalType": "uint256",
          "name": "_minWithdrawalInEtherAllowed",
          "type": "uint256"
        }
      ],
      "payable": false,
      "stateMutability": "nonpayable",
      "type": "constructor"
    },
    {
      "anonymous": false,
      "inputs": [
        {
          "indexed": false,
          "internalType": "uint256",
          "name": "id",
          "type": "uint256"
        },
        {
          "indexed": false,
          "internalType": "address",
          "name": "user",
          "type": "address"
        },
        {
          "indexed": false,
          "internalType": "address",
          "name": "celebrityToken",
          "type": "address"
        },
        {
          "indexed": false,
          "internalType": "uint256",
          "name": "timestamp",
          "type": "uint256"
        }
      ],
      "name": "BuyOrderCancelled",
      "type": "event"
    },
    {
      "anonymous": false,
      "inputs": [
        {
          "indexed": false,
          "internalType": "uint256",
          "name": "id",
          "type": "uint256"
        },
        {
          "indexed": false,
          "internalType": "address",
          "name": "executor",
          "type": "address"
        },
        {
          "indexed": false,
          "internalType": "uint256",
          "name": "numberOfTokens",
          "type": "uint256"
        },
        {
          "indexed": false,
          "internalType": "uint256",
          "name": "price",
          "type": "uint256"
        },
        {
          "indexed": false,
          "internalType": "uint256",
          "name": "timestamp",
          "type": "uint256"
        }
      ],
      "name": "BuyOrderFilled",
      "type": "event"
    },
    {
      "anonymous": false,
      "inputs": [
        {
          "indexed": false,
          "internalType": "uint256",
          "name": "id",
          "type": "uint256"
        },
        {
          "indexed": false,
          "internalType": "address",
          "name": "executor",
          "type": "address"
        },
        {
          "indexed": false,
          "internalType": "uint256",
          "name": "numberOfTokens",
          "type": "uint256"
        },
        {
          "indexed": false,
          "internalType": "uint256",
          "name": "price",
          "type": "uint256"
        },
        {
          "indexed": false,
          "internalType": "uint256",
          "name": "tokensLeftToBuy",
          "type": "uint256"
        },
        {
          "indexed": false,
          "internalType": "uint256",
          "name": "etherAmountLeft",
          "type": "uint256"
        },
        {
          "indexed": false,
          "internalType": "uint256",
          "name": "timestamp",
          "type": "uint256"
        }
      ],
      "name": "BuyOrderPartiallyFilled",
      "type": "event"
    },
    {
      "anonymous": false,
      "inputs": [
        {
          "indexed": false,
          "internalType": "uint256",
          "name": "id",
          "type": "uint256"
        },
        {
          "indexed": false,
          "internalType": "address",
          "name": "user",
          "type": "address"
        },
        {
          "indexed": false,
          "internalType": "address",
          "name": "celebrityToken",
          "type": "address"
        },
        {
          "indexed": false,
          "internalType": "uint256",
          "name": "tokenBuy",
          "type": "uint256"
        },
        {
          "indexed": false,
          "internalType": "uint256",
          "name": "amountSend",
          "type": "uint256"
        },
        {
          "indexed": false,
          "internalType": "uint256",
          "name": "feesInEther",
          "type": "uint256"
        },
        {
          "indexed": false,
          "internalType": "uint256",
          "name": "feesInFANC",
          "type": "uint256"
        },
        {
          "indexed": false,
          "internalType": "uint256",
          "name": "price",
          "type": "uint256"
        },
        {
          "indexed": false,
          "internalType": "uint256",
          "name": "timestamp",
          "type": "uint256"
        }
      ],
      "name": "BuyOrderPlaced",
      "type": "event"
    },
    {
      "anonymous": false,
      "inputs": [
        {
          "indexed": false,
          "internalType": "uint256",
          "name": "id",
          "type": "uint256"
        },
        {
          "indexed": false,
          "internalType": "address",
          "name": "user",
          "type": "address"
        },
        {
          "indexed": false,
          "internalType": "address",
          "name": "celebrityToken",
          "type": "address"
        },
        {
          "indexed": false,
          "internalType": "uint256",
          "name": "tokenSell",
          "type": "uint256"
        },
        {
          "indexed": false,
          "internalType": "uint256",
          "name": "amountReceive",
          "type": "uint256"
        },
        {
          "indexed": false,
          "internalType": "uint256",
          "name": "price",
          "type": "uint256"
        },
        {
          "indexed": false,
          "internalType": "uint256",
          "name": "timestamp",
          "type": "uint256"
        }
      ],
      "name": "InitialSellOrderPlaced",
      "type": "event"
    },
    {
      "anonymous": false,
      "inputs": [
        {
          "indexed": false,
          "internalType": "address",
          "name": "celebrityToken",
          "type": "address"
        },
        {
          "indexed": false,
          "internalType": "uint256",
          "name": "tokenSell",
          "type": "uint256"
        },
        {
          "indexed": false,
          "internalType": "uint256",
          "name": "amountReceive",
          "type": "uint256"
        },
        {
          "indexed": false,
          "internalType": "uint256",
          "name": "price",
          "type": "uint256"
        },
        {
          "indexed": false,
          "internalType": "uint256",
          "name": "timestamp",
          "type": "uint256"
        }
      ],
      "name": "InitialSellOrderUpdated",
      "type": "event"
    },
    {
      "anonymous": false,
      "inputs": [
        {
          "indexed": true,
          "internalType": "address",
          "name": "previousOwner",
          "type": "address"
        },
        {
          "indexed": true,
          "internalType": "address",
          "name": "newOwner",
          "type": "address"
        }
      ],
      "name": "OwnershipTransferred",
      "type": "event"
    },
    {
      "anonymous": false,
      "inputs": [
        {
          "indexed": false,
          "internalType": "uint256",
          "name": "id",
          "type": "uint256"
        },
        {
          "indexed": false,
          "internalType": "address",
          "name": "user",
          "type": "address"
        },
        {
          "indexed": false,
          "internalType": "address",
          "name": "celebrityToken",
          "type": "address"
        },
        {
          "indexed": false,
          "internalType": "uint256",
          "name": "timestamp",
          "type": "uint256"
        }
      ],
      "name": "SellOrderCancelled",
      "type": "event"
    },
    {
      "anonymous": false,
      "inputs": [
        {
          "indexed": false,
          "internalType": "uint256",
          "name": "id",
          "type": "uint256"
        },
        {
          "indexed": false,
          "internalType": "address",
          "name": "executor",
          "type": "address"
        },
        {
          "indexed": false,
          "internalType": "uint256",
          "name": "numberOfTokens",
          "type": "uint256"
        },
        {
          "indexed": false,
          "internalType": "uint256",
          "name": "price",
          "type": "uint256"
        },
        {
          "indexed": false,
          "internalType": "uint256",
          "name": "timestamp",
          "type": "uint256"
        }
      ],
      "name": "SellOrderFilled",
      "type": "event"
    },
    {
      "anonymous": false,
      "inputs": [
        {
          "indexed": false,
          "internalType": "uint256",
          "name": "id",
          "type": "uint256"
        },
        {
          "indexed": false,
          "internalType": "address",
          "name": "executor",
          "type": "address"
        },
        {
          "indexed": false,
          "internalType": "uint256",
          "name": "numberOfTokens",
          "type": "uint256"
        },
        {
          "indexed": false,
          "internalType": "uint256",
          "name": "price",
          "type": "uint256"
        },
        {
          "indexed": false,
          "internalType": "uint256",
          "name": "tokensLeftToSell",
          "type": "uint256"
        },
        {
          "indexed": false,
          "internalType": "uint256",
          "name": "etherAmountLeft",
          "type": "uint256"
        },
        {
          "indexed": false,
          "internalType": "uint256",
          "name": "timestamp",
          "type": "uint256"
        }
      ],
      "name": "SellOrderPartiallyFilled",
      "type": "event"
    },
    {
      "anonymous": false,
      "inputs": [
        {
          "indexed": false,
          "internalType": "uint256",
          "name": "id",
          "type": "uint256"
        },
        {
          "indexed": false,
          "internalType": "address",
          "name": "user",
          "type": "address"
        },
        {
          "indexed": false,
          "internalType": "address",
          "name": "celebrityToken",
          "type": "address"
        },
        {
          "indexed": false,
          "internalType": "uint256",
          "name": "tokenSell",
          "type": "uint256"
        },
        {
          "indexed": false,
          "internalType": "uint256",
          "name": "amountReceive",
          "type": "uint256"
        },
        {
          "indexed": false,
          "internalType": "uint256",
          "name": "price",
          "type": "uint256"
        },
        {
          "indexed": false,
          "internalType": "uint256",
          "name": "timestamp",
          "type": "uint256"
        }
      ],
      "name": "SellOrderPlaced",
      "type": "event"
    },
    {
      "payable": false,
      "stateMutability": "nonpayable",
      "type": "fallback"
    },
    {
      "constant": true,
      "inputs": [],
      "name": "CelebrityOwnerTokenAddress",
      "outputs": [
        {
          "internalType": "address",
          "name": "",
          "type": "address"
        }
      ],
      "payable": false,
      "stateMutability": "view",
      "type": "function"
    },
    {
      "constant": true,
      "inputs": [],
      "name": "FANCTokenAddress",
      "outputs": [
        {
          "internalType": "address",
          "name": "",
          "type": "address"
        }
      ],
      "payable": false,
      "stateMutability": "view",
      "type": "function"
    },
    {
      "constant": true,
      "inputs": [],
      "name": "ORACLEADDRESS",
      "outputs": [
        {
          "internalType": "address payable",
          "name": "",
          "type": "address"
        }
      ],
      "payable": false,
      "stateMutability": "view",
      "type": "function"
    },
    {
      "constant": true,
      "inputs": [],
      "name": "WETHERADDRESS",
      "outputs": [
        {
          "internalType": "address",
          "name": "",
          "type": "address"
        }
      ],
      "payable": false,
      "stateMutability": "view",
      "type": "function"
    },
    {
      "constant": true,
      "inputs": [],
      "name": "allocationToNFTOwner",
      "outputs": [
        {
          "internalType": "uint256",
          "name": "",
          "type": "uint256"
        }
      ],
      "payable": false,
      "stateMutability": "view",
      "type": "function"
    },
    {
      "constant": true,
      "inputs": [],
      "name": "buyOrderCount",
      "outputs": [
        {
          "internalType": "uint256",
          "name": "",
          "type": "uint256"
        }
      ],
      "payable": false,
      "stateMutability": "view",
      "type": "function"
    },
    {
      "constant": true,
      "inputs": [
        {
          "internalType": "uint256",
          "name": "",
          "type": "uint256"
        },
        {
          "internalType": "uint256",
          "name": "",
          "type": "uint256"
        }
      ],
      "name": "buyOrderExecutedTrades",
      "outputs": [
        {
          "internalType": "address",
          "name": "user",
          "type": "address"
        },
        {
          "internalType": "uint256",
          "name": "tokensFilled",
          "type": "uint256"
        },
        {
          "internalType": "uint256",
          "name": "amount",
          "type": "uint256"
        },
        {
          "internalType": "uint256",
          "name": "timestamp",
          "type": "uint256"
        }
      ],
      "payable": false,
      "stateMutability": "view",
      "type": "function"
    },
    {
      "constant": true,
      "inputs": [
        {
          "internalType": "uint256",
          "name": "",
          "type": "uint256"
        }
      ],
      "name": "buyOrders",
      "outputs": [
        {
          "internalType": "uint256",
          "name": "id",
          "type": "uint256"
        },
        {
          "internalType": "address",
          "name": "user",
          "type": "address"
        },
        {
          "internalType": "address",
          "name": "celebrityToken",
          "type": "address"
        },
        {
          "internalType": "uint256",
          "name": "tokenBuy",
          "type": "uint256"
        },
        {
          "internalType": "uint256",
          "name": "amountSend",
          "type": "uint256"
        },
        {
          "internalType": "uint256",
          "name": "buyPrice",
          "type": "uint256"
        },
        {
          "internalType": "uint256",
          "name": "tokensLeftToBuy",
          "type": "uint256"
        },
        {
          "internalType": "uint256",
          "name": "etherAmountLeft",
          "type": "uint256"
        },
        {
          "internalType": "uint256",
          "name": "feeAllocatedAsEther",
          "type": "uint256"
        },
        {
          "internalType": "uint256",
          "name": "feeAllocatedAsFANC",
          "type": "uint256"
        },
        {
          "internalType": "bool",
          "name": "isFeePaidUsingFANC",
          "type": "bool"
        },
        {
          "internalType": "uint256",
          "name": "currentFeePercent",
          "type": "uint256"
        },
        {
          "internalType": "uint256",
          "name": "timestamp",
          "type": "uint256"
        },
        {
          "internalType": "enum CelebrityExchange.OrderStatus",
          "name": "status",
          "type": "uint8"
        }
      ],
      "payable": false,
      "stateMutability": "view",
      "type": "function"
    },
    {
      "constant": true,
      "inputs": [
        {
          "internalType": "address",
          "name": "",
          "type": "address"
        }
      ],
      "name": "currentHighestSellOrderPrice",
      "outputs": [
        {
          "internalType": "uint256",
          "name": "",
          "type": "uint256"
        }
      ],
      "payable": false,
      "stateMutability": "view",
      "type": "function"
    },
    {
      "constant": true,
      "inputs": [
        {
          "internalType": "address",
          "name": "",
          "type": "address"
        }
      ],
      "name": "feeCollectedInEther",
      "outputs": [
        {
          "internalType": "uint256",
          "name": "",
          "type": "uint256"
        }
      ],
      "payable": false,
      "stateMutability": "view",
      "type": "function"
    },
    {
      "constant": true,
      "inputs": [
        {
          "internalType": "address",
          "name": "",
          "type": "address"
        }
      ],
      "name": "feeCollectedInFANC",
      "outputs": [
        {
          "internalType": "uint256",
          "name": "",
          "type": "uint256"
        }
      ],
      "payable": false,
      "stateMutability": "view",
      "type": "function"
    },
    {
      "constant": true,
      "inputs": [],
      "name": "feePercent",
      "outputs": [
        {
          "internalType": "uint256",
          "name": "",
          "type": "uint256"
        }
      ],
      "payable": false,
      "stateMutability": "view",
      "type": "function"
    },
    {
      "constant": true,
      "inputs": [],
      "name": "isOwner",
      "outputs": [
        {
          "internalType": "bool",
          "name": "",
          "type": "bool"
        }
      ],
      "payable": false,
      "stateMutability": "view",
      "type": "function"
    },
    {
      "constant": true,
      "inputs": [
        {
          "internalType": "address",
          "name": "",
          "type": "address"
        }
      ],
      "name": "latestPrice",
      "outputs": [
        {
          "internalType": "uint256",
          "name": "",
          "type": "uint256"
        }
      ],
      "payable": false,
      "stateMutability": "view",
      "type": "function"
    },
    {
      "constant": true,
      "inputs": [],
      "name": "minWithdrawalInEtherAllowed",
      "outputs": [
        {
          "internalType": "uint256",
          "name": "",
          "type": "uint256"
        }
      ],
      "payable": false,
      "stateMutability": "view",
      "type": "function"
    },
    {
      "constant": true,
      "inputs": [],
      "name": "owner",
      "outputs": [
        {
          "internalType": "address",
          "name": "",
          "type": "address"
        }
      ],
      "payable": false,
      "stateMutability": "view",
      "type": "function"
    },
    {
      "constant": false,
      "inputs": [],
      "name": "renounceOwnership",
      "outputs": [],
      "payable": false,
      "stateMutability": "nonpayable",
      "type": "function"
    },
    {
      "constant": true,
      "inputs": [],
      "name": "sellOrderCount",
      "outputs": [
        {
          "internalType": "uint256",
          "name": "",
          "type": "uint256"
        }
      ],
      "payable": false,
      "stateMutability": "view",
      "type": "function"
    },
    {
      "constant": true,
      "inputs": [
        {
          "internalType": "uint256",
          "name": "",
          "type": "uint256"
        },
        {
          "internalType": "uint256",
          "name": "",
          "type": "uint256"
        }
      ],
      "name": "sellOrderExecutedTrades",
      "outputs": [
        {
          "internalType": "address",
          "name": "user",
          "type": "address"
        },
        {
          "internalType": "uint256",
          "name": "tokensFilled",
          "type": "uint256"
        },
        {
          "internalType": "uint256",
          "name": "amount",
          "type": "uint256"
        },
        {
          "internalType": "uint256",
          "name": "timestamp",
          "type": "uint256"
        }
      ],
      "payable": false,
      "stateMutability": "view",
      "type": "function"
    },
    {
      "constant": true,
      "inputs": [
        {
          "internalType": "uint256",
          "name": "",
          "type": "uint256"
        }
      ],
      "name": "sellOrders",
      "outputs": [
        {
          "internalType": "uint256",
          "name": "id",
          "type": "uint256"
        },
        {
          "internalType": "address payable",
          "name": "user",
          "type": "address"
        },
        {
          "internalType": "address",
          "name": "celebrityToken",
          "type": "address"
        },
        {
          "internalType": "uint256",
          "name": "tokenSell",
          "type": "uint256"
        },
        {
          "internalType": "uint256",
          "name": "amountReceive",
          "type": "uint256"
        },
        {
          "internalType": "uint256",
          "name": "sellPrice",
          "type": "uint256"
        },
        {
          "internalType": "uint256",
          "name": "tokensLeftToSell",
          "type": "uint256"
        },
        {
          "internalType": "uint256",
          "name": "etherAmountLeft",
          "type": "uint256"
        },
        {
          "internalType": "uint256",
          "name": "feeAllocatedAsEther",
          "type": "uint256"
        },
        {
          "internalType": "uint256",
          "name": "feeAllocatedAsFANC",
          "type": "uint256"
        },
        {
          "internalType": "bool",
          "name": "isFeePaidUsingFANC",
          "type": "bool"
        },
        {
          "internalType": "uint256",
          "name": "currentFeePercent",
          "type": "uint256"
        },
        {
          "internalType": "uint256",
          "name": "timestamp",
          "type": "uint256"
        },
        {
          "internalType": "enum CelebrityExchange.OrderStatus",
          "name": "status",
          "type": "uint8"
        }
      ],
      "payable": false,
      "stateMutability": "view",
      "type": "function"
    },
    {
      "constant": true,
      "inputs": [
        {
          "internalType": "address",
          "name": "",
          "type": "address"
        },
        {
          "internalType": "address",
          "name": "",
          "type": "address"
        }
      ],
      "name": "tokensAndEtherInExchange",
      "outputs": [
        {
          "internalType": "uint256",
          "name": "",
          "type": "uint256"
        }
      ],
      "payable": false,
      "stateMutability": "view",
      "type": "function"
    },
    {
      "constant": false,
      "inputs": [
        {
          "internalType": "address",
          "name": "newOwner",
          "type": "address"
        }
      ],
      "name": "transferOwnership",
      "outputs": [],
      "payable": false,
      "stateMutability": "nonpayable",
      "type": "function"
    },
    {
      "constant": false,
      "inputs": [
        {
          "internalType": "address",
          "name": "_FANCTokenAddress",
          "type": "address"
        },
        {
          "internalType": "address",
          "name": "_WETHERAddress",
          "type": "address"
        },
        {
          "internalType": "address payable",
          "name": "_oracleAddress",
          "type": "address"
        },
        {
          "internalType": "address",
          "name": "_CelebrityOwnerTokenAddress",
          "type": "address"
        }
      ],
      "name": "changeTokenAddress",
      "outputs": [],
      "payable": false,
      "stateMutability": "nonpayable",
      "type": "function"
    },
    {
      "constant": false,
      "inputs": [
        {
          "internalType": "uint256",
          "name": "_feePercent",
          "type": "uint256"
        },
        {
          "internalType": "uint256",
          "name": "_allocationToNFTOwner",
          "type": "uint256"
        },
        {
          "internalType": "uint8",
          "name": "_sellPriceSpread",
          "type": "uint8"
        },
        {
          "internalType": "uint256",
          "name": "_minWithdrawalInEtherAllowed10Power6",
          "type": "uint256"
        }
      ],
      "name": "changeFeePercent",
      "outputs": [],
      "payable": false,
      "stateMutability": "nonpayable",
      "type": "function"
    },
    {
      "constant": false,
      "inputs": [
        {
          "internalType": "address",
          "name": "_celebrityToken",
          "type": "address"
        },
        {
          "internalType": "uint256",
          "name": "_tokenBuy",
          "type": "uint256"
        },
        {
          "internalType": "uint256",
          "name": "_amountSend",
          "type": "uint256"
        },
        {
          "internalType": "uint256",
          "name": "_fees",
          "type": "uint256"
        },
        {
          "internalType": "bool",
          "name": "_usingFANCTokenForFees",
          "type": "bool"
        }
      ],
      "name": "placeBuyOrder",
      "outputs": [],
      "payable": false,
      "stateMutability": "nonpayable",
      "type": "function"
    },
    {
      "constant": false,
      "inputs": [
        {
          "internalType": "address",
          "name": "_celebrityToken",
          "type": "address"
        },
        {
          "internalType": "uint256",
          "name": "_tokenSell",
          "type": "uint256"
        },
        {
          "internalType": "uint256",
          "name": "_amountReceive",
          "type": "uint256"
        },
        {
          "internalType": "uint256",
          "name": "_fees",
          "type": "uint256"
        },
        {
          "internalType": "bool",
          "name": "_usingFANCTokenForFees",
          "type": "bool"
        }
      ],
      "name": "placeSellOrder",
      "outputs": [],
      "payable": false,
      "stateMutability": "nonpayable",
      "type": "function"
    },
    {
      "constant": false,
      "inputs": [
        {
          "internalType": "uint256",
          "name": "_buyOrderId",
          "type": "uint256"
        },
        {
          "internalType": "uint256",
          "name": "_tokensFilled",
          "type": "uint256"
        },
        {
          "internalType": "uint256",
          "name": "_fees",
          "type": "uint256"
        },
        {
          "internalType": "bool",
          "name": "_usingFANCTokenForFees",
          "type": "bool"
        }
      ],
      "name": "fillBuyOrder",
      "outputs": [],
      "payable": false,
      "stateMutability": "nonpayable",
      "type": "function"
    },
    {
      "constant": false,
      "inputs": [
        {
          "internalType": "uint256",
          "name": "_sellOrderId",
          "type": "uint256"
        },
        {
          "internalType": "uint256",
          "name": "_tokensFilled",
          "type": "uint256"
        },
        {
          "internalType": "uint256",
          "name": "_fees",
          "type": "uint256"
        },
        {
          "internalType": "bool",
          "name": "_usingFANCTokenForFees",
          "type": "bool"
        }
      ],
      "name": "fillSellOrder",
      "outputs": [],
      "payable": false,
      "stateMutability": "nonpayable",
      "type": "function"
    },
    {
      "constant": false,
      "inputs": [
        {
          "internalType": "uint256",
          "name": "_buyOrderId",
          "type": "uint256"
        }
      ],
      "name": "cancelBuyOrder",
      "outputs": [],
      "payable": false,
      "stateMutability": "nonpayable",
      "type": "function"
    },
    {
      "constant": false,
      "inputs": [
        {
          "internalType": "uint256",
          "name": "_sellOrderId",
          "type": "uint256"
        }
      ],
      "name": "cancelSellOrder",
      "outputs": [],
      "payable": false,
      "stateMutability": "nonpayable",
      "type": "function"
    },
    {
      "constant": false,
      "inputs": [
        {
          "internalType": "address",
          "name": "_celebrityToken",
          "type": "address"
        },
        {
          "internalType": "uint256",
          "name": "_tokenSell",
          "type": "uint256"
        },
        {
          "internalType": "uint256",
          "name": "_amountReceive",
          "type": "uint256"
        }
      ],
      "name": "placeInitialSellOrder",
      "outputs": [],
      "payable": false,
      "stateMutability": "nonpayable",
      "type": "function"
    },
    {
      "constant": false,
      "inputs": [
        {
          "internalType": "address",
          "name": "_celebrityToken",
          "type": "address"
        },
        {
          "internalType": "uint256",
          "name": "_tokenSell",
          "type": "uint256"
        },
        {
          "internalType": "uint256",
          "name": "_amountReceive",
          "type": "uint256"
        }
      ],
      "name": "updateInitialSellOrder",
      "outputs": [],
      "payable": false,
      "stateMutability": "nonpayable",
      "type": "function"
    },
    {
      "constant": true,
      "inputs": [
        {
          "internalType": "address",
          "name": "_token",
          "type": "address"
        },
        {
          "internalType": "address",
          "name": "_user",
          "type": "address"
        }
      ],
      "name": "balanceOf",
      "outputs": [
        {
          "internalType": "uint256",
          "name": "",
          "type": "uint256"
        }
      ],
      "payable": false,
      "stateMutability": "view",
      "type": "function"
    },
    {
      "constant": false,
      "inputs": [
        {
          "internalType": "uint256",
          "name": "_amount",
          "type": "uint256"
        }
      ],
      "name": "withdrawEther",
      "outputs": [],
      "payable": false,
      "stateMutability": "nonpayable",
      "type": "function"
    },
    {
      "constant": false,
      "inputs": [
        {
          "internalType": "uint256",
          "name": "_amount",
          "type": "uint256"
        }
      ],
      "name": "withdrawFANC",
      "outputs": [],
      "payable": false,
      "stateMutability": "nonpayable",
      "type": "function"
    },
    {
      "constant": false,
      "inputs": [
        {
          "internalType": "uint256",
          "name": "_amount",
          "type": "uint256"
        }
      ],
      "name": "withdrawEtherFees",
      "outputs": [],
      "payable": false,
      "stateMutability": "nonpayable",
      "type": "function"
    },
    {
      "constant": false,
      "inputs": [
        {
          "internalType": "uint256",
          "name": "_amount",
          "type": "uint256"
        }
      ],
      "name": "withdrawFANCFees",
      "outputs": [],
      "payable": false,
      "stateMutability": "nonpayable",
      "type": "function"
    }
  ],
  "bytecode": "0x608060405234801561001057600080fd5b506040516200476638038062004766833981810160405261010081101561003657600080fd5b50805160208201516040808401516060850151608086015160a087015160c088015160e090980151600080546001600160a01b031916331780825596519899979895979496939592949391926001600160a01b0392909216917f8be0079c531659141344cd1fd0a4f28419497f9722a3daafe3b4186f6b6457e0908290a3600197909755600291909155600480546001600160a01b03199081166001600160a01b039788161790915560038054821695871695909517909455600580548516928616929092179091556006805490931691909316179055600e805460ff191660ff9092169190911790556402540be4000260185561462c806200013a6000396000f3fe608060405234801561001057600080fd5b50600436106102275760003560e01c80637cee0ad611610130578063d0707d36116100b8578063f0cbd9961161007c578063f0cbd99614610701578063f2fde38b14610741578063f58c7acf14610767578063f7888aec1461076f578063fdff5fcd1461079d57610227565b8063d0707d3614610634578063d1e3175a14610662578063e20f0cd11461066a578063e2562bae14610690578063e6ce9a90146106d057610227565b80638da5cb5b116100ff5780638da5cb5b146105985780638f32d59b146105a05780639e8aed3d146105bc578063b3482364146105d9578063be5d147f1461061757610227565b80637cee0ad6146105245780637fd6f15c146105565780638371efb41461055e5780638549a38d1461056657610227565b8063537ef53d116101b357806360eff5171161018257806360eff5171461049f57806362151a7e146104a7578063715018a6146104cd5780637a36c5fa146104d55780637bdcc9901461050757610227565b8063537ef53d14610431578063544eff2b1461045757806357c02f1a1461045f5780635da349131461048257610227565b806335cea288116101fa57806335cea288146102e95780633bed33ce146103ad5780634a8393f3146103ca57806350f35cfd146103e757806353084eff1461040b57610227565b806308e2f02e1461022c5780631a46e42a1461025f5780631f0ea5b21461027c5780632fa8e67614610296575b600080fd5b61025d6004803603608081101561024257600080fd5b508035906020810135906040810135906060013515156107a5565b005b61025d6004803603602081101561027557600080fd5b5035610df1565b610284610fce565b60408051918252519081900360200190f35b6102b9600480360360408110156102ac57600080fd5b5080359060200135610fd4565b604080516001600160a01b0390951685526020850193909352838301919091526060830152519081900360800190f35b610306600480360360208110156102ff57600080fd5b5035611021565b604051808f81526020018e6001600160a01b03166001600160a01b031681526020018d6001600160a01b03166001600160a01b031681526020018c81526020018b81526020018a81526020018981526020018881526020018781526020018681526020018515151515815260200184815260200183815260200182600381111561038c57fe5b60ff1681526020019e50505050505050505050505050505060405180910390f35b61025d600480360360208110156103c357600080fd5b50356110a0565b610306600480360360208110156103e057600080fd5b503561128a565b6103ef61130b565b604080516001600160a01b039092168252519081900360200190f35b6102846004803603602081101561042157600080fd5b50356001600160a01b031661131a565b6102846004803603602081101561044757600080fd5b50356001600160a01b031661132c565b6103ef61133e565b6102b96004803603604081101561047557600080fd5b508035906020013561134d565b61025d6004803603602081101561049857600080fd5b5035611366565b6103ef6114ab565b610284600480360360208110156104bd57600080fd5b50356001600160a01b03166114ba565b61025d6114cc565b61025d600480360360608110156104eb57600080fd5b506001600160a01b038135169060208101359060400135611559565b61025d6004803603602081101561051d57600080fd5b50356118c4565b61025d6004803603608081101561053a57600080fd5b5080359060208101359060ff60408201351690606001356119dc565b610284611a4a565b610284611a50565b61025d6004803603606081101561057c57600080fd5b506001600160a01b038135169060208101359060400135611a56565b6103ef611eea565b6105a8611ef9565b604080519115158252519081900360200190f35b61025d600480360360208110156105d257600080fd5b5035611f0a565b61025d600480360360808110156105ef57600080fd5b506001600160a01b0381358116916020810135821691604082013581169160600135166120b8565b61025d6004803603602081101561062d57600080fd5b503561214b565b6102846004803603604081101561064a57600080fd5b506001600160a01b03813581169160200135166122f8565b610284612315565b6102846004803603602081101561068057600080fd5b50356001600160a01b031661231b565b61025d600480360360a08110156106a657600080fd5b506001600160a01b038135169060208101359060408101359060608101359060800135151561232d565b61025d600480360360808110156106e657600080fd5b508035906020810135906040810135906060013515156127e9565b61025d600480360360a081101561071757600080fd5b506001600160a01b0381351690602081013590604081013590606081013590608001351515612e0d565b61025d6004803603602081101561075757600080fd5b50356001600160a01b0316613356565b6102846133a5565b6102846004803603604081101561078557600080fd5b506001600160a01b03813581169160200135166133ab565b6103ef6133d8565b6000848152600b60205260409020600101546001600160a01b03163314156107fe5760405162461bcd60e51b81526004018080602001828103825260298152602001806145246029913960400191505060405180910390fd5b600d54841061084b576040805162461bcd60e51b815260206004820152601460248201527313dc99195c88191bd95cc81b9bdd08195e1a5cdd60621b604482015290519081900360640190fd5b60026000858152600b60205260409020600d015460ff16600381111561086d57fe5b1415801561089b575060036000858152600b60205260409020600d015460ff16600381111561089857fe5b14155b6108d65760405162461bcd60e51b81526004018080602001828103825260228152602001806144ad6022913960400191505060405180910390fd5b6000831180156108f757506000848152600b60205260409020600601548311155b6109325760405162461bcd60e51b815260040180806020018281038252602e8152602001806144cf602e913960400191505060405180910390fd5b6000848152600b60205260408120600501548190819061097390670de0b6b3a76400009061096790899063ffffffff6133e716565b9063ffffffff61344716565b90508315610a8357600554604080516301ca9e1160e71b815290516000926001600160a01b03169163e54f0880916004808301926020929190829003018186803b1580156109c057600080fd5b505afa1580156109d4573d6000803e3d6000fd5b505050506040513d60208110156109ea57600080fd5b5051600154909150610a2f906ec097ce7bc90715b34b9f1000000000906109679060029082908690610a2390899063ffffffff6133e716565b9063ffffffff6133e716565b8614610a70576040805162461bcd60e51b8152602060048201526015602482015260008051602061446c833981519152604482015290519081900360640190fd5b610a7a3387613489565b85925050610af3565b610aa4670de0b6b3a7640000610967600154846133e790919063ffffffff16565b8514610ae5576040805162461bcd60e51b8152602060048201526015602482015260008051602061446c833981519152604482015290519081900360640190fd5b610aef3386613513565b8492505b6000878152600b6020526040902060010154610b1a9033906001600160a01b03168361362e565b6000878152600b6020526040902060020154610b40906001600160a01b0316338861377c565b610b4c878784866137dc565b6000878152600b6020526040902060060154610b6e908763ffffffff613c9116565b6000888152600b60205260409020600681019190915560070154610b98908263ffffffff613c9116565b6000888152600b6020908152604080832060078082019590955560028101546001600160a01b03908116855294835281842060019091015490941683529290522054610bea908263ffffffff613c9116565b6000888152600b6020818152604080842060028101546001600160a01b0390811686526007845282862060018301549091168652835290842094909455918a905290526006015415610cc9576000878152600b6020908152604091829020600d8101805460ff19166001179055805460058201546006830154600790930154855192835233948301949094528185018b90526060820152608081019190915260a08101919091524260c082015290517f84b582c39f1979ff5fe618bba635b2101d9559efbcbf8ae4453a565a5543e06a9160e0908290030190a1610d41565b6000878152600b6020908152604091829020600d8101805460ff19166002179055805460059091015483519182523392820192909252808301899052606081019190915242608082015290517f2c2c15d3c56bafe3b43e442d6ee3d5b3a8145003d56ad59775237b8b1239713d9160a0908290030190a15b6000878152600b6020908152604080832060058101546002918201546001600160a01b039081168652600f8552838620919091559a8452601a835281842082516080810184523381528085019b8c529283019586524260608401908152815460018082018455928752949095209251600490940290920180546001600160a01b03191693909b16929092178a55975197890197909755905195870195909555505091516003909301929092555050565b6000818152600b60205260409020600101546001600160a01b03163314610e495760405162461bcd60e51b81526004018080602001828103825260308152602001806145c86030913960400191505060405180910390fd5b6000818152600b602052604090206008810154600190910154610e75906001600160a01b031682613cd3565b6000828152600b60205260409020600681015460028201546001909201549091610eac916001600160a01b0391821691168361377c565b6000838152600b602052604090206009810154600190910154610ed8906001600160a01b031682613d29565b6000848152600b6020908152604080832060078082015460028301546001600160a01b0390811687529185528386206001909301549091168552925290912054610f279163ffffffff613c9116565b6000858152600b602081815260408084206002810180546001600160a01b039081168752600785528387206001840180548316895290865284882098909855958b9052938352600d01805460ff19166003179055935491548451898152928416918301919091529091168183015242606082015290517f57e8f87c0d042699a4719324176f71329715c78041e8338cec2c05def125a0cb916080908290030190a150505050565b60025481565b60196020528160005260406000208181548110610fed57fe5b600091825260209091206004909102018054600182015460028301546003909301546001600160a01b039092169450925084565b600a60208190526000918252604090912080546001820154600283015460038401546004850154600586015460068701546007880154600889015460098a01549a8a0154600b8b0154600c8c0154600d909c01549a9c6001600160a01b039a8b169c99909a169a97999698959794969395929460ff928316939192168e565b6110a8611ef9565b6110e35760405162461bcd60e51b81526004018080602001828103825260298152602001806143cf6029913960400191505060405180910390fd5b6003546001600160a01b031660009081526007602052604081208291611107611eea565b6001600160a01b03166001600160a01b03168152602001908152602001600020541015611169576040805162461bcd60e51b815260206004820181905260248201526000805160206143af833981519152604482015290519081900360640190fd5b6003546001600160a01b031660009081526007602052604081206111b891839190611192611eea565b6001600160a01b031681526020810191909152604001600020549063ffffffff613c9116565b6003546001600160a01b03166000908152600760205260408120906111db611eea565b6001600160a01b0390811682526020820192909252604001600020919091556003541663a9059cbb61120b611eea565b836040518363ffffffff1660e01b815260040180836001600160a01b03166001600160a01b0316815260200182815260200192505050602060405180830381600087803b15801561125b57600080fd5b505af115801561126f573d6000803e3d6000fd5b505050506040513d602081101561128557600080fd5b505050565b600b60208190526000918252604090912080546001820154600283015460038401546004850154600586015460068701546007880154600889015460098a0154600a8b01549b8b0154600c8c0154600d909c01549a9c6001600160a01b039a8b169c99909a169a979996989597949693959294919360ff908116939192168e565b6005546001600160a01b031681565b600f6020526000908152604090205481565b60086020526000908152604090205481565b6006546001600160a01b031681565b601a6020528160005260406000208181548110610fed57fe5b61136e611ef9565b6113a95760405162461bcd60e51b81526004018080602001828103825260298152602001806143cf6029913960400191505060405180910390fd5b6004546001600160a01b0316600090815260076020526040812082916113cd611eea565b6001600160a01b03166001600160a01b0316815260200190815260200160002054101561142f576040805162461bcd60e51b815260206004820181905260248201526000805160206143af833981519152604482015290519081900360640190fd5b6004546001600160a01b0316600090815260076020526040812061145891839190611192611eea565b6004546001600160a01b031660009081526007602052604081209061147b611eea565b6001600160a01b0390811682526020820192909252604001600020919091556004541663a9059cbb61120b611eea565b6003546001600160a01b031681565b60106020526000908152604090205481565b6114d4611ef9565b61150f5760405162461bcd60e51b81526004018080602001828103825260298152602001806143cf6029913960400191505060405180910390fd5b600080546040516001600160a01b03909116907f8be0079c531659141344cd1fd0a4f28419497f9722a3daafe3b4186f6b6457e0908390a3600080546001600160a01b0319169055565b611561611ef9565b61159c5760405162461bcd60e51b81526004018080602001828103825260298152602001806143cf6029913960400191505060405180910390fd5b604080516370a0823160e01b8152336004820152905183916001600160a01b038616916370a0823191602480820192602092909190829003018186803b1580156115e557600080fd5b505afa1580156115f9573d6000803e3d6000fd5b505050506040513d602081101561160f57600080fd5b5051101561164e5760405162461bcd60e51b81526004018080602001828103825260278152602001806144fd6027913960400191505060405180910390fd5b826001600160a01b031663ac86bce16040518163ffffffff1660e01b815260040160206040518083038186803b15801561168757600080fd5b505afa15801561169b573d6000803e3d6000fd5b505050506040513d60208110156116b157600080fd5b5051156116ef5760405162461bcd60e51b81526004018080602001828103825260498152602001806143f86049913960600191505060405180910390fd5b600061170d8361096784670de0b6b3a764000063ffffffff6133e716565b6001600160a01b0385166000908152601760209081526040808320548352600b909152902060060154909150611757908590339061175290879063ffffffff613c9116565b613d83565b6001600160a01b038416600090815260176020908152604080832080548452600b9092528083206003018690558154835280832060040185905581548352808320600501849055815483528083206006908101879055825484528184206007018690558254845281842042600c90910155915483529091200154611810906117e0908590613c91565b6001600160a01b03861660009081526007602090815260408083203384529091529020549063ffffffff613ddc16565b6001600160a01b03851660008181526007602090815260408083203384528252918290209390935580519182529181018590528082018490526060810183905242608082015290517f655671079493fa2ffb38e7aa405b2e78b5d7fd641fdf541a6cd862f33e98ef149181900360a00190a16001600160a01b0384166000908152601060205260409020548111156118be576001600160a01b03841660009081526010602052604090208190555b50505050565b33600090815260086020526040902054811115611916576040805162461bcd60e51b815260206004820181905260248201526000805160206143af833981519152604482015290519081900360640190fd5b6018548110156119575760405162461bcd60e51b815260040180806020018281038252602581526020018061457a6025913960400191505060405180910390fd5b33600090815260086020526040902054611977908263ffffffff613c9116565b33600081815260086020908152604080832094909455600354845163a9059cbb60e01b815260048101949094526024840186905293516001600160a01b039094169363a9059cbb93604480820194918390030190829087803b15801561125b57600080fd5b6119e4611ef9565b611a1f5760405162461bcd60e51b81526004018080602001828103825260298152602001806143cf6029913960400191505060405180910390fd5b600193909355600291909155600e805460ff191660ff9092169190911790556402540be40002601855565b60015481565b60185481565b611a5e611ef9565b611a995760405162461bcd60e51b81526004018080602001828103825260298152602001806143cf6029913960400191505060405180910390fd5b604080516370a0823160e01b8152336004820152905183916001600160a01b038616916370a0823191602480820192602092909190829003018186803b158015611ae257600080fd5b505afa158015611af6573d6000803e3d6000fd5b505050506040513d6020811015611b0c57600080fd5b50511015611b4b5760405162461bcd60e51b81526004018080602001828103825260278152602001806144fd6027913960400191505060405180910390fd5b826001600160a01b031663ac86bce16040518163ffffffff1660e01b815260040160206040518083038186803b158015611b8457600080fd5b505afa158015611b98573d6000803e3d6000fd5b505050506040513d6020811015611bae57600080fd5b505115611bec5760405162461bcd60e51b81526004018080602001828103825260498152602001806143f86049913960600191505060405180910390fd5b826001600160a01b031663ef2cd7c66040518163ffffffff1660e01b8152600401600060405180830381600087803b158015611c2757600080fd5b505af1158015611c3b573d6000803e3d6000fd5b505050506000611c6083610967670de0b6b3a7640000856133e790919063ffffffff16565b9050611c6d843385613d83565b604051806101c00160405280600d548152602001336001600160a01b03168152602001856001600160a01b031681526020018481526020018381526020018281526020018481526020018381526020016000815260200160008152602001600015158152602001600154815260200142815260200160006003811115611cef57fe5b9052600d80546000908152600b60208181526040928390208551815590850151600180830180546001600160a01b039384166001600160a01b0319918216179091559487015160028401805491909316951694909417905560608501516003808301919091556080860151600483015560a0860151600583015560c0860151600683015560e0860151600783015561010086015160088301556101208601516009830155610140860151600a8301805491151560ff1992831617905561016087015193830193909355610180860151600c8301556101a0860151948201805492959490939290921691908490811115611de457fe5b021790555050600d546001600160a01b0386166000908152601760209081526040808320939093556007815282822033835290522054611e2b91508463ffffffff613ddc16565b6001600160a01b0385166000818152600760209081526040808320338085529083529281902094909455600d5484519081529081019190915280830191909152606081018590526080810184905260a081018390524260c082015290517ff228d323e5c900847ce107cbbf6184c0813d4edafec11f2aaf5b3c6bea4cdba99181900360e00190a1600d54611ec690600163ffffffff613ddc16565b600d556001600160a01b039093166000908152601060205260409020929092555050565b6000546001600160a01b031690565b6000546001600160a01b0316331490565b33600090815260096020526040902054811115611f5c576040805162461bcd60e51b815260206004820181905260248201526000805160206143af833981519152604482015290519081900360640190fd5b611ff4670de0b6b3a7640000610967600560009054906101000a90046001600160a01b03166001600160a01b031663e54f08806040518163ffffffff1660e01b815260040160206040518083038186803b158015611fb957600080fd5b505afa158015611fcd573d6000803e3d6000fd5b505050506040513d6020811015611fe357600080fd5b50516018549063ffffffff6133e716565b8110156120325760405162461bcd60e51b815260040180806020018281038252602581526020018061457a6025913960400191505060405180910390fd5b33600090815260096020526040902054612052908263ffffffff613c9116565b3360008181526009602090815260408083209490945560048054855163a9059cbb60e01b8152918201949094526024810186905293516001600160a01b039093169363a9059cbb9360448083019491928390030190829087803b15801561125b57600080fd5b6120c0611ef9565b6120fb5760405162461bcd60e51b81526004018080602001828103825260298152602001806143cf6029913960400191505060405180910390fd5b600480546001600160a01b039586166001600160a01b0319918216179091556003805494861694821694909417909355600580549285169284169290921790915560068054919093169116179055565b6000818152600a60205260409020600101546001600160a01b031633146121a35760405162461bcd60e51b81526004018080602001828103825260308152602001806145c86030913960400191505060405180910390fd5b6000818152600a60205260409020600881015460078201546001909201549101906121d7906001600160a01b031682613cd3565b6000828152600a602052604090206009810154600190910154612203906001600160a01b031682613d29565b6000838152600a602090815260408083206007808201546003546001600160a01b03908116875291855283862060019093015490911685529252909120546122509163ffffffff613c9116565b600380546001600160a01b039081166000908152600760209081526040808320898452600a8084528285206001810180548816875292855283862098909855938a9052928252600d8601805460ff191690951790945590546002909401548351888152948316918501919091521682820152426060830152517fac163ee11256420e1edd28dd50b31ce7acd675b030960b0f560fde30a2eabb399181900360800190a1505050565b600760209081526000928352604080842090915290825290205481565b600c5481565b60096020526000908152604090205481565b846001600160a01b031663ac86bce16040518163ffffffff1660e01b815260040160206040518083038186803b15801561236657600080fd5b505afa15801561237a573d6000803e3d6000fd5b505050506040513d602081101561239057600080fd5b50516123cd5760405162461bcd60e51b815260040180806020018281038252602b815260200180614441602b913960400191505060405180910390fd5b60006123eb8561096786670de0b6b3a764000063ffffffff6133e716565b905060008083156124fc57600554604080516301ca9e1160e71b815290516000926001600160a01b03169163e54f0880916004808301926020929190829003018186803b15801561243b57600080fd5b505afa15801561244f573d6000803e3d6000fd5b505050506040513d602081101561246557600080fd5b505160015490915061249e906ec097ce7bc90715b34b9f1000000000906109679060029082908690610a23908e9063ffffffff6133e716565b86146124df576040805162461bcd60e51b8152602060048201526015602482015260008051602061446c833981519152604482015290519081900360640190fd5b6124e93387613489565b6124f33388613513565b8591505061257b565b61251d670de0b6b3a7640000610967600154896133e790919063ffffffff16565b851461255e576040805162461bcd60e51b8152602060048201526015602482015260008051602061446c833981519152604482015290519081900360640190fd5b61257733612572888863ffffffff613ddc16565b613513565b8491505b604051806101c00160405280600c548152602001336001600160a01b03168152602001896001600160a01b0316815260200188815260200187815260200184815260200188815260200187815260200183815260200182815260200185151581526020016001548152602001428152602001600060038111156125fa57fe5b9052600c80546000908152600a60208181526040928390208551815590850151600180830180546001600160a01b039384166001600160a01b0319918216179091559487015160028401805491909316951694909417905560608501516003808301919091556080860151600483015560a0860151600583015560c0860151600683015560e0860151600783015561010086015160088301556101208601516009830155610140860151928201805493151560ff19948516179055610160860151600b830155610180860151948201949094556101a0850151600d8201805492959194909392909216919084908111156126f057fe5b0217905550506003546001600160a01b0316600090815260076020908152604080832033845290915290205461272d91508763ffffffff613ddc16565b6003546001600160a01b039081166000908152600760209081526040808320338085529083529281902094909455600c54845190815290810191909152908a1681830152606081018990526080810188905260a0810184905260c0810183905260e081018590524261010082015290517f7605d95596476e976e4d4397ab97a3a3294452ecccdfe7c505ad7cd1cbbbb7ca918190036101200190a1600c546127dc90600163ffffffff613ddc16565b600c555050505050505050565b6000848152600a60205260409020600101546001600160a01b03163314156128425760405162461bcd60e51b81526004018080602001828103825260298152602001806145246029913960400191505060405180910390fd5b600c54841061288f576040805162461bcd60e51b815260206004820152601460248201527313dc99195c88191bd95cc81b9bdd08195e1a5cdd60621b604482015290519081900360640190fd5b60026000858152600a60205260409020600d015460ff1660038111156128b157fe5b141580156128df575060036000858152600a60205260409020600d015460ff1660038111156128dc57fe5b14155b61291a5760405162461bcd60e51b81526004018080602001828103825260228152602001806144ad6022913960400191505060405180910390fd5b60008311801561293b57506000848152600a60205260409020600601548311155b6129765760405162461bcd60e51b815260040180806020018281038252602e8152602001806144cf602e913960400191505060405180910390fd5b6000848152600a6020526040812060050154819081906129ab90670de0b6b3a76400009061096790899063ffffffff6133e716565b90508315612aaf57600554604080516301ca9e1160e71b815290516000926001600160a01b03169163e54f0880916004808301926020929190829003018186803b1580156129f857600080fd5b505afa158015612a0c573d6000803e3d6000fd5b505050506040513d6020811015612a2257600080fd5b5051600154909150612a5b906ec097ce7bc90715b34b9f1000000000906109679060029082908690610a2390899063ffffffff6133e716565b8614612a9c576040805162461bcd60e51b8152602060048201526015602482015260008051602061446c833981519152604482015290519081900360640190fd5b612aa63387613489565b85925050612b1f565b612ad0670de0b6b3a7640000610967600154846133e790919063ffffffff16565b8514612b11576040805162461bcd60e51b8152602060048201526015602482015260008051602061446c833981519152604482015290519081900360640190fd5b612b1b3386613513565b8492505b6000878152600a602052604090206002810154600190910154612b51916001600160a01b039081169133911689613e36565b612b5b3382613cd3565b612b6787878486613ec3565b6000878152600a6020526040902060060154612b89908763ffffffff613c9116565b6000888152600a60205260409020600681019190915560070154612bb3908263ffffffff613c9116565b6000888152600a602090815260408083206007808201959095556003546001600160a01b03908116855294835281842060019091015490941683529290522054612c03908263ffffffff613c9116565b6003546001600160a01b0390811660009081526007602090815260408083208c8452600a8084528285206001810154909616855290835290832094909455908a9052919091526006015415612ce5576000878152600a6020908152604091829020600d8101805460ff19166001179055805460058201546006830154600790930154855192835233948301949094528185018b90526060820152608081019190915260a08101919091524260c082015290517ff189e1e8638a97904b465af4cf8de1d26fdb845ca6d46e34a9ebaf139e239ad89160e0908290030190a1612d5d565b6000878152600a6020908152604091829020600d8101805460ff19166002179055805460059091015483519182523392820192909252808301899052606081019190915242608082015290517fda485001ba5b88dc00e5ca6ed535db2745a08787a1b9d454c02a6dc2a47492c79160a0908290030190a15b6000878152600a6020908152604080832060058101546002918201546001600160a01b039081168652600f8552838620919091559a84526019835281842082516080810184523381528085019b8c529283019586524260608401908152815460018082018455928752949095209251600490940290920180546001600160a01b03191693909b16929092178a55975197890197909755905195870195909555505091516003909301929092555050565b604080516370a0823160e01b8152336004820152905185916001600160a01b038816916370a0823191602480820192602092909190829003018186803b158015612e5657600080fd5b505afa158015612e6a573d6000803e3d6000fd5b505050506040513d6020811015612e8057600080fd5b50511015612ebf5760405162461bcd60e51b81526004018080602001828103825260278152602001806144fd6027913960400191505060405180910390fd5b846001600160a01b031663ac86bce16040518163ffffffff1660e01b815260040160206040518083038186803b158015612ef857600080fd5b505afa158015612f0c573d6000803e3d6000fd5b505050506040513d6020811015612f2257600080fd5b5051612f5f5760405162461bcd60e51b815260040180806020018281038252602b815260200180614441602b913960400191505060405180910390fd5b6000612f7d8561096786670de0b6b3a764000063ffffffff6133e716565b9050600080831561308457600554604080516301ca9e1160e71b815290516000926001600160a01b03169163e54f0880916004808301926020929190829003018186803b158015612fcd57600080fd5b505afa158015612fe1573d6000803e3d6000fd5b505050506040513d6020811015612ff757600080fd5b5051600154909150613030906ec097ce7bc90715b34b9f1000000000906109679060029082908690610a23908e9063ffffffff6133e716565b8614613071576040805162461bcd60e51b8152602060048201526015602482015260008051602061446c833981519152604482015290519081900360640190fd5b61307b3387613489565b859150506130f4565b6130a5670de0b6b3a7640000610967600154896133e790919063ffffffff16565b85146130e6576040805162461bcd60e51b8152602060048201526015602482015260008051602061446c833981519152604482015290519081900360640190fd5b6130f03387613513565b8491505b6130ff883389613d83565b604051806101c00160405280600d548152602001336001600160a01b03168152602001896001600160a01b03168152602001888152602001878152602001848152602001888152602001878152602001838152602001828152602001851515815260200160015481526020014281526020016000600381111561317e57fe5b9052600d80546000908152600b60208181526040928390208551815590850151600180830180546001600160a01b039384166001600160a01b0319918216179091559487015160028401805491909316951694909417905560608501516003808301919091556080860151600483015560a0860151600583015560c0860151600683015560e0860151600783015561010086015160088301556101208601516009830155610140860151600a8301805491151560ff1992831617905561016087015193830193909355610180860151600c8301556101a086015194820180549295949093929092169190849081111561327357fe5b021790555050506001600160a01b03881660009081526007602090815260408083203384529091529020546132ae908863ffffffff613ddc16565b6001600160a01b0389166000818152600760209081526040808320338085529083529281902094909455600d5484519081529081019190915280830191909152606081018990526080810188905260a081018590524260c082015290517f9fc86657b1d3b131b90b2bb031d623fda8b628d1944816c58c49679e30c9fdfe9181900360e00190a1600d5461334990600163ffffffff613ddc16565b600d555050505050505050565b61335e611ef9565b6133995760405162461bcd60e51b81526004018080602001828103825260298152602001806143cf6029913960400191505060405180910390fd5b6133a281614212565b50565b600d5481565b6001600160a01b038083166000908152600760209081526040808320938516835292905220545b92915050565b6004546001600160a01b031681565b6000826133f6575060006133d2565b8282028284828161340357fe5b04146134405760405162461bcd60e51b815260040180806020018281038252602181526020018061448c6021913960400191505060405180910390fd5b9392505050565b600061344083836040518060400160405280601a81526020017f536166654d6174683a206469766973696f6e206279207a65726f0000000000008152506142b2565b60048054604080516323b872dd60e01b81526001600160a01b038681169482019490945230602482015260448101859052905192909116916323b872dd916064808201926020929091908290030181600087803b1580156134e957600080fd5b505af11580156134fd573d6000803e3d6000fd5b505050506040513d60208110156118be57600080fd5b60035460408051636eb1769f60e11b81526001600160a01b03858116600483015230602483015291518493929092169163dd62ed3e91604480820192602092909190829003018186803b15801561356957600080fd5b505afa15801561357d573d6000803e3d6000fd5b505050506040513d602081101561359357600080fd5b505110156135d25760405162461bcd60e51b815260040180806020018281038252602981526020018061459f6029913960400191505060405180910390fd5b600354604080516323b872dd60e01b81526001600160a01b03858116600483015230602483015260448201859052915191909216916323b872dd9160648083019260209291908290030181600087803b1580156134e957600080fd5b60035460408051636eb1769f60e11b81526001600160a01b03868116600483015230602483015291518493929092169163dd62ed3e91604480820192602092909190829003018186803b15801561368457600080fd5b505afa158015613698573d6000803e3d6000fd5b505050506040513d60208110156136ae57600080fd5b505110156136ed5760405162461bcd60e51b815260040180806020018281038252602981526020018061459f6029913960400191505060405180910390fd5b600354604080516323b872dd60e01b81526001600160a01b038681166004830152858116602483015260448201859052915191909216916323b872dd9160648083019260209291908290030181600087803b15801561374b57600080fd5b505af115801561375f573d6000803e3d6000fd5b505050506040513d602081101561377557600080fd5b5050505050565b826001600160a01b031663a9059cbb83836040518363ffffffff1660e01b815260040180836001600160a01b03166001600160a01b0316815260200182815260200192505050602060405180830381600087803b15801561374b57600080fd5b6000848152600b60205260408120600601546137ff90859063ffffffff61344716565b6000868152600b602052604081206008015491925090613825908363ffffffff6133e716565b6000878152600b60205260408120600901549192509061384b908463ffffffff6133e716565b6006546000898152600b6020908152604080832060020154815163af640d0f60e01b8152915195965092946001600160a01b0394851694636352211e94169263af640d0f9260048082019391829003018186803b1580156138ab57600080fd5b505afa1580156138bf573d6000803e3d6000fd5b505050506040513d60208110156138d557600080fd5b5051604080516001600160e01b031960e085901b1681526004810192909252516024808301926020929190829003018186803b15801561391457600080fd5b505afa158015613928573d6000803e3d6000fd5b505050506040513d602081101561393e57600080fd5b505160025490915060009061396890670de0b6b3a76400009061096790869063ffffffff6133e716565b9050600061398d670de0b6b3a7640000610967600254886133e790919063ffffffff16565b60008b8152600b60205260409020600a015490915060ff1615613a8d576139ef6139bd858463ffffffff613c9116565b600960006139c9611eea565b6001600160a01b031681526020810191909152604001600020549063ffffffff613ddc16565b600960006139fb611eea565b6001600160a01b0390811682526020808301939093526040918201600090812094909455861683526009909152902054613a3b908363ffffffff613ddc16565b6001600160a01b0384166000908152600960208181526040808420949094558d8352600b90529190200154613a76908563ffffffff613c9116565b60008b8152600b6020526040902060090155613b46565b613aac613aa0868363ffffffff613c9116565b600860006139c9611eea565b60086000613ab8611eea565b6001600160a01b0390811682526020808301939093526040918201600090812094909455861683526008909152902054613af8908263ffffffff613ddc16565b6001600160a01b0384166000908152600860208181526040808420949094558d8352600b90529190200154613b33908663ffffffff613c9116565b60008b8152600b60205260409020600801555b6000613b69670de0b6b3a76400006109676002548c6133e790919063ffffffff16565b90506000613b8e670de0b6b3a76400006109676002548c6133e790919063ffffffff16565b9050613ba36139bd8b8463ffffffff613c9116565b60096000613baf611eea565b6001600160a01b0390811682526020808301939093526040918201600090812094909455881683526009909152902054613bef908363ffffffff613ddc16565b6001600160a01b038616600090815260096020526040902055613c1b613aa08a8363ffffffff613c9116565b60086000613c27611eea565b6001600160a01b0390811682526020808301939093526040918201600090812094909455881683526008909152902054613c67908263ffffffff613ddc16565b6001600160a01b039095166000908152600860205260409020949094555050505050505050505050565b600061344083836040518060400160405280601e81526020017f536166654d6174683a207375627472616374696f6e206f766572666c6f770000815250614354565b6003546040805163a9059cbb60e01b81526001600160a01b038581166004830152602482018590529151919092169163a9059cbb9160448083019260209291908290030181600087803b1580156134e957600080fd5b600480546040805163a9059cbb60e01b81526001600160a01b0386811694820194909452602481018590529051929091169163a9059cbb916044808201926020929091908290030181600087803b1580156134e957600080fd5b604080516323b872dd60e01b81526001600160a01b038481166004830152306024830152604482018490529151918516916323b872dd916064808201926020929091908290030181600087803b15801561374b57600080fd5b600082820183811015613440576040805162461bcd60e51b815260206004820152601b60248201527f536166654d6174683a206164646974696f6e206f766572666c6f770000000000604482015290519081900360640190fd5b604080516323b872dd60e01b81526001600160a01b0385811660048301528481166024830152604482018490529151918616916323b872dd916064808201926020929091908290030181600087803b158015613e9157600080fd5b505af1158015613ea5573d6000803e3d6000fd5b505050506040513d6020811015613ebb57600080fd5b505050505050565b6000848152600a6020526040812060060154613ee690859063ffffffff61344716565b6000868152600a602052604081206008015491925090613f0c908363ffffffff6133e716565b6000878152600a602052604081206009015491925090613f32908463ffffffff6133e716565b6006546000898152600a6020908152604080832060020154815163af640d0f60e01b8152915195965092946001600160a01b0394851694636352211e94169263af640d0f9260048082019391829003018186803b158015613f9257600080fd5b505afa158015613fa6573d6000803e3d6000fd5b505050506040513d6020811015613fbc57600080fd5b5051604080516001600160e01b031960e085901b1681526004810192909252516024808301926020929190829003018186803b158015613ffb57600080fd5b505afa15801561400f573d6000803e3d6000fd5b505050506040513d602081101561402557600080fd5b505160025490915060009061404f90670de0b6b3a76400009061096790869063ffffffff6133e716565b90506000614074670de0b6b3a7640000610967600254886133e790919063ffffffff16565b60008b8152600a60208190526040909120015490915060ff1615614143576140a56139bd858463ffffffff613c9116565b600960006140b1611eea565b6001600160a01b03908116825260208083019390935260409182016000908120949094558616835260099091529020546140f1908363ffffffff613ddc16565b6001600160a01b0384166000908152600960208181526040808420949094558d8352600a9052919020015461412c908563ffffffff613c9116565b60008b8152600a6020526040902060090155613b46565b614156613aa0868363ffffffff613c9116565b60086000614162611eea565b6001600160a01b03908116825260208083019390935260409182016000908120949094558616835260089091529020546141a2908263ffffffff613ddc16565b6001600160a01b0384166000908152600860208181526040808420949094558d8352600a905291902001546141dd908663ffffffff613c9116565b60008b8152600a60205260409020600801556000613b69670de0b6b3a76400006109676002548c6133e790919063ffffffff16565b6001600160a01b0381166142575760405162461bcd60e51b815260040180806020018281038252602d81526020018061454d602d913960400191505060405180910390fd5b600080546040516001600160a01b03808516939216917f8be0079c531659141344cd1fd0a4f28419497f9722a3daafe3b4186f6b6457e091a3600080546001600160a01b0319166001600160a01b0392909216919091179055565b6000818361433e5760405162461bcd60e51b81526004018080602001828103825283818151815260200191508051906020019080838360005b838110156143035781810151838201526020016142eb565b50505050905090810190601f1680156143305780820380516001836020036101000a031916815260200191505b509250505060405180910390fd5b50600083858161434a57fe5b0495945050505050565b600081848411156143a65760405162461bcd60e51b81526020600482018181528351602484015283519092839260449091019190850190808383600083156143035781810151838201526020016142eb565b50505090039056fe4e6f7420656e6f7567682066756e647320696e207468652070726f746f636f6c4f4e4c5920434f4e5452414354204f574e45522043414e20504552464f524d204f5045524154494f4e496e697469616c2053656c6c206f726465722063616e6e6f7420626520706c61636564207768656e20746f6b656e20616c72656164792074726164656420696e2065786368616e676554726164696e67206f6620746869732043656c656272697479206173736574206e6f7420616c6c6f776564496e636f72726563742066656520656e74657265640000000000000000000000536166654d6174683a206d756c7469706c69636174696f6e206f766572666c6f774f7264657220686173206265656e2046696c6c6564206f722043616e63656c6c65644e6f7420656e6f75676820746f6b656e73206c65667420696e20746865206f7264657220746f20657865637574654e6f7420656e6f75676820746f6b656e2062616c616e636520746f20706c616365206f7264657253616d6520757365722063616e6e6f7420706c61636520616e642066696c6c20746865206f7264657241444d494e20524f4c452043414e4e4f542042452041535349474e454420544f20307830302041444452455353416d6f756e74206c657373207468616e206d696e207769746864726177616c206c696d69744e6f7420656e6f75676820616c6c6f636174696f6e20696e204d61746963205745544820746f6b656e4f6e6c792074686520757365722077686f20706c6163656420746865206f726465722063616e2063616e63656c206974a265627a7a7231582060a8c1356738fbe26eeb1268b5bc7c71ffc40d5e52d141357a7dca3b9f65cb8664736f6c63430005100032",
  "source": "pragma solidity =0.5.16;\nimport \"../_supportingContracts/SafeMath.sol\";\nimport \"../_supportingContracts/Ownable.sol\";\nimport \"../celebrity-contracts/CelebrityERC20Token.sol\";\nimport \"../celebrity-contracts/CelebrityERC721Token.sol\";\nimport \"../_supportingContracts/MaticWETH.sol\";\nimport \"../FANC-token-contracts/FANCToken.sol\";\nimport \"./Oracle.sol\";\n\ncontract CelebrityExchange is Ownable {\n\tusing SafeMath for uint256;\n\tuint256 public feePercent;\n\tuint256 public allocationToNFTOwner;\n\taddress public WETHERADDRESS; //store Ether in tokens mapping with blank address\n\taddress public FANCTokenAddress; //store FANC Tokens in tokens mapping with FANC Token address\n\taddress payable public ORACLEADDRESS;\n\taddress public CelebrityOwnerTokenAddress;\n\tmapping(address => mapping(address => uint256))\n\t\tpublic tokensAndEtherInExchange;\n\tmapping(address => uint256) public feeCollectedInEther;\n\tmapping(address => uint256) public feeCollectedInFANC;\n\tmapping(uint256 => _BuyOrder) public buyOrders;\n\tmapping(uint256 => _SellOrder) public sellOrders;\n\tuint256 public buyOrderCount;\n\tuint256 public sellOrderCount;\n\tuint8 private sellPriceSpread;\n\tmapping(address => uint256) public latestPrice;\n\tmapping(address => uint256) public currentHighestSellOrderPrice;\n\tuint256[3] internal highestThreeBuyOrderQuantities;\n\tuint256[3] internal highestThreeBuyOrderPrices;\n\tmapping(address => uint256) private initialSellOrder;\n\tuint256 public minWithdrawalInEtherAllowed;\n\n\tconstructor(\n\t\tuint256 _feePercent,\n\t\taddress _FANCTokenAddress,\n\t\taddress _WETHERAddress,\n\t\taddress _CelebrityOwnerTokenAddress,\n\t\taddress payable _oracleAddress,\n\t\tuint256 _allocationToNFTOwner,\n\t\tuint8 _sellPriceSpread,\n\t\tuint256 _minWithdrawalInEtherAllowed // Protocol multiplies the argument by 10**10\n\t) public {\n\t\tfeePercent = _feePercent;\n\t\tallocationToNFTOwner = _allocationToNFTOwner;\n\t\tFANCTokenAddress = _FANCTokenAddress;\n\t\tWETHERADDRESS = _WETHERAddress;\n\t\tORACLEADDRESS = _oracleAddress;\n\t\tCelebrityOwnerTokenAddress = _CelebrityOwnerTokenAddress;\n\t\tsellPriceSpread = _sellPriceSpread;\n\t\tminWithdrawalInEtherAllowed = _minWithdrawalInEtherAllowed * (10**10);\n\t}\n\n\tfunction() external {\n\t\trevert();\n\t}\n\n\tevent BuyOrderPlaced(\n\t\tuint256 id,\n\t\taddress user,\n\t\taddress celebrityToken,\n\t\tuint256 tokenBuy,\n\t\tuint256 amountSend,\n\t\tuint256 feesInEther,\n\t\tuint256 feesInFANC,\n\t\tuint256 price,\n\t\tuint256 timestamp\n\t);\n\tevent SellOrderPlaced(\n\t\tuint256 id,\n\t\taddress user,\n\t\taddress celebrityToken,\n\t\tuint256 tokenSell,\n\t\tuint256 amountReceive,\n\t\tuint256 price,\n\t\tuint256 timestamp\n\t);\n\tevent InitialSellOrderPlaced(\n\t\tuint256 id,\n\t\taddress user,\n\t\taddress celebrityToken,\n\t\tuint256 tokenSell,\n\t\tuint256 amountReceive,\n\t\tuint256 price,\n\t\tuint256 timestamp\n\t);\n\tevent InitialSellOrderUpdated(\n\t\taddress celebrityToken,\n\t\tuint256 tokenSell,\n\t\tuint256 amountReceive,\n\t\tuint256 price,\n\t\tuint256 timestamp\n\t);\n\tevent BuyOrderCancelled(\n\t\tuint256 id,\n\t\taddress user,\n\t\taddress celebrityToken,\n\t\tuint256 timestamp\n\t);\n\tevent SellOrderCancelled(\n\t\tuint256 id,\n\t\taddress user,\n\t\taddress celebrityToken,\n\t\tuint256 timestamp\n\t);\n\tevent BuyOrderPartiallyFilled(\n\t\tuint256 id,\n\t\taddress executor,\n\t\tuint256 numberOfTokens,\n\t\tuint256 price,\n\t\tuint256 tokensLeftToBuy,\n\t\tuint256 etherAmountLeft,\n\t\tuint256 timestamp\n\t);\n\tevent SellOrderPartiallyFilled(\n\t\tuint256 id,\n\t\taddress executor,\n\t\tuint256 numberOfTokens,\n\t\tuint256 price,\n\t\tuint256 tokensLeftToSell,\n\t\tuint256 etherAmountLeft,\n\t\tuint256 timestamp\n\t);\n\tevent BuyOrderFilled(\n\t\tuint256 id,\n\t\taddress executor,\n\t\tuint256 numberOfTokens,\n\t\tuint256 price,\n\t\tuint256 timestamp\n\t);\n\tevent SellOrderFilled(\n\t\tuint256 id,\n\t\taddress executor,\n\t\tuint256 numberOfTokens,\n\t\tuint256 price,\n\t\tuint256 timestamp\n\t);\n\n\tenum OrderStatus { OPEN, PARTIALLYFILLED, FILLED, CANCELLED }\n\t//a way to model Order - Struct\n\tstruct _OrderFills {\n\t\taddress user;\n\t\tuint256 tokensFilled;\n\t\tuint256 amount;\n\t\tuint256 timestamp;\n\t}\n\tmapping(uint256 => _OrderFills[]) public buyOrderExecutedTrades;\n\tmapping(uint256 => _OrderFills[]) public sellOrderExecutedTrades;\n\tstruct _BuyOrder {\n\t\tuint256 id;\n\t\taddress user;\n\t\taddress celebrityToken;\n\t\tuint256 tokenBuy;\n\t\tuint256 amountSend;\n\t\tuint256 buyPrice;\n\t\tuint256 tokensLeftToBuy;\n\t\tuint256 etherAmountLeft;\n\t\tuint256 feeAllocatedAsEther;\n\t\tuint256 feeAllocatedAsFANC;\n\t\tbool isFeePaidUsingFANC;\n\t\tuint256 currentFeePercent;\n\t\tuint256 timestamp;\n\t\tOrderStatus status;\n\t}\n\tstruct _SellOrder {\n\t\tuint256 id;\n\t\taddress payable user;\n\t\taddress celebrityToken;\n\t\tuint256 tokenSell;\n\t\tuint256 amountReceive;\n\t\tuint256 sellPrice;\n\t\tuint256 tokensLeftToSell;\n\t\tuint256 etherAmountLeft;\n\t\tuint256 feeAllocatedAsEther;\n\t\tuint256 feeAllocatedAsFANC;\n\t\tbool isFeePaidUsingFANC;\n\t\tuint256 currentFeePercent;\n\t\tuint256 timestamp;\n\t\tOrderStatus status;\n\t}\n\n\tfunction changeTokenAddress(\n\t\taddress _FANCTokenAddress,\n\t\taddress _WETHERAddress,\n\t\taddress payable _oracleAddress,\n\t\taddress _CelebrityOwnerTokenAddress\n\t) public onlyOwner {\n\t\tFANCTokenAddress = _FANCTokenAddress;\n\t\tWETHERADDRESS = _WETHERAddress;\n\t\tORACLEADDRESS = _oracleAddress;\n\t\tCelebrityOwnerTokenAddress = _CelebrityOwnerTokenAddress;\n\t}\n\n\tfunction changeFeePercent(\n\t\tuint256 _feePercent,\n\t\tuint256 _allocationToNFTOwner,\n\t\tuint8 _sellPriceSpread,\n\t\tuint256 _minWithdrawalInEtherAllowed10Power6 // Protocol multiplies the argument by 10**10\n\t) public onlyOwner {\n\t\tfeePercent = _feePercent;\n\t\tallocationToNFTOwner = _allocationToNFTOwner;\n\t\tsellPriceSpread = _sellPriceSpread;\n\t\tminWithdrawalInEtherAllowed =\n\t\t\t_minWithdrawalInEtherAllowed10Power6 *\n\t\t\t(10**10);\n\t}\n\n\tfunction placeBuyOrder(\n\t\taddress _celebrityToken,\n\t\tuint256 _tokenBuy,\n\t\tuint256 _amountSend,\n\t\tuint256 _fees,\n\t\tbool _usingFANCTokenForFees\n\t) public {\n\t\trequire(\n\t\t\tCelebrityToken(_celebrityToken).isTradingAllowedOnCelebrityExchange(),\n\t\t\t\"Trading of this Celebrity asset not allowed\"\n\t\t);\n\t\tuint256 askPrice = _amountSend.mul(10**18).div(_tokenBuy);\n\t\tuint256 tempFeeAsEther = 0;\n\t\tuint256 tempFeeAsFANC = 0;\n\t\tif (_usingFANCTokenForFees) {\n\t\t\tuint256 FANCTokenPriceInEther = Oracle(ORACLEADDRESS).getAssetPrice();\n\t\t\trequire(\n\t\t\t\t_fees ==\n\t\t\t\t\t_amountSend.mul(feePercent).mul(FANCTokenPriceInEther).div(2).div(\n\t\t\t\t\t\t10**36\n\t\t\t\t\t), // Due to multiplication by 10**18 twice in feepercent and fantokenprice\n\t\t\t\t\"Incorrect fee entered\"\n\t\t\t);\n\t\t\t_getFANCFrom(msg.sender, _fees);\n\t\t\t_getEtherFrom(msg.sender, _amountSend);\n\t\t\ttempFeeAsFANC = _fees;\n\t\t} else {\n\t\t\trequire(\n\t\t\t\t_fees == (_amountSend.mul(feePercent).div(10**18)),\n\t\t\t\t\"Incorrect fee entered\"\n\t\t\t);\n\t\t\t_getEtherFrom(msg.sender, _amountSend.add(_fees));\n\t\t\ttempFeeAsEther = _fees;\n\t\t}\n\t\tbuyOrders[buyOrderCount] = _BuyOrder(\n\t\t\tbuyOrderCount,\n\t\t\tmsg.sender,\n\t\t\t_celebrityToken,\n\t\t\t_tokenBuy,\n\t\t\t_amountSend,\n\t\t\taskPrice,\n\t\t\t_tokenBuy,\n\t\t\t_amountSend,\n\t\t\ttempFeeAsEther,\n\t\t\ttempFeeAsFANC,\n\t\t\t_usingFANCTokenForFees,\n\t\t\tfeePercent,\n\t\t\tblock.timestamp,\n\t\t\tOrderStatus.OPEN\n\t\t);\n\n\t\ttokensAndEtherInExchange[WETHERADDRESS][\n\t\t\tmsg.sender\n\t\t] = tokensAndEtherInExchange[WETHERADDRESS][msg.sender].add(_amountSend);\n\t\temit BuyOrderPlaced(\n\t\t\tbuyOrderCount,\n\t\t\tmsg.sender,\n\t\t\t_celebrityToken,\n\t\t\t_tokenBuy,\n\t\t\t_amountSend,\n\t\t\ttempFeeAsEther,\n\t\t\ttempFeeAsFANC,\n\t\t\taskPrice,\n\t\t\tblock.timestamp\n\t\t);\n\t\tbuyOrderCount = buyOrderCount.add(1);\n\t\t// _updateInitialSellOrderOnBuyOrderChange(\n\t\t// \t_celebrityToken,\n\t\t// \taskPrice,\n\t\t// \t_tokenBuy\n\t\t// );\n\t}\n\n\t// function _updateInitialSellOrderOnSellOrderChange(\n\t// \taddress _celebrityToken,\n\t// \tuint256 bidPrice\n\t// ) internal {\n\t// \tif (\n\t// \t\tbidPrice > currentHighestSellOrderPrice[_celebrityToken] &&\n\t// \t\tbidPrice <=\n\t// \t\tcurrentHighestSellOrderPrice[_celebrityToken].add(\n\t// \t\t\t(\n\t// \t\t\t\tcurrentHighestSellOrderPrice[_celebrityToken]\n\t// \t\t\t\t\t.mul(sellPriceSpread)\n\t// \t\t\t\t\t.div(100 * 10**18)\n\t// \t\t\t)\n\t// \t\t)\n\t// \t) {\n\t// \t\t// update existing admin order\n\t// \t\t// update price and quantity\n\t// \t\tcurrentHighestSellOrderPrice[_celebrityToken] = bidPrice;\n\n\t// \t\tuint256 updatedPrice = bidPrice;\n\t// \t\tuint256 newEtherToBeSent =\n\t// \t\t\tsellOrders[initialSellOrder[_celebrityToken]]\n\t// \t\t\t\t.tokensLeftToSell\n\t// \t\t\t\t.mul(10**18)\n\t// \t\t\t\t.div(updatedPrice);\n\t// \t\tsellOrders[initialSellOrder[_celebrityToken]].amountReceive = sellOrders[\n\t// \t\t\tinitialSellOrder[_celebrityToken]\n\t// \t\t]\n\t// \t\t\t.amountReceive\n\t// \t\t\t.add(newEtherToBeSent);\n\t// \t\tsellOrders[initialSellOrder[_celebrityToken]]\n\t// \t\t\t.etherAmountLeft = sellOrders[initialSellOrder[_celebrityToken]]\n\t// \t\t\t.etherAmountLeft\n\t// \t\t\t.add(newEtherToBeSent);\n\t// \t}\n\t// }\n\n\t// function _updateInitialSellOrderOnBuyOrderChange(\n\t// \taddress _celebrityToken,\n\t// \tuint256 askPrice,\n\t// \tuint256 _tokenBuy\n\t// ) internal {\n\t// \tif (askPrice >= highestThreeBuyOrderPrices[0]) {\n\t// \t\thighestThreeBuyOrderPrices[2] = highestThreeBuyOrderPrices[1];\n\t// \t\thighestThreeBuyOrderPrices[1] = highestThreeBuyOrderPrices[0];\n\t// \t\thighestThreeBuyOrderPrices[0] = askPrice;\n\t// \t\t// update equivalent quantity\n\t// \t\thighestThreeBuyOrderQuantities[2] = highestThreeBuyOrderQuantities[1];\n\t// \t\thighestThreeBuyOrderQuantities[1] = highestThreeBuyOrderQuantities[0];\n\t// \t\thighestThreeBuyOrderQuantities[0] = _tokenBuy;\n\t// \t} else if (askPrice >= highestThreeBuyOrderPrices[1]) {\n\t// \t\thighestThreeBuyOrderPrices[2] = highestThreeBuyOrderPrices[1];\n\t// \t\thighestThreeBuyOrderPrices[1] = askPrice;\n\t// \t\t// update equivalent quantity\n\t// \t\thighestThreeBuyOrderQuantities[2] = highestThreeBuyOrderQuantities[1];\n\t// \t\thighestThreeBuyOrderQuantities[1] = _tokenBuy;\n\t// \t} else if (askPrice >= highestThreeBuyOrderPrices[2]) {\n\t// \t\thighestThreeBuyOrderPrices[2] = askPrice;\n\t// \t\thighestThreeBuyOrderQuantities[2] = _tokenBuy;\n\t// \t}\n\t// \tif (askPrice >= highestThreeBuyOrderPrices[2]) {\n\t// \t\tuint256 newBuyQuantity =\n\t// \t\t\thighestThreeBuyOrderQuantities[0]\n\t// \t\t\t\t.add(highestThreeBuyOrderQuantities[1])\n\t// \t\t\t\t.add(highestThreeBuyOrderQuantities[2]);\n\t// \t\tif (\n\t// \t\t\tsellOrders[initialSellOrder[_celebrityToken]].tokensLeftToSell <\n\t// \t\t\tnewBuyQuantity\n\t// \t\t) {\n\t// \t\t\tuint256 newSellQuantity =\n\t// \t\t\t\tnewBuyQuantity.sub(\n\t// \t\t\t\t\tsellOrders[initialSellOrder[_celebrityToken]].tokensLeftToSell\n\t// \t\t\t\t);\n\t// \t\t\tsellOrders[initialSellOrder[_celebrityToken]].tokenSell = sellOrders[\n\t// \t\t\t\tinitialSellOrder[_celebrityToken]\n\t// \t\t\t]\n\t// \t\t\t\t.tokenSell\n\t// \t\t\t\t.add(newSellQuantity);\n\t// \t\t\tsellOrders[initialSellOrder[_celebrityToken]]\n\t// \t\t\t\t.tokensLeftToSell = sellOrders[initialSellOrder[_celebrityToken]]\n\t// \t\t\t\t.tokensLeftToSell\n\t// \t\t\t\t.add(newSellQuantity);\n\t// \t\t\tuint256 currentPrice =\n\t// \t\t\t\tsellOrders[initialSellOrder[_celebrityToken]].sellPrice;\n\t// \t\t\tuint256 newEtherToBeSent =\n\t// \t\t\t\tnewSellQuantity.mul(10**18).div(currentPrice);\n\t// \t\t\tsellOrders[initialSellOrder[_celebrityToken]]\n\t// \t\t\t\t.amountReceive = sellOrders[initialSellOrder[_celebrityToken]]\n\t// \t\t\t\t.amountReceive\n\t// \t\t\t\t.add(newEtherToBeSent);\n\t// \t\t\tsellOrders[initialSellOrder[_celebrityToken]]\n\t// \t\t\t\t.etherAmountLeft = sellOrders[initialSellOrder[_celebrityToken]]\n\t// \t\t\t\t.etherAmountLeft\n\t// \t\t\t\t.add(newEtherToBeSent);\n\t// \t\t}\n\t// \t}\n\t// }\n\n\tfunction placeSellOrder(\n\t\taddress _celebrityToken,\n\t\tuint256 _tokenSell,\n\t\tuint256 _amountReceive,\n\t\tuint256 _fees,\n\t\tbool _usingFANCTokenForFees\n\t) public {\n\t\trequire(\n\t\t\tCelebrityToken(_celebrityToken).balanceOf(msg.sender) >= _tokenSell,\n\t\t\t\"Not enough token balance to place order\"\n\t\t);\n\t\trequire(\n\t\t\tCelebrityToken(_celebrityToken).isTradingAllowedOnCelebrityExchange(),\n\t\t\t\"Trading of this Celebrity asset not allowed\"\n\t\t);\n\t\tuint256 bidPrice = _amountReceive.mul(10**18).div(_tokenSell);\n\t\tuint256 tempFeeAsEther = 0;\n\t\tuint256 tempFeeAsFANC = 0;\n\t\tif (_usingFANCTokenForFees) {\n\t\t\tuint256 FANCTokenPriceInEther = Oracle(ORACLEADDRESS).getAssetPrice();\n\t\t\trequire(\n\t\t\t\t_fees ==\n\t\t\t\t\t_amountReceive.mul(feePercent).mul(FANCTokenPriceInEther).div(2).div(\n\t\t\t\t\t\t10**36\n\t\t\t\t\t), // Due to multiplication by 10**18 twice in feepercent and fantokenprice\n\t\t\t\t\"Incorrect fee entered\"\n\t\t\t);\n\t\t\t_getFANCFrom(msg.sender, _fees);\n\t\t\ttempFeeAsFANC = _fees;\n\t\t} else {\n\t\t\trequire(\n\t\t\t\t_fees == (_amountReceive.mul(feePercent).div(10**18)),\n\t\t\t\t\"Incorrect fee entered\"\n\t\t\t);\n\t\t\t_getEtherFrom(msg.sender, _amountReceive);\n\t\t\ttempFeeAsEther = _fees;\n\t\t}\n\t\t_getTokenFrom(_celebrityToken, msg.sender, _tokenSell);\n\t\tsellOrders[sellOrderCount] = _SellOrder(\n\t\t\tsellOrderCount,\n\t\t\tmsg.sender,\n\t\t\t_celebrityToken,\n\t\t\t_tokenSell,\n\t\t\t_amountReceive,\n\t\t\tbidPrice,\n\t\t\t_tokenSell,\n\t\t\t_amountReceive,\n\t\t\ttempFeeAsEther,\n\t\t\ttempFeeAsFANC,\n\t\t\t_usingFANCTokenForFees,\n\t\t\tfeePercent,\n\t\t\tblock.timestamp,\n\t\t\tOrderStatus.OPEN\n\t\t);\n\t\ttokensAndEtherInExchange[_celebrityToken][\n\t\t\tmsg.sender\n\t\t] = tokensAndEtherInExchange[_celebrityToken][msg.sender].add(_tokenSell);\n\t\temit SellOrderPlaced(\n\t\t\tsellOrderCount,\n\t\t\tmsg.sender,\n\t\t\t_celebrityToken,\n\t\t\t_tokenSell,\n\t\t\t_amountReceive,\n\t\t\tbidPrice,\n\t\t\tblock.timestamp\n\t\t);\n\t\tsellOrderCount = sellOrderCount.add(1);\n\t\t// _updateInitialSellOrderOnSellOrderChange(_celebrityToken, bidPrice);\n\t}\n\n\tfunction fillBuyOrder(\n\t\tuint256 _buyOrderId,\n\t\tuint256 _tokensFilled,\n\t\tuint256 _fees,\n\t\tbool _usingFANCTokenForFees\n\t) public {\n\t\trequire(\n\t\t\tmsg.sender != buyOrders[_buyOrderId].user,\n\t\t\t\"Same user cannot place and fill the order\"\n\t\t);\n\t\trequire(\n\t\t\t_buyOrderId >= 0 && _buyOrderId < buyOrderCount,\n\t\t\t\"Order does not exist\"\n\t\t);\n\t\trequire(\n\t\t\tbuyOrders[_buyOrderId].status != OrderStatus.FILLED &&\n\t\t\t\tbuyOrders[_buyOrderId].status != OrderStatus.CANCELLED,\n\t\t\t\"Order has been Filled or Cancelled\"\n\t\t);\n\t\trequire(\n\t\t\t_tokensFilled > 0 &&\n\t\t\t\t_tokensFilled <= buyOrders[_buyOrderId].tokensLeftToBuy,\n\t\t\t\"Not enough tokens left in the order to execute\"\n\t\t);\n\t\t// get fees\n\t\tuint256 tempFeeAsEther = 0;\n\t\tuint256 tempFeeAsFANC = 0;\n\t\tuint256 tradeAmount =\n\t\t\t_tokensFilled.mul(buyOrders[_buyOrderId].buyPrice).div(10**18);\n\t\tif (_usingFANCTokenForFees) {\n\t\t\tuint256 FANCTokenPriceInEther = Oracle(ORACLEADDRESS).getAssetPrice();\n\t\t\trequire(\n\t\t\t\t_fees ==\n\t\t\t\t\ttradeAmount.mul(feePercent).mul(FANCTokenPriceInEther).div(2).div(\n\t\t\t\t\t\t10**36\n\t\t\t\t\t), // Due to multiplication by 10**18 twice in feepercent and fantokenprice\n\t\t\t\t\"Incorrect fee entered\"\n\t\t\t);\n\t\t\t_getFANCFrom(msg.sender, _fees);\n\t\t\ttempFeeAsFANC = _fees;\n\t\t} else {\n\t\t\trequire(\n\t\t\t\t_fees == (tradeAmount.mul(feePercent).div(10**18)),\n\t\t\t\t\"Incorrect fee entered\"\n\t\t\t);\n\t\t\t_getEtherFrom(msg.sender, _fees);\n\t\t\ttempFeeAsEther = _fees;\n\t\t}\n\t\t// send token from sender to buyer\n\t\t_transferTokenFromTo(\n\t\t\tbuyOrders[_buyOrderId].celebrityToken,\n\t\t\tmsg.sender,\n\t\t\tbuyOrders[_buyOrderId].user,\n\t\t\t_tokensFilled\n\t\t);\n\t\t// send ether to sender\n\t\t_sendEtherTo(msg.sender, tradeAmount);\n\n\t\t_calculateAndAllocateFeesForBuyOrderFill(\n\t\t\t_buyOrderId,\n\t\t\t_tokensFilled,\n\t\t\ttempFeeAsFANC,\n\t\t\ttempFeeAsEther\n\t\t);\n\t\tbuyOrders[_buyOrderId].tokensLeftToBuy = buyOrders[_buyOrderId]\n\t\t\t.tokensLeftToBuy\n\t\t\t.sub(_tokensFilled);\n\t\tbuyOrders[_buyOrderId].etherAmountLeft = buyOrders[_buyOrderId]\n\t\t\t.etherAmountLeft\n\t\t\t.sub(tradeAmount);\n\t\ttokensAndEtherInExchange[WETHERADDRESS][\n\t\t\tbuyOrders[_buyOrderId].user\n\t\t] = tokensAndEtherInExchange[WETHERADDRESS][buyOrders[_buyOrderId].user]\n\t\t\t.sub(tradeAmount);\n\t\tif (buyOrders[_buyOrderId].tokensLeftToBuy != 0) {\n\t\t\tbuyOrders[_buyOrderId].status = OrderStatus.PARTIALLYFILLED;\n\t\t\temit BuyOrderPartiallyFilled(\n\t\t\t\tbuyOrders[_buyOrderId].id,\n\t\t\t\tmsg.sender,\n\t\t\t\t_tokensFilled,\n\t\t\t\tbuyOrders[_buyOrderId].buyPrice,\n\t\t\t\tbuyOrders[_buyOrderId].tokensLeftToBuy,\n\t\t\t\tbuyOrders[_buyOrderId].etherAmountLeft,\n\t\t\t\tblock.timestamp\n\t\t\t);\n\t\t} else {\n\t\t\tbuyOrders[_buyOrderId].status = OrderStatus.FILLED;\n\t\t\temit BuyOrderFilled(\n\t\t\t\tbuyOrders[_buyOrderId].id,\n\t\t\t\tmsg.sender,\n\t\t\t\t_tokensFilled,\n\t\t\t\tbuyOrders[_buyOrderId].buyPrice,\n\t\t\t\tblock.timestamp\n\t\t\t);\n\t\t}\n\t\tlatestPrice[buyOrders[_buyOrderId].celebrityToken] = buyOrders[_buyOrderId]\n\t\t\t.buyPrice;\n\t\tbuyOrderExecutedTrades[_buyOrderId].push(\n\t\t\t_OrderFills(msg.sender, _tokensFilled, tradeAmount, block.timestamp)\n\t\t);\n\t}\n\n\tfunction fillSellOrder(\n\t\tuint256 _sellOrderId,\n\t\tuint256 _tokensFilled,\n\t\tuint256 _fees,\n\t\tbool _usingFANCTokenForFees\n\t) public {\n\t\t// send ether from sender to seller\n\t\t// send token to sender\n\t\t// get fees\n\t\trequire(\n\t\t\tmsg.sender != sellOrders[_sellOrderId].user,\n\t\t\t\"Same user cannot place and fill the order\"\n\t\t);\n\t\trequire(\n\t\t\t_sellOrderId >= 0 && _sellOrderId < sellOrderCount,\n\t\t\t\"Order does not exist\"\n\t\t);\n\t\trequire(\n\t\t\tsellOrders[_sellOrderId].status != OrderStatus.FILLED &&\n\t\t\t\tsellOrders[_sellOrderId].status != OrderStatus.CANCELLED,\n\t\t\t\"Order has been Filled or Cancelled\"\n\t\t);\n\t\trequire(\n\t\t\t_tokensFilled > 0 &&\n\t\t\t\t_tokensFilled <= sellOrders[_sellOrderId].tokensLeftToSell,\n\t\t\t\"Not enough tokens left in the order to execute\"\n\t\t);\n\t\t// get fees\n\t\tuint256 tempFeeAsEther = 0;\n\t\tuint256 tempFeeAsFANC = 0;\n\t\tuint256 tradeAmount =\n\t\t\t_tokensFilled.mul(sellOrders[_sellOrderId].sellPrice).div(10**18);\n\t\tif (_usingFANCTokenForFees) {\n\t\t\tuint256 FANCTokenPriceInEther = Oracle(ORACLEADDRESS).getAssetPrice();\n\t\t\trequire(\n\t\t\t\t_fees ==\n\t\t\t\t\ttradeAmount.mul(feePercent).mul(FANCTokenPriceInEther).div(2).div(\n\t\t\t\t\t\t10**36\n\t\t\t\t\t), // Due to multiplication by 10**18 twice in feepercent and fantokenprice\n\t\t\t\t\"Incorrect fee entered\"\n\t\t\t);\n\t\t\t_getFANCFrom(msg.sender, _fees);\n\t\t\ttempFeeAsFANC = _fees;\n\t\t} else {\n\t\t\trequire(\n\t\t\t\t_fees == (tradeAmount.mul(feePercent).div(10**18)),\n\t\t\t\t\"Incorrect fee entered\"\n\t\t\t);\n\t\t\t_getEtherFrom(msg.sender, _fees);\n\t\t\ttempFeeAsEther = _fees;\n\t\t}\n\t\t// send ether from sender to seller\n\t\t_transferEtherFromTo(\n\t\t\tmsg.sender,\n\t\t\tsellOrders[_sellOrderId].user,\n\t\t\ttradeAmount\n\t\t);\n\t\t// send token to sender\n\t\t_sendTokenTo(\n\t\t\tsellOrders[_sellOrderId].celebrityToken,\n\t\t\tmsg.sender,\n\t\t\t_tokensFilled\n\t\t);\n\n\t\t_calculateAndAllocateFeesForSellOrderFill(\n\t\t\t_sellOrderId,\n\t\t\t_tokensFilled,\n\t\t\ttempFeeAsFANC,\n\t\t\ttempFeeAsEther\n\t\t);\n\t\tsellOrders[_sellOrderId].tokensLeftToSell = sellOrders[_sellOrderId]\n\t\t\t.tokensLeftToSell\n\t\t\t.sub(_tokensFilled);\n\t\tsellOrders[_sellOrderId].etherAmountLeft = sellOrders[_sellOrderId]\n\t\t\t.etherAmountLeft\n\t\t\t.sub(tradeAmount);\n\t\ttokensAndEtherInExchange[sellOrders[_sellOrderId].celebrityToken][\n\t\t\tsellOrders[_sellOrderId].user\n\t\t] = tokensAndEtherInExchange[sellOrders[_sellOrderId].celebrityToken][\n\t\t\tsellOrders[_sellOrderId].user\n\t\t]\n\t\t\t.sub(tradeAmount);\n\t\tif (sellOrders[_sellOrderId].tokensLeftToSell != 0) {\n\t\t\tsellOrders[_sellOrderId].status = OrderStatus.PARTIALLYFILLED;\n\t\t\temit SellOrderPartiallyFilled(\n\t\t\t\tsellOrders[_sellOrderId].id,\n\t\t\t\tmsg.sender,\n\t\t\t\t_tokensFilled,\n\t\t\t\tsellOrders[_sellOrderId].sellPrice,\n\t\t\t\tsellOrders[_sellOrderId].tokensLeftToSell,\n\t\t\t\tsellOrders[_sellOrderId].etherAmountLeft,\n\t\t\t\tblock.timestamp\n\t\t\t);\n\t\t} else {\n\t\t\tsellOrders[_sellOrderId].status = OrderStatus.FILLED;\n\t\t\temit SellOrderFilled(\n\t\t\t\tsellOrders[_sellOrderId].id,\n\t\t\t\tmsg.sender,\n\t\t\t\t_tokensFilled,\n\t\t\t\tsellOrders[_sellOrderId].sellPrice,\n\t\t\t\tblock.timestamp\n\t\t\t);\n\t\t}\n\t\tlatestPrice[sellOrders[_sellOrderId].celebrityToken] = sellOrders[\n\t\t\t_sellOrderId\n\t\t]\n\t\t\t.sellPrice;\n\t\tsellOrderExecutedTrades[_sellOrderId].push(\n\t\t\t_OrderFills(msg.sender, _tokensFilled, tradeAmount, block.timestamp)\n\t\t);\n\t}\n\n\tfunction cancelBuyOrder(uint256 _buyOrderId) public {\n\t\trequire(\n\t\t\tmsg.sender == buyOrders[_buyOrderId].user,\n\t\t\t\"Only the user who placed the order can cancel it\"\n\t\t);\n\t\tuint256 etherToRefund =\n\t\t\tbuyOrders[_buyOrderId].etherAmountLeft +\n\t\t\t\tbuyOrders[_buyOrderId].feeAllocatedAsEther;\n\t\t_sendEtherTo(buyOrders[_buyOrderId].user, etherToRefund);\n\t\tuint256 FANCToRefund = buyOrders[_buyOrderId].feeAllocatedAsFANC;\n\t\t_sendFANCTo(buyOrders[_buyOrderId].user, FANCToRefund);\n\t\ttokensAndEtherInExchange[WETHERADDRESS][\n\t\t\tbuyOrders[_buyOrderId].user\n\t\t] = tokensAndEtherInExchange[WETHERADDRESS][buyOrders[_buyOrderId].user]\n\t\t\t.sub(buyOrders[_buyOrderId].etherAmountLeft);\n\t\tbuyOrders[_buyOrderId].status = OrderStatus.CANCELLED;\n\t\temit BuyOrderCancelled(\n\t\t\t_buyOrderId,\n\t\t\tbuyOrders[_buyOrderId].user,\n\t\t\tbuyOrders[_buyOrderId].celebrityToken,\n\t\t\tblock.timestamp\n\t\t);\n\t}\n\n\tfunction cancelSellOrder(uint256 _sellOrderId) public {\n\t\trequire(\n\t\t\tmsg.sender == sellOrders[_sellOrderId].user,\n\t\t\t\"Only the user who placed the order can cancel it\"\n\t\t);\n\t\tuint256 etherToRefund = sellOrders[_sellOrderId].feeAllocatedAsEther;\n\t\t_sendEtherTo(sellOrders[_sellOrderId].user, etherToRefund);\n\t\tuint256 tokenToRefund = sellOrders[_sellOrderId].tokensLeftToSell;\n\t\t_sendTokenTo(\n\t\t\tsellOrders[_sellOrderId].celebrityToken,\n\t\t\tsellOrders[_sellOrderId].user,\n\t\t\ttokenToRefund\n\t\t);\n\t\tuint256 FANCToRefund = sellOrders[_sellOrderId].feeAllocatedAsFANC;\n\t\t_sendFANCTo(sellOrders[_sellOrderId].user, FANCToRefund);\n\t\ttokensAndEtherInExchange[sellOrders[_sellOrderId].celebrityToken][\n\t\t\tsellOrders[_sellOrderId].user\n\t\t] = tokensAndEtherInExchange[sellOrders[_sellOrderId].celebrityToken][\n\t\t\tsellOrders[_sellOrderId].user\n\t\t]\n\t\t\t.sub(sellOrders[_sellOrderId].etherAmountLeft);\n\t\tsellOrders[_sellOrderId].status = OrderStatus.CANCELLED;\n\t\temit SellOrderCancelled(\n\t\t\t_sellOrderId,\n\t\t\tsellOrders[_sellOrderId].user,\n\t\t\tsellOrders[_sellOrderId].celebrityToken,\n\t\t\tblock.timestamp\n\t\t);\n\t}\n\n\tfunction placeInitialSellOrder(\n\t\taddress _celebrityToken,\n\t\tuint256 _tokenSell,\n\t\tuint256 _amountReceive\n\t) public onlyOwner {\n\t\trequire(\n\t\t\tCelebrityToken(_celebrityToken).balanceOf(msg.sender) >= _tokenSell,\n\t\t\t\"Not enough token balance to place order\"\n\t\t);\n\t\trequire(\n\t\t\t!CelebrityToken(_celebrityToken).isTradingAllowedOnCelebrityExchange(),\n\t\t\t\"Initial Sell order cannot be placed when token already traded in exchange\"\n\t\t);\n\t\tCelebrityToken(_celebrityToken).toggeleAllowTradingOnCelebrityExchange();\n\n\t\tuint256 bidPrice = _amountReceive.mul(10**18).div(_tokenSell);\n\n\t\t_getTokenFrom(_celebrityToken, msg.sender, _tokenSell);\n\t\tsellOrders[sellOrderCount] = _SellOrder(\n\t\t\tsellOrderCount,\n\t\t\tmsg.sender,\n\t\t\t_celebrityToken,\n\t\t\t_tokenSell,\n\t\t\t_amountReceive,\n\t\t\tbidPrice,\n\t\t\t_tokenSell,\n\t\t\t_amountReceive,\n\t\t\t0,\n\t\t\t0,\n\t\t\tfalse,\n\t\t\tfeePercent,\n\t\t\tblock.timestamp,\n\t\t\tOrderStatus.OPEN\n\t\t);\n\t\tinitialSellOrder[_celebrityToken] = sellOrderCount;\n\t\ttokensAndEtherInExchange[_celebrityToken][\n\t\t\tmsg.sender\n\t\t] = tokensAndEtherInExchange[_celebrityToken][msg.sender].add(_tokenSell);\n\t\temit InitialSellOrderPlaced(\n\t\t\tsellOrderCount,\n\t\t\tmsg.sender,\n\t\t\t_celebrityToken,\n\t\t\t_tokenSell,\n\t\t\t_amountReceive,\n\t\t\tbidPrice,\n\t\t\tblock.timestamp\n\t\t);\n\t\tsellOrderCount = sellOrderCount.add(1);\n\t\tcurrentHighestSellOrderPrice[_celebrityToken] = bidPrice;\n\t}\n\n\tfunction updateInitialSellOrder(\n\t\taddress _celebrityToken,\n\t\tuint256 _tokenSell,\n\t\tuint256 _amountReceive\n\t) public onlyOwner {\n\t\trequire(\n\t\t\tCelebrityToken(_celebrityToken).balanceOf(msg.sender) >= _tokenSell,\n\t\t\t\"Not enough token balance to place order\"\n\t\t);\n\t\trequire(\n\t\t\t!CelebrityToken(_celebrityToken).isTradingAllowedOnCelebrityExchange(),\n\t\t\t\"Initial Sell order cannot be placed when token already traded in exchange\"\n\t\t);\n\n\t\tuint256 bidPrice = _amountReceive.mul(10**18).div(_tokenSell);\n\n\t\t_getTokenFrom(\n\t\t\t_celebrityToken,\n\t\t\tmsg.sender,\n\t\t\t_tokenSell.sub(\n\t\t\t\tsellOrders[initialSellOrder[_celebrityToken]].tokensLeftToSell\n\t\t\t)\n\t\t);\n\t\tsellOrders[initialSellOrder[_celebrityToken]].tokenSell = _tokenSell;\n\t\tsellOrders[initialSellOrder[_celebrityToken]]\n\t\t\t.amountReceive = _amountReceive;\n\t\tsellOrders[initialSellOrder[_celebrityToken]].sellPrice = bidPrice;\n\t\tsellOrders[initialSellOrder[_celebrityToken]].tokensLeftToSell = _tokenSell;\n\t\tsellOrders[initialSellOrder[_celebrityToken]]\n\t\t\t.etherAmountLeft = _amountReceive;\n\t\tsellOrders[initialSellOrder[_celebrityToken]].timestamp = block.timestamp;\n\t\ttokensAndEtherInExchange[_celebrityToken][\n\t\t\tmsg.sender\n\t\t] = tokensAndEtherInExchange[_celebrityToken][msg.sender].add(\n\t\t\t_tokenSell.sub(\n\t\t\t\tsellOrders[initialSellOrder[_celebrityToken]].tokensLeftToSell\n\t\t\t)\n\t\t);\n\t\temit InitialSellOrderUpdated(\n\t\t\t_celebrityToken,\n\t\t\t_tokenSell,\n\t\t\t_amountReceive,\n\t\t\tbidPrice,\n\t\t\tblock.timestamp\n\t\t);\n\t\tif (currentHighestSellOrderPrice[_celebrityToken] < bidPrice) {\n\t\t\tcurrentHighestSellOrderPrice[_celebrityToken] = bidPrice;\n\t\t}\n\t}\n\n\tfunction _transferEtherFromTo(\n\t\taddress from,\n\t\taddress to,\n\t\tuint256 _amount\n\t) internal {\n\t\trequire(\n\t\t\tWETHToken(WETHERADDRESS).allowance(from, address(this)) >= _amount,\n\t\t\t\"Not enough allocation in Matic WETH token\"\n\t\t);\n\t\tWETHToken(WETHERADDRESS).transferFrom(from, to, _amount);\n\t}\n\n\tfunction _transferTokenFromTo(\n\t\taddress _celebrityToken,\n\t\taddress from,\n\t\taddress to,\n\t\tuint256 _amount\n\t) internal {\n\t\tCelebrityToken(_celebrityToken).transferFrom(from, to, _amount);\n\t}\n\n\tfunction _getEtherFrom(address from, uint256 _amount) internal {\n\t\trequire(\n\t\t\tWETHToken(WETHERADDRESS).allowance(from, address(this)) >= _amount,\n\t\t\t\"Not enough allocation in Matic WETH token\"\n\t\t);\n\t\tWETHToken(WETHERADDRESS).transferFrom(from, address(this), _amount);\n\t}\n\n\tfunction _getTokenFrom(\n\t\taddress _celebrityToken,\n\t\taddress from,\n\t\tuint256 _amount\n\t) internal {\n\t\tCelebrityToken(_celebrityToken).transferFrom(from, address(this), _amount);\n\t}\n\n\tfunction _getFANCFrom(address from, uint256 _amount) internal {\n\t\tFANCToken(FANCTokenAddress).transferFrom(from, address(this), _amount);\n\t}\n\n\tfunction _sendFANCTo(address to, uint256 _amount) internal {\n\t\trequire(_amount >= 0);\n\t\tFANCToken(FANCTokenAddress).transfer(to, _amount);\n\t}\n\n\tfunction _sendEtherTo(address to, uint256 _amount) internal {\n\t\tWETHToken(WETHERADDRESS).transfer(to, _amount);\n\t}\n\n\tfunction _sendTokenTo(\n\t\taddress _celebrityToken,\n\t\taddress to,\n\t\tuint256 _amount\n\t) internal {\n\t\tCelebrityToken(_celebrityToken).transfer(to, _amount);\n\t}\n\n\tfunction _calculateAndAllocateFeesForBuyOrderFill(\n\t\tuint256 _buyOrderId,\n\t\tuint256 _tokensFilled,\n\t\tuint256 _feesInFANC,\n\t\tuint256 _feesInEther\n\t) internal {\n\t\t//buyer\n\t\t// reduce feesallocated in the struct\n\t\t// reduce feesallocated in global mapping\n\t\t// add fees to the feescollected gloabl mapping - both owner and nftowner\n\t\tuint256 proportionOfTokensSold =\n\t\t\t_tokensFilled.div(buyOrders[_buyOrderId].tokensLeftToBuy);\n\t\tuint256 etherFees =\n\t\t\tbuyOrders[_buyOrderId].feeAllocatedAsEther.mul(proportionOfTokensSold);\n\t\tuint256 FANCFees =\n\t\t\tbuyOrders[_buyOrderId].feeAllocatedAsFANC.mul(proportionOfTokensSold);\n\t\taddress NFTOwner =\n\t\t\tCelebrityOwnerToken(CelebrityOwnerTokenAddress).ownerOf(\n\t\t\t\tCelebrityToken(buyOrders[_buyOrderId].celebrityToken).id()\n\t\t\t);\n\t\tuint256 feeAllocationToNFTOwnerFANC =\n\t\t\tFANCFees.mul(allocationToNFTOwner).div(10**18);\n\t\tuint256 feeAllocationToNFTOwnerEther =\n\t\t\tetherFees.mul(allocationToNFTOwner).div(10**18);\n\t\tif (buyOrders[_buyOrderId].isFeePaidUsingFANC) {\n\t\t\t// add buyer side fees and sender side fees both to the feesCollected mapping\n\t\t\tfeeCollectedInFANC[owner()] = feeCollectedInFANC[owner()].add(\n\t\t\t\tFANCFees.sub(feeAllocationToNFTOwnerFANC)\n\t\t\t);\n\t\t\tfeeCollectedInFANC[NFTOwner] = feeCollectedInFANC[NFTOwner].add(\n\t\t\t\tfeeAllocationToNFTOwnerFANC\n\t\t\t);\n\t\t\tbuyOrders[_buyOrderId].feeAllocatedAsFANC = buyOrders[_buyOrderId]\n\t\t\t\t.feeAllocatedAsFANC\n\t\t\t\t.sub(FANCFees);\n\t\t} else {\n\t\t\tfeeCollectedInEther[owner()] = feeCollectedInEther[owner()].add(\n\t\t\t\tetherFees.sub(feeAllocationToNFTOwnerEther)\n\t\t\t);\n\t\t\tfeeCollectedInEther[NFTOwner] = feeCollectedInEther[NFTOwner].add(\n\t\t\t\tfeeAllocationToNFTOwnerEther\n\t\t\t);\n\t\t\tbuyOrders[_buyOrderId].feeAllocatedAsEther = buyOrders[_buyOrderId]\n\t\t\t\t.feeAllocatedAsEther\n\t\t\t\t.sub(etherFees);\n\t\t}\n\n\t\t// seller\n\t\t// add fees to the feescollected gloabl mapping - both owner and nftowner\n\t\tuint256 sellerFeeAllocationToNFTOwnerFANC =\n\t\t\t_feesInFANC.mul(allocationToNFTOwner).div(10**18);\n\t\tuint256 sellerDeeAllocationToNFTOwnerEther =\n\t\t\t_feesInEther.mul(allocationToNFTOwner).div(10**18);\n\t\tfeeCollectedInFANC[owner()] = feeCollectedInFANC[owner()].add(\n\t\t\t_feesInFANC.sub(sellerFeeAllocationToNFTOwnerFANC)\n\t\t);\n\t\tfeeCollectedInFANC[NFTOwner] = feeCollectedInFANC[NFTOwner].add(\n\t\t\tsellerFeeAllocationToNFTOwnerFANC\n\t\t);\n\t\tfeeCollectedInEther[owner()] = feeCollectedInEther[owner()].add(\n\t\t\t_feesInEther.sub(sellerDeeAllocationToNFTOwnerEther)\n\t\t);\n\t\tfeeCollectedInEther[NFTOwner] = feeCollectedInEther[NFTOwner].add(\n\t\t\tsellerDeeAllocationToNFTOwnerEther\n\t\t);\n\t}\n\n\tfunction _calculateAndAllocateFeesForSellOrderFill(\n\t\tuint256 _sellOrderId,\n\t\tuint256 _tokensFilled,\n\t\tuint256 _feesInFANC,\n\t\tuint256 _feesInEther\n\t) internal {\n\t\t//buyer\n\t\t// reduce feesallocated in the struct\n\t\t// reduce feesallocated in global mapping\n\t\t// add fees to the feescollected gloabl mapping - both owner and nftowner\n\t\tuint256 proportionOfTokensSold =\n\t\t\t_tokensFilled.div(sellOrders[_sellOrderId].tokensLeftToSell);\n\t\tuint256 etherFees =\n\t\t\tsellOrders[_sellOrderId].feeAllocatedAsEther.mul(proportionOfTokensSold);\n\t\tuint256 FANCFees =\n\t\t\tsellOrders[_sellOrderId].feeAllocatedAsFANC.mul(proportionOfTokensSold);\n\t\taddress NFTOwner =\n\t\t\tCelebrityOwnerToken(CelebrityOwnerTokenAddress).ownerOf(\n\t\t\t\tCelebrityToken(sellOrders[_sellOrderId].celebrityToken).id()\n\t\t\t);\n\t\tuint256 feeAllocationToNFTOwnerFANC =\n\t\t\tFANCFees.mul(allocationToNFTOwner).div(10**18);\n\t\tuint256 feeAllocationToNFTOwnerEther =\n\t\t\tetherFees.mul(allocationToNFTOwner).div(10**18);\n\t\tif (sellOrders[_sellOrderId].isFeePaidUsingFANC) {\n\t\t\t// add buyer side fees and sender side fees both to the feesCollected mapping\n\t\t\tfeeCollectedInFANC[owner()] = feeCollectedInFANC[owner()].add(\n\t\t\t\tFANCFees.sub(feeAllocationToNFTOwnerFANC)\n\t\t\t);\n\t\t\tfeeCollectedInFANC[NFTOwner] = feeCollectedInFANC[NFTOwner].add(\n\t\t\t\tfeeAllocationToNFTOwnerFANC\n\t\t\t);\n\t\t\tsellOrders[_sellOrderId].feeAllocatedAsFANC = sellOrders[_sellOrderId]\n\t\t\t\t.feeAllocatedAsFANC\n\t\t\t\t.sub(FANCFees);\n\t\t} else {\n\t\t\tfeeCollectedInEther[owner()] = feeCollectedInEther[owner()].add(\n\t\t\t\tetherFees.sub(feeAllocationToNFTOwnerEther)\n\t\t\t);\n\t\t\tfeeCollectedInEther[NFTOwner] = feeCollectedInEther[NFTOwner].add(\n\t\t\t\tfeeAllocationToNFTOwnerEther\n\t\t\t);\n\t\t\tsellOrders[_sellOrderId].feeAllocatedAsEther = sellOrders[_sellOrderId]\n\t\t\t\t.feeAllocatedAsEther\n\t\t\t\t.sub(etherFees);\n\t\t}\n\n\t\t// seller\n\t\t// add fees to the feescollected gloabl mapping - both owner and nftowner\n\t\tuint256 sellerFeeAllocationToNFTOwnerFANC =\n\t\t\t_feesInFANC.mul(allocationToNFTOwner).div(10**18);\n\t\tuint256 sellerDeeAllocationToNFTOwnerEther =\n\t\t\t_feesInEther.mul(allocationToNFTOwner).div(10**18);\n\t\tfeeCollectedInFANC[owner()] = feeCollectedInFANC[owner()].add(\n\t\t\t_feesInFANC.sub(sellerFeeAllocationToNFTOwnerFANC)\n\t\t);\n\t\tfeeCollectedInFANC[NFTOwner] = feeCollectedInFANC[NFTOwner].add(\n\t\t\tsellerFeeAllocationToNFTOwnerFANC\n\t\t);\n\t\tfeeCollectedInEther[owner()] = feeCollectedInEther[owner()].add(\n\t\t\t_feesInEther.sub(sellerDeeAllocationToNFTOwnerEther)\n\t\t);\n\t\tfeeCollectedInEther[NFTOwner] = feeCollectedInEther[NFTOwner].add(\n\t\t\tsellerDeeAllocationToNFTOwnerEther\n\t\t);\n\t}\n\n\tfunction balanceOf(address _token, address _user)\n\t\tpublic\n\t\tview\n\t\treturns (uint256)\n\t{\n\t\treturn tokensAndEtherInExchange[_token][_user];\n\t}\n\n\tfunction withdrawEther(uint256 _amount) public onlyOwner {\n\t\trequire(\n\t\t\ttokensAndEtherInExchange[WETHERADDRESS][owner()] >= _amount,\n\t\t\t\"Not enough funds in the protocol\"\n\t\t);\n\t\ttokensAndEtherInExchange[WETHERADDRESS][owner()] = tokensAndEtherInExchange[\n\t\t\tWETHERADDRESS\n\t\t][owner()]\n\t\t\t.sub(_amount);\n\t\tWETHToken(WETHERADDRESS).transfer(owner(), _amount);\n\t}\n\n\tfunction withdrawFANC(uint256 _amount) public onlyOwner {\n\t\trequire(\n\t\t\ttokensAndEtherInExchange[FANCTokenAddress][owner()] >= _amount,\n\t\t\t\"Not enough funds in the protocol\"\n\t\t);\n\t\ttokensAndEtherInExchange[FANCTokenAddress][\n\t\t\towner()\n\t\t] = tokensAndEtherInExchange[FANCTokenAddress][owner()].sub(_amount);\n\t\tFANCToken(FANCTokenAddress).transfer(owner(), _amount);\n\t}\n\n\tfunction withdrawEtherFees(uint256 _amount) public {\n\t\trequire(\n\t\t\tfeeCollectedInEther[msg.sender] >= _amount,\n\t\t\t\"Not enough funds in the protocol\"\n\t\t);\n\t\trequire(\n\t\t\t_amount >= minWithdrawalInEtherAllowed,\n\t\t\t\"Amount less than min withdrawal limit\"\n\t\t);\n\t\tfeeCollectedInEther[msg.sender] = feeCollectedInEther[msg.sender].sub(\n\t\t\t_amount\n\t\t);\n\t\tWETHToken(WETHERADDRESS).transfer(msg.sender, _amount);\n\t}\n\n\tfunction withdrawFANCFees(uint256 _amount) public {\n\t\trequire(\n\t\t\tfeeCollectedInFANC[msg.sender] >= _amount,\n\t\t\t\"Not enough funds in the protocol\"\n\t\t);\n\t\trequire(\n\t\t\t_amount >=\n\t\t\t\tminWithdrawalInEtherAllowed\n\t\t\t\t\t.mul(Oracle(ORACLEADDRESS).getAssetPrice())\n\t\t\t\t\t.div(10**18),\n\t\t\t\"Amount less than min withdrawal limit\"\n\t\t);\n\t\tfeeCollectedInFANC[msg.sender] = feeCollectedInFANC[msg.sender].sub(\n\t\t\t_amount\n\t\t);\n\t\tFANCToken(FANCTokenAddress).transfer(msg.sender, _amount);\n\t}\n}\n",
  "sourcePath": "/Users/raghu/Fanance/fanance-dapp/contracts/exchange-contracts/CelebrityExchange.sol",
  "compiler": {
    "name": "solc",
    "version": "0.5.16+commit.9c3226ce.Emscripten.clang"
  },
  "schemaVersion": "3.2.3",
  "updatedAt": "2021-01-03T14:35:29.885Z",
  "networkType": "ethereum",
  "devdoc": {
    "methods": {
      "isOwner()": {
        "return": "true if `msg.sender` is the owner of the contract."
      },
      "owner()": {
        "return": "the address of the owner."
      },
      "renounceOwnership()": {
        "details": "Allows the current owner to relinquish control of the contract."
      },
      "transferOwnership(address)": {
        "details": "Allows the current owner to transfer control of the contract to a newOwner.",
        "params": {
          "newOwner": "The address to transfer ownership to."
        }
      }
    }
  },
  "userdoc": {
    "methods": {
      "renounceOwnership()": {
        "notice": "Renouncing to ownership will leave the contract without an owner. It will not be possible to call the functions with the `onlyOwner` modifier anymore."
      }
    }
  }
}