{
  "contractName": "CelebrityExchange",
  "abi": [
    {
      "inputs": [
        {
          "internalType": "uint256",
          "name": "_feePercent",
          "type": "uint256"
        },
        {
          "internalType": "address",
          "name": "_FANCTokenAddress",
          "type": "address"
        },
        {
          "internalType": "address",
          "name": "_WETHERAddress",
          "type": "address"
        },
        {
          "internalType": "address",
          "name": "_CelebrityOwnerTokenAddress",
          "type": "address"
        },
        {
          "internalType": "address payable",
          "name": "_oracleAddress",
          "type": "address"
        },
        {
          "internalType": "uint256",
          "name": "_allocationToNFTOwner",
          "type": "uint256"
        },
        {
          "internalType": "uint8",
          "name": "_sellPriceSpread",
          "type": "uint8"
        },
        {
          "internalType": "uint256",
          "name": "_minWithdrawalInEtherAllowed",
          "type": "uint256"
        }
      ],
      "payable": false,
      "stateMutability": "nonpayable",
      "type": "constructor"
    },
    {
      "anonymous": false,
      "inputs": [
        {
          "indexed": false,
          "internalType": "uint256",
          "name": "id",
          "type": "uint256"
        },
        {
          "indexed": false,
          "internalType": "address",
          "name": "user",
          "type": "address"
        },
        {
          "indexed": false,
          "internalType": "address",
          "name": "celebrityToken",
          "type": "address"
        },
        {
          "indexed": false,
          "internalType": "uint256",
          "name": "timestamp",
          "type": "uint256"
        }
      ],
      "name": "BuyOrderCancelled",
      "type": "event"
    },
    {
      "anonymous": false,
      "inputs": [
        {
          "indexed": false,
          "internalType": "uint256",
          "name": "id",
          "type": "uint256"
        },
        {
          "indexed": false,
          "internalType": "address",
          "name": "executor",
          "type": "address"
        },
        {
          "indexed": false,
          "internalType": "uint256",
          "name": "numberOfTokens",
          "type": "uint256"
        },
        {
          "indexed": false,
          "internalType": "uint256",
          "name": "price",
          "type": "uint256"
        },
        {
          "indexed": false,
          "internalType": "uint256",
          "name": "timestamp",
          "type": "uint256"
        }
      ],
      "name": "BuyOrderFilled",
      "type": "event"
    },
    {
      "anonymous": false,
      "inputs": [
        {
          "indexed": false,
          "internalType": "uint256",
          "name": "id",
          "type": "uint256"
        },
        {
          "indexed": false,
          "internalType": "address",
          "name": "executor",
          "type": "address"
        },
        {
          "indexed": false,
          "internalType": "uint256",
          "name": "numberOfTokens",
          "type": "uint256"
        },
        {
          "indexed": false,
          "internalType": "uint256",
          "name": "price",
          "type": "uint256"
        },
        {
          "indexed": false,
          "internalType": "uint256",
          "name": "tokensLeftToBuy",
          "type": "uint256"
        },
        {
          "indexed": false,
          "internalType": "uint256",
          "name": "etherAmountLeft",
          "type": "uint256"
        },
        {
          "indexed": false,
          "internalType": "uint256",
          "name": "timestamp",
          "type": "uint256"
        }
      ],
      "name": "BuyOrderPartiallyFilled",
      "type": "event"
    },
    {
      "anonymous": false,
      "inputs": [
        {
          "indexed": false,
          "internalType": "uint256",
          "name": "id",
          "type": "uint256"
        },
        {
          "indexed": false,
          "internalType": "address",
          "name": "user",
          "type": "address"
        },
        {
          "indexed": false,
          "internalType": "address",
          "name": "celebrityToken",
          "type": "address"
        },
        {
          "indexed": false,
          "internalType": "uint256",
          "name": "tokenBuy",
          "type": "uint256"
        },
        {
          "indexed": false,
          "internalType": "uint256",
          "name": "amountSend",
          "type": "uint256"
        },
        {
          "indexed": false,
          "internalType": "uint256",
          "name": "feesInEther",
          "type": "uint256"
        },
        {
          "indexed": false,
          "internalType": "uint256",
          "name": "feesInFANC",
          "type": "uint256"
        },
        {
          "indexed": false,
          "internalType": "uint256",
          "name": "price",
          "type": "uint256"
        },
        {
          "indexed": false,
          "internalType": "uint256",
          "name": "timestamp",
          "type": "uint256"
        }
      ],
      "name": "BuyOrderPlaced",
      "type": "event"
    },
    {
      "anonymous": false,
      "inputs": [
        {
          "indexed": false,
          "internalType": "uint256",
          "name": "id",
          "type": "uint256"
        },
        {
          "indexed": false,
          "internalType": "address",
          "name": "user",
          "type": "address"
        },
        {
          "indexed": false,
          "internalType": "address",
          "name": "celebrityToken",
          "type": "address"
        },
        {
          "indexed": false,
          "internalType": "uint256",
          "name": "tokenSell",
          "type": "uint256"
        },
        {
          "indexed": false,
          "internalType": "uint256",
          "name": "amountReceive",
          "type": "uint256"
        },
        {
          "indexed": false,
          "internalType": "uint256",
          "name": "price",
          "type": "uint256"
        },
        {
          "indexed": false,
          "internalType": "uint256",
          "name": "timestamp",
          "type": "uint256"
        }
      ],
      "name": "InitialSellOrderPlaced",
      "type": "event"
    },
    {
      "anonymous": false,
      "inputs": [
        {
          "indexed": false,
          "internalType": "address",
          "name": "celebrityToken",
          "type": "address"
        },
        {
          "indexed": false,
          "internalType": "uint256",
          "name": "tokenSell",
          "type": "uint256"
        },
        {
          "indexed": false,
          "internalType": "uint256",
          "name": "amountReceive",
          "type": "uint256"
        },
        {
          "indexed": false,
          "internalType": "uint256",
          "name": "price",
          "type": "uint256"
        },
        {
          "indexed": false,
          "internalType": "uint256",
          "name": "timestamp",
          "type": "uint256"
        }
      ],
      "name": "InitialSellOrderUpdated",
      "type": "event"
    },
    {
      "anonymous": false,
      "inputs": [
        {
          "indexed": true,
          "internalType": "address",
          "name": "previousOwner",
          "type": "address"
        },
        {
          "indexed": true,
          "internalType": "address",
          "name": "newOwner",
          "type": "address"
        }
      ],
      "name": "OwnershipTransferred",
      "type": "event"
    },
    {
      "anonymous": false,
      "inputs": [
        {
          "indexed": false,
          "internalType": "uint256",
          "name": "id",
          "type": "uint256"
        },
        {
          "indexed": false,
          "internalType": "address",
          "name": "user",
          "type": "address"
        },
        {
          "indexed": false,
          "internalType": "address",
          "name": "celebrityToken",
          "type": "address"
        },
        {
          "indexed": false,
          "internalType": "uint256",
          "name": "timestamp",
          "type": "uint256"
        }
      ],
      "name": "SellOrderCancelled",
      "type": "event"
    },
    {
      "anonymous": false,
      "inputs": [
        {
          "indexed": false,
          "internalType": "uint256",
          "name": "id",
          "type": "uint256"
        },
        {
          "indexed": false,
          "internalType": "address",
          "name": "executor",
          "type": "address"
        },
        {
          "indexed": false,
          "internalType": "uint256",
          "name": "numberOfTokens",
          "type": "uint256"
        },
        {
          "indexed": false,
          "internalType": "uint256",
          "name": "price",
          "type": "uint256"
        },
        {
          "indexed": false,
          "internalType": "uint256",
          "name": "timestamp",
          "type": "uint256"
        }
      ],
      "name": "SellOrderFilled",
      "type": "event"
    },
    {
      "anonymous": false,
      "inputs": [
        {
          "indexed": false,
          "internalType": "uint256",
          "name": "id",
          "type": "uint256"
        },
        {
          "indexed": false,
          "internalType": "address",
          "name": "executor",
          "type": "address"
        },
        {
          "indexed": false,
          "internalType": "uint256",
          "name": "numberOfTokens",
          "type": "uint256"
        },
        {
          "indexed": false,
          "internalType": "uint256",
          "name": "price",
          "type": "uint256"
        },
        {
          "indexed": false,
          "internalType": "uint256",
          "name": "tokensLeftToSell",
          "type": "uint256"
        },
        {
          "indexed": false,
          "internalType": "uint256",
          "name": "etherAmountLeft",
          "type": "uint256"
        },
        {
          "indexed": false,
          "internalType": "uint256",
          "name": "timestamp",
          "type": "uint256"
        }
      ],
      "name": "SellOrderPartiallyFilled",
      "type": "event"
    },
    {
      "anonymous": false,
      "inputs": [
        {
          "indexed": false,
          "internalType": "uint256",
          "name": "id",
          "type": "uint256"
        },
        {
          "indexed": false,
          "internalType": "address",
          "name": "user",
          "type": "address"
        },
        {
          "indexed": false,
          "internalType": "address",
          "name": "celebrityToken",
          "type": "address"
        },
        {
          "indexed": false,
          "internalType": "uint256",
          "name": "tokenSell",
          "type": "uint256"
        },
        {
          "indexed": false,
          "internalType": "uint256",
          "name": "amountReceive",
          "type": "uint256"
        },
        {
          "indexed": false,
          "internalType": "uint256",
          "name": "price",
          "type": "uint256"
        },
        {
          "indexed": false,
          "internalType": "uint256",
          "name": "timestamp",
          "type": "uint256"
        }
      ],
      "name": "SellOrderPlaced",
      "type": "event"
    },
    {
      "payable": false,
      "stateMutability": "nonpayable",
      "type": "fallback"
    },
    {
      "constant": true,
      "inputs": [],
      "name": "CelebrityOwnerTokenAddress",
      "outputs": [
        {
          "internalType": "address",
          "name": "",
          "type": "address"
        }
      ],
      "payable": false,
      "stateMutability": "view",
      "type": "function"
    },
    {
      "constant": true,
      "inputs": [],
      "name": "FANCTOKENAddress",
      "outputs": [
        {
          "internalType": "address",
          "name": "",
          "type": "address"
        }
      ],
      "payable": false,
      "stateMutability": "view",
      "type": "function"
    },
    {
      "constant": true,
      "inputs": [],
      "name": "ORACLEADDRESS",
      "outputs": [
        {
          "internalType": "address payable",
          "name": "",
          "type": "address"
        }
      ],
      "payable": false,
      "stateMutability": "view",
      "type": "function"
    },
    {
      "constant": true,
      "inputs": [],
      "name": "WETHERADDRESS",
      "outputs": [
        {
          "internalType": "address",
          "name": "",
          "type": "address"
        }
      ],
      "payable": false,
      "stateMutability": "view",
      "type": "function"
    },
    {
      "constant": true,
      "inputs": [],
      "name": "allocationToNFTOwner",
      "outputs": [
        {
          "internalType": "uint256",
          "name": "",
          "type": "uint256"
        }
      ],
      "payable": false,
      "stateMutability": "view",
      "type": "function"
    },
    {
      "constant": true,
      "inputs": [],
      "name": "buyOrderCount",
      "outputs": [
        {
          "internalType": "uint256",
          "name": "",
          "type": "uint256"
        }
      ],
      "payable": false,
      "stateMutability": "view",
      "type": "function"
    },
    {
      "constant": true,
      "inputs": [
        {
          "internalType": "uint256",
          "name": "",
          "type": "uint256"
        },
        {
          "internalType": "uint256",
          "name": "",
          "type": "uint256"
        }
      ],
      "name": "buyOrderExecutedTrades",
      "outputs": [
        {
          "internalType": "address",
          "name": "user",
          "type": "address"
        },
        {
          "internalType": "uint256",
          "name": "tokensFilled",
          "type": "uint256"
        },
        {
          "internalType": "uint256",
          "name": "amount",
          "type": "uint256"
        },
        {
          "internalType": "uint256",
          "name": "timestamp",
          "type": "uint256"
        }
      ],
      "payable": false,
      "stateMutability": "view",
      "type": "function"
    },
    {
      "constant": true,
      "inputs": [
        {
          "internalType": "uint256",
          "name": "",
          "type": "uint256"
        }
      ],
      "name": "buyOrders",
      "outputs": [
        {
          "internalType": "uint256",
          "name": "id",
          "type": "uint256"
        },
        {
          "internalType": "address",
          "name": "user",
          "type": "address"
        },
        {
          "internalType": "address",
          "name": "celebrityToken",
          "type": "address"
        },
        {
          "internalType": "uint256",
          "name": "tokenBuy",
          "type": "uint256"
        },
        {
          "internalType": "uint256",
          "name": "amountSend",
          "type": "uint256"
        },
        {
          "internalType": "uint256",
          "name": "buyPrice",
          "type": "uint256"
        },
        {
          "internalType": "uint256",
          "name": "tokensLeftToBuy",
          "type": "uint256"
        },
        {
          "internalType": "uint256",
          "name": "etherAmountLeft",
          "type": "uint256"
        },
        {
          "internalType": "uint256",
          "name": "feeAllocatedAsEther",
          "type": "uint256"
        },
        {
          "internalType": "uint256",
          "name": "feeAllocatedAsFANC",
          "type": "uint256"
        },
        {
          "internalType": "bool",
          "name": "isFeePaidUsingFANC",
          "type": "bool"
        },
        {
          "internalType": "uint256",
          "name": "currentFeePercent",
          "type": "uint256"
        },
        {
          "internalType": "uint256",
          "name": "timestamp",
          "type": "uint256"
        },
        {
          "internalType": "enum CelebrityExchange.OrderStatus",
          "name": "status",
          "type": "uint8"
        }
      ],
      "payable": false,
      "stateMutability": "view",
      "type": "function"
    },
    {
      "constant": true,
      "inputs": [
        {
          "internalType": "address",
          "name": "",
          "type": "address"
        }
      ],
      "name": "currentHighestSellOrderPrice",
      "outputs": [
        {
          "internalType": "uint256",
          "name": "",
          "type": "uint256"
        }
      ],
      "payable": false,
      "stateMutability": "view",
      "type": "function"
    },
    {
      "constant": true,
      "inputs": [
        {
          "internalType": "address",
          "name": "",
          "type": "address"
        }
      ],
      "name": "feeCollectedInEther",
      "outputs": [
        {
          "internalType": "uint256",
          "name": "",
          "type": "uint256"
        }
      ],
      "payable": false,
      "stateMutability": "view",
      "type": "function"
    },
    {
      "constant": true,
      "inputs": [
        {
          "internalType": "address",
          "name": "",
          "type": "address"
        }
      ],
      "name": "feeCollectedInFANC",
      "outputs": [
        {
          "internalType": "uint256",
          "name": "",
          "type": "uint256"
        }
      ],
      "payable": false,
      "stateMutability": "view",
      "type": "function"
    },
    {
      "constant": true,
      "inputs": [],
      "name": "feePercent",
      "outputs": [
        {
          "internalType": "uint256",
          "name": "",
          "type": "uint256"
        }
      ],
      "payable": false,
      "stateMutability": "view",
      "type": "function"
    },
    {
      "constant": true,
      "inputs": [],
      "name": "isOwner",
      "outputs": [
        {
          "internalType": "bool",
          "name": "",
          "type": "bool"
        }
      ],
      "payable": false,
      "stateMutability": "view",
      "type": "function"
    },
    {
      "constant": true,
      "inputs": [
        {
          "internalType": "address",
          "name": "",
          "type": "address"
        }
      ],
      "name": "latestPrice",
      "outputs": [
        {
          "internalType": "uint256",
          "name": "",
          "type": "uint256"
        }
      ],
      "payable": false,
      "stateMutability": "view",
      "type": "function"
    },
    {
      "constant": true,
      "inputs": [],
      "name": "minWithdrawalInEtherAllowed",
      "outputs": [
        {
          "internalType": "uint256",
          "name": "",
          "type": "uint256"
        }
      ],
      "payable": false,
      "stateMutability": "view",
      "type": "function"
    },
    {
      "constant": true,
      "inputs": [],
      "name": "owner",
      "outputs": [
        {
          "internalType": "address",
          "name": "",
          "type": "address"
        }
      ],
      "payable": false,
      "stateMutability": "view",
      "type": "function"
    },
    {
      "constant": false,
      "inputs": [],
      "name": "renounceOwnership",
      "outputs": [],
      "payable": false,
      "stateMutability": "nonpayable",
      "type": "function"
    },
    {
      "constant": true,
      "inputs": [],
      "name": "sellOrderCount",
      "outputs": [
        {
          "internalType": "uint256",
          "name": "",
          "type": "uint256"
        }
      ],
      "payable": false,
      "stateMutability": "view",
      "type": "function"
    },
    {
      "constant": true,
      "inputs": [
        {
          "internalType": "uint256",
          "name": "",
          "type": "uint256"
        },
        {
          "internalType": "uint256",
          "name": "",
          "type": "uint256"
        }
      ],
      "name": "sellOrderExecutedTrades",
      "outputs": [
        {
          "internalType": "address",
          "name": "user",
          "type": "address"
        },
        {
          "internalType": "uint256",
          "name": "tokensFilled",
          "type": "uint256"
        },
        {
          "internalType": "uint256",
          "name": "amount",
          "type": "uint256"
        },
        {
          "internalType": "uint256",
          "name": "timestamp",
          "type": "uint256"
        }
      ],
      "payable": false,
      "stateMutability": "view",
      "type": "function"
    },
    {
      "constant": true,
      "inputs": [
        {
          "internalType": "uint256",
          "name": "",
          "type": "uint256"
        }
      ],
      "name": "sellOrders",
      "outputs": [
        {
          "internalType": "uint256",
          "name": "id",
          "type": "uint256"
        },
        {
          "internalType": "address payable",
          "name": "user",
          "type": "address"
        },
        {
          "internalType": "address",
          "name": "celebrityToken",
          "type": "address"
        },
        {
          "internalType": "uint256",
          "name": "tokenSell",
          "type": "uint256"
        },
        {
          "internalType": "uint256",
          "name": "amountReceive",
          "type": "uint256"
        },
        {
          "internalType": "uint256",
          "name": "sellPrice",
          "type": "uint256"
        },
        {
          "internalType": "uint256",
          "name": "tokensLeftToSell",
          "type": "uint256"
        },
        {
          "internalType": "uint256",
          "name": "etherAmountLeft",
          "type": "uint256"
        },
        {
          "internalType": "uint256",
          "name": "feeAllocatedAsEther",
          "type": "uint256"
        },
        {
          "internalType": "uint256",
          "name": "feeAllocatedAsFANC",
          "type": "uint256"
        },
        {
          "internalType": "bool",
          "name": "isFeePaidUsingFANC",
          "type": "bool"
        },
        {
          "internalType": "uint256",
          "name": "currentFeePercent",
          "type": "uint256"
        },
        {
          "internalType": "uint256",
          "name": "timestamp",
          "type": "uint256"
        },
        {
          "internalType": "enum CelebrityExchange.OrderStatus",
          "name": "status",
          "type": "uint8"
        }
      ],
      "payable": false,
      "stateMutability": "view",
      "type": "function"
    },
    {
      "constant": true,
      "inputs": [
        {
          "internalType": "address",
          "name": "",
          "type": "address"
        },
        {
          "internalType": "address",
          "name": "",
          "type": "address"
        }
      ],
      "name": "tokensAndEtherInExchange",
      "outputs": [
        {
          "internalType": "uint256",
          "name": "",
          "type": "uint256"
        }
      ],
      "payable": false,
      "stateMutability": "view",
      "type": "function"
    },
    {
      "constant": false,
      "inputs": [
        {
          "internalType": "address",
          "name": "newOwner",
          "type": "address"
        }
      ],
      "name": "transferOwnership",
      "outputs": [],
      "payable": false,
      "stateMutability": "nonpayable",
      "type": "function"
    },
    {
      "constant": false,
      "inputs": [
        {
          "internalType": "address",
          "name": "_FANCTokenAddress",
          "type": "address"
        },
        {
          "internalType": "address",
          "name": "_WETHERAddress",
          "type": "address"
        },
        {
          "internalType": "address payable",
          "name": "_oracleAddress",
          "type": "address"
        },
        {
          "internalType": "address",
          "name": "_CelebrityOwnerTokenAddress",
          "type": "address"
        }
      ],
      "name": "changeTokenAddress",
      "outputs": [],
      "payable": false,
      "stateMutability": "nonpayable",
      "type": "function"
    },
    {
      "constant": false,
      "inputs": [
        {
          "internalType": "uint256",
          "name": "_feePercent",
          "type": "uint256"
        },
        {
          "internalType": "uint256",
          "name": "_allocationToNFTOwner",
          "type": "uint256"
        },
        {
          "internalType": "uint8",
          "name": "_sellPriceSpread",
          "type": "uint8"
        },
        {
          "internalType": "uint256",
          "name": "_minWithdrawalInEtherAllowed10Power6",
          "type": "uint256"
        }
      ],
      "name": "changeFeePercent",
      "outputs": [],
      "payable": false,
      "stateMutability": "nonpayable",
      "type": "function"
    },
    {
      "constant": false,
      "inputs": [
        {
          "internalType": "address",
          "name": "_celebrityToken",
          "type": "address"
        },
        {
          "internalType": "uint256",
          "name": "_tokenBuy",
          "type": "uint256"
        },
        {
          "internalType": "uint256",
          "name": "_amountSend",
          "type": "uint256"
        },
        {
          "internalType": "uint256",
          "name": "_fees",
          "type": "uint256"
        },
        {
          "internalType": "bool",
          "name": "_usingFANCTokenForFees",
          "type": "bool"
        }
      ],
      "name": "placeBuyOrder",
      "outputs": [],
      "payable": false,
      "stateMutability": "nonpayable",
      "type": "function"
    },
    {
      "constant": false,
      "inputs": [
        {
          "internalType": "address",
          "name": "_celebrityToken",
          "type": "address"
        },
        {
          "internalType": "uint256",
          "name": "_tokenSell",
          "type": "uint256"
        },
        {
          "internalType": "uint256",
          "name": "_amountReceive",
          "type": "uint256"
        },
        {
          "internalType": "uint256",
          "name": "_fees",
          "type": "uint256"
        },
        {
          "internalType": "bool",
          "name": "_usingFANCTokenForFees",
          "type": "bool"
        }
      ],
      "name": "placeSellOrder",
      "outputs": [],
      "payable": false,
      "stateMutability": "nonpayable",
      "type": "function"
    },
    {
      "constant": false,
      "inputs": [
        {
          "internalType": "uint256",
          "name": "_buyOrderId",
          "type": "uint256"
        },
        {
          "internalType": "uint256",
          "name": "_tokensFilled",
          "type": "uint256"
        },
        {
          "internalType": "uint256",
          "name": "_fees",
          "type": "uint256"
        },
        {
          "internalType": "bool",
          "name": "_usingFANCTokenForFees",
          "type": "bool"
        }
      ],
      "name": "fillBuyOrder",
      "outputs": [],
      "payable": false,
      "stateMutability": "nonpayable",
      "type": "function"
    },
    {
      "constant": false,
      "inputs": [
        {
          "internalType": "uint256",
          "name": "_sellOrderId",
          "type": "uint256"
        },
        {
          "internalType": "uint256",
          "name": "_tokensFilled",
          "type": "uint256"
        },
        {
          "internalType": "uint256",
          "name": "_fees",
          "type": "uint256"
        },
        {
          "internalType": "bool",
          "name": "_usingFANCTokenForFees",
          "type": "bool"
        }
      ],
      "name": "fillSellOrder",
      "outputs": [],
      "payable": false,
      "stateMutability": "nonpayable",
      "type": "function"
    },
    {
      "constant": false,
      "inputs": [
        {
          "internalType": "uint256",
          "name": "_buyOrderId",
          "type": "uint256"
        }
      ],
      "name": "cancelBuyOrder",
      "outputs": [],
      "payable": false,
      "stateMutability": "nonpayable",
      "type": "function"
    },
    {
      "constant": false,
      "inputs": [
        {
          "internalType": "uint256",
          "name": "_sellOrderId",
          "type": "uint256"
        }
      ],
      "name": "cancelSellOrder",
      "outputs": [],
      "payable": false,
      "stateMutability": "nonpayable",
      "type": "function"
    },
    {
      "constant": false,
      "inputs": [
        {
          "internalType": "address",
          "name": "_celebrityToken",
          "type": "address"
        },
        {
          "internalType": "uint256",
          "name": "_tokenSell",
          "type": "uint256"
        },
        {
          "internalType": "uint256",
          "name": "_amountReceive",
          "type": "uint256"
        }
      ],
      "name": "placeInitialSellOrder",
      "outputs": [],
      "payable": false,
      "stateMutability": "nonpayable",
      "type": "function"
    },
    {
      "constant": false,
      "inputs": [
        {
          "internalType": "address",
          "name": "_celebrityToken",
          "type": "address"
        },
        {
          "internalType": "uint256",
          "name": "_tokenSell",
          "type": "uint256"
        },
        {
          "internalType": "uint256",
          "name": "_amountReceive",
          "type": "uint256"
        }
      ],
      "name": "updateInitialSellOrder",
      "outputs": [],
      "payable": false,
      "stateMutability": "nonpayable",
      "type": "function"
    },
    {
      "constant": true,
      "inputs": [
        {
          "internalType": "address",
          "name": "_token",
          "type": "address"
        },
        {
          "internalType": "address",
          "name": "_user",
          "type": "address"
        }
      ],
      "name": "balanceOf",
      "outputs": [
        {
          "internalType": "uint256",
          "name": "",
          "type": "uint256"
        }
      ],
      "payable": false,
      "stateMutability": "view",
      "type": "function"
    },
    {
      "constant": false,
      "inputs": [
        {
          "internalType": "uint256",
          "name": "_amount",
          "type": "uint256"
        }
      ],
      "name": "withdrawEther",
      "outputs": [],
      "payable": false,
      "stateMutability": "nonpayable",
      "type": "function"
    },
    {
      "constant": false,
      "inputs": [
        {
          "internalType": "uint256",
          "name": "_amount",
          "type": "uint256"
        }
      ],
      "name": "withdrawFANC",
      "outputs": [],
      "payable": false,
      "stateMutability": "nonpayable",
      "type": "function"
    },
    {
      "constant": false,
      "inputs": [
        {
          "internalType": "uint256",
          "name": "_amount",
          "type": "uint256"
        }
      ],
      "name": "withdrawEtherFees",
      "outputs": [],
      "payable": false,
      "stateMutability": "nonpayable",
      "type": "function"
    },
    {
      "constant": false,
      "inputs": [
        {
          "internalType": "uint256",
          "name": "_amount",
          "type": "uint256"
        }
      ],
      "name": "withdrawFANCFees",
      "outputs": [],
      "payable": false,
      "stateMutability": "nonpayable",
      "type": "function"
    }
  ],
  "bytecode": "0x608060405234801561001057600080fd5b506040516200476638038062004766833981810160405261010081101561003657600080fd5b50805160208201516040808401516060850151608086015160a087015160c088015160e090980151600080546001600160a01b031916331780825596519899979895979496939592949391926001600160a01b0392909216917f8be0079c531659141344cd1fd0a4f28419497f9722a3daafe3b4186f6b6457e0908290a3600197909755600291909155600480546001600160a01b03199081166001600160a01b039788161790915560038054821695871695909517909455600580548516928616929092179091556006805490931691909316179055600e805460ff191660ff9092169190911790556402540be4000260185561462c806200013a6000396000f3fe608060405234801561001057600080fd5b50600436106102275760003560e01c80637cee0ad611610130578063be5d147f116100b8578063e6ce9a901161007c578063e6ce9a90146106d8578063f0cbd99614610709578063f2fde38b14610749578063f58c7acf1461076f578063f7888aec1461077757610227565b8063be5d147f1461061f578063d0707d361461063c578063d1e3175a1461066a578063e20f0cd114610672578063e2562bae1461069857610227565b80638549a38d116100ff5780638549a38d1461056e5780638da5cb5b146105a05780638f32d59b146105a85780639e8aed3d146105c4578063b3482364146105e157610227565b80637cee0ad6146105245780637fd6f15c14610556578063831965ab1461055e5780638371efb41461056657610227565b8063537ef53d116101b357806360eff5171161018257806360eff5171461049f57806362151a7e146104a7578063715018a6146104cd5780637a36c5fa146104d55780637bdcc9901461050757610227565b8063537ef53d14610431578063544eff2b1461045757806357c02f1a1461045f5780635da349131461048257610227565b806335cea288116101fa57806335cea288146102e95780633bed33ce146103ad5780634a8393f3146103ca57806350f35cfd146103e757806353084eff1461040b57610227565b806308e2f02e1461022c5780631a46e42a1461025f5780631f0ea5b21461027c5780632fa8e67614610296575b600080fd5b61025d6004803603608081101561024257600080fd5b508035906020810135906040810135906060013515156107a5565b005b61025d6004803603602081101561027557600080fd5b5035610df1565b610284610fce565b60408051918252519081900360200190f35b6102b9600480360360408110156102ac57600080fd5b5080359060200135610fd4565b604080516001600160a01b0390951685526020850193909352838301919091526060830152519081900360800190f35b610306600480360360208110156102ff57600080fd5b5035611021565b604051808f81526020018e6001600160a01b03166001600160a01b031681526020018d6001600160a01b03166001600160a01b031681526020018c81526020018b81526020018a81526020018981526020018881526020018781526020018681526020018515151515815260200184815260200183815260200182600381111561038c57fe5b60ff1681526020019e50505050505050505050505050505060405180910390f35b61025d600480360360208110156103c357600080fd5b50356110a0565b610306600480360360208110156103e057600080fd5b503561128a565b6103ef61130b565b604080516001600160a01b039092168252519081900360200190f35b6102846004803603602081101561042157600080fd5b50356001600160a01b031661131a565b6102846004803603602081101561044757600080fd5b50356001600160a01b031661132c565b6103ef61133e565b6102b96004803603604081101561047557600080fd5b508035906020013561134d565b61025d6004803603602081101561049857600080fd5b5035611366565b6103ef6114ab565b610284600480360360208110156104bd57600080fd5b50356001600160a01b03166114ba565b61025d6114cc565b61025d600480360360608110156104eb57600080fd5b506001600160a01b038135169060208101359060400135611559565b61025d6004803603602081101561051d57600080fd5b50356118c4565b61025d6004803603608081101561053a57600080fd5b5080359060208101359060ff60408201351690606001356119dc565b610284611a4a565b6103ef611a50565b610284611a5f565b61025d6004803603606081101561058457600080fd5b506001600160a01b038135169060208101359060400135611a65565b6103ef611ef9565b6105b0611f08565b604080519115158252519081900360200190f35b61025d600480360360208110156105da57600080fd5b5035611f19565b61025d600480360360808110156105f757600080fd5b506001600160a01b0381358116916020810135821691604082013581169160600135166120c7565b61025d6004803603602081101561063557600080fd5b503561215a565b6102846004803603604081101561065257600080fd5b506001600160a01b0381358116916020013516612307565b610284612324565b6102846004803603602081101561068857600080fd5b50356001600160a01b031661232a565b61025d600480360360a08110156106ae57600080fd5b506001600160a01b038135169060208101359060408101359060608101359060800135151561233c565b61025d600480360360808110156106ee57600080fd5b508035906020810135906040810135906060013515156127f8565b61025d600480360360a081101561071f57600080fd5b506001600160a01b0381351690602081013590604081013590606081013590608001351515612e1c565b61025d6004803603602081101561075f57600080fd5b50356001600160a01b0316613365565b6102846133b4565b6102846004803603604081101561078d57600080fd5b506001600160a01b03813581169160200135166133ba565b6000848152600b60205260409020600101546001600160a01b03163314156107fe5760405162461bcd60e51b81526004018080602001828103825260298152602001806145246029913960400191505060405180910390fd5b600d54841061084b576040805162461bcd60e51b815260206004820152601460248201527313dc99195c88191bd95cc81b9bdd08195e1a5cdd60621b604482015290519081900360640190fd5b60026000858152600b60205260409020600d015460ff16600381111561086d57fe5b1415801561089b575060036000858152600b60205260409020600d015460ff16600381111561089857fe5b14155b6108d65760405162461bcd60e51b81526004018080602001828103825260228152602001806144ad6022913960400191505060405180910390fd5b6000831180156108f757506000848152600b60205260409020600601548311155b6109325760405162461bcd60e51b815260040180806020018281038252602e8152602001806144cf602e913960400191505060405180910390fd5b6000848152600b60205260408120600501548190819061097390670de0b6b3a76400009061096790899063ffffffff6133e716565b9063ffffffff61344716565b90508315610a8357600554604080516301ca9e1160e71b815290516000926001600160a01b03169163e54f0880916004808301926020929190829003018186803b1580156109c057600080fd5b505afa1580156109d4573d6000803e3d6000fd5b505050506040513d60208110156109ea57600080fd5b5051600154909150610a2f906ec097ce7bc90715b34b9f1000000000906109679060029082908690610a2390899063ffffffff6133e716565b9063ffffffff6133e716565b8614610a70576040805162461bcd60e51b8152602060048201526015602482015260008051602061446c833981519152604482015290519081900360640190fd5b610a7a3387613489565b85925050610af3565b610aa4670de0b6b3a7640000610967600154846133e790919063ffffffff16565b8514610ae5576040805162461bcd60e51b8152602060048201526015602482015260008051602061446c833981519152604482015290519081900360640190fd5b610aef3386613513565b8492505b6000878152600b6020526040902060010154610b1a9033906001600160a01b03168361362e565b6000878152600b6020526040902060020154610b40906001600160a01b0316338861377c565b610b4c878784866137dc565b6000878152600b6020526040902060060154610b6e908763ffffffff613c9116565b6000888152600b60205260409020600681019190915560070154610b98908263ffffffff613c9116565b6000888152600b6020908152604080832060078082019590955560028101546001600160a01b03908116855294835281842060019091015490941683529290522054610bea908263ffffffff613c9116565b6000888152600b6020818152604080842060028101546001600160a01b0390811686526007845282862060018301549091168652835290842094909455918a905290526006015415610cc9576000878152600b6020908152604091829020600d8101805460ff19166001179055805460058201546006830154600790930154855192835233948301949094528185018b90526060820152608081019190915260a08101919091524260c082015290517f84b582c39f1979ff5fe618bba635b2101d9559efbcbf8ae4453a565a5543e06a9160e0908290030190a1610d41565b6000878152600b6020908152604091829020600d8101805460ff19166002179055805460059091015483519182523392820192909252808301899052606081019190915242608082015290517f2c2c15d3c56bafe3b43e442d6ee3d5b3a8145003d56ad59775237b8b1239713d9160a0908290030190a15b6000878152600b6020908152604080832060058101546002918201546001600160a01b039081168652600f8552838620919091559a8452601a835281842082516080810184523381528085019b8c529283019586524260608401908152815460018082018455928752949095209251600490940290920180546001600160a01b03191693909b16929092178a55975197890197909755905195870195909555505091516003909301929092555050565b6000818152600b60205260409020600101546001600160a01b03163314610e495760405162461bcd60e51b81526004018080602001828103825260308152602001806145c86030913960400191505060405180910390fd5b6000818152600b602052604090206008810154600190910154610e75906001600160a01b031682613cd3565b6000828152600b60205260409020600681015460028201546001909201549091610eac916001600160a01b0391821691168361377c565b6000838152600b602052604090206009810154600190910154610ed8906001600160a01b031682613d29565b6000848152600b6020908152604080832060078082015460028301546001600160a01b0390811687529185528386206001909301549091168552925290912054610f279163ffffffff613c9116565b6000858152600b602081815260408084206002810180546001600160a01b039081168752600785528387206001840180548316895290865284882098909855958b9052938352600d01805460ff19166003179055935491548451898152928416918301919091529091168183015242606082015290517f57e8f87c0d042699a4719324176f71329715c78041e8338cec2c05def125a0cb916080908290030190a150505050565b60025481565b60196020528160005260406000208181548110610fed57fe5b600091825260209091206004909102018054600182015460028301546003909301546001600160a01b039092169450925084565b600a60208190526000918252604090912080546001820154600283015460038401546004850154600586015460068701546007880154600889015460098a01549a8a0154600b8b0154600c8c0154600d909c01549a9c6001600160a01b039a8b169c99909a169a97999698959794969395929460ff928316939192168e565b6110a8611f08565b6110e35760405162461bcd60e51b81526004018080602001828103825260298152602001806143cf6029913960400191505060405180910390fd5b6003546001600160a01b031660009081526007602052604081208291611107611ef9565b6001600160a01b03166001600160a01b03168152602001908152602001600020541015611169576040805162461bcd60e51b815260206004820181905260248201526000805160206143af833981519152604482015290519081900360640190fd5b6003546001600160a01b031660009081526007602052604081206111b891839190611192611ef9565b6001600160a01b031681526020810191909152604001600020549063ffffffff613c9116565b6003546001600160a01b03166000908152600760205260408120906111db611ef9565b6001600160a01b0390811682526020820192909252604001600020919091556003541663a9059cbb61120b611ef9565b836040518363ffffffff1660e01b815260040180836001600160a01b03166001600160a01b0316815260200182815260200192505050602060405180830381600087803b15801561125b57600080fd5b505af115801561126f573d6000803e3d6000fd5b505050506040513d602081101561128557600080fd5b505050565b600b60208190526000918252604090912080546001820154600283015460038401546004850154600586015460068701546007880154600889015460098a0154600a8b01549b8b0154600c8c0154600d909c01549a9c6001600160a01b039a8b169c99909a169a979996989597949693959294919360ff908116939192168e565b6005546001600160a01b031681565b600f6020526000908152604090205481565b60086020526000908152604090205481565b6006546001600160a01b031681565b601a6020528160005260406000208181548110610fed57fe5b61136e611f08565b6113a95760405162461bcd60e51b81526004018080602001828103825260298152602001806143cf6029913960400191505060405180910390fd5b6004546001600160a01b0316600090815260076020526040812082916113cd611ef9565b6001600160a01b03166001600160a01b0316815260200190815260200160002054101561142f576040805162461bcd60e51b815260206004820181905260248201526000805160206143af833981519152604482015290519081900360640190fd5b6004546001600160a01b0316600090815260076020526040812061145891839190611192611ef9565b6004546001600160a01b031660009081526007602052604081209061147b611ef9565b6001600160a01b0390811682526020820192909252604001600020919091556004541663a9059cbb61120b611ef9565b6003546001600160a01b031681565b60106020526000908152604090205481565b6114d4611f08565b61150f5760405162461bcd60e51b81526004018080602001828103825260298152602001806143cf6029913960400191505060405180910390fd5b600080546040516001600160a01b03909116907f8be0079c531659141344cd1fd0a4f28419497f9722a3daafe3b4186f6b6457e0908390a3600080546001600160a01b0319169055565b611561611f08565b61159c5760405162461bcd60e51b81526004018080602001828103825260298152602001806143cf6029913960400191505060405180910390fd5b604080516370a0823160e01b8152336004820152905183916001600160a01b038616916370a0823191602480820192602092909190829003018186803b1580156115e557600080fd5b505afa1580156115f9573d6000803e3d6000fd5b505050506040513d602081101561160f57600080fd5b5051101561164e5760405162461bcd60e51b81526004018080602001828103825260278152602001806144fd6027913960400191505060405180910390fd5b826001600160a01b031663ac86bce16040518163ffffffff1660e01b815260040160206040518083038186803b15801561168757600080fd5b505afa15801561169b573d6000803e3d6000fd5b505050506040513d60208110156116b157600080fd5b5051156116ef5760405162461bcd60e51b81526004018080602001828103825260498152602001806143f86049913960600191505060405180910390fd5b600061170d8361096784670de0b6b3a764000063ffffffff6133e716565b6001600160a01b0385166000908152601760209081526040808320548352600b909152902060060154909150611757908590339061175290879063ffffffff613c9116565b613d83565b6001600160a01b038416600090815260176020908152604080832080548452600b9092528083206003018690558154835280832060040185905581548352808320600501849055815483528083206006908101879055825484528184206007018690558254845281842042600c90910155915483529091200154611810906117e0908590613c91565b6001600160a01b03861660009081526007602090815260408083203384529091529020549063ffffffff613ddc16565b6001600160a01b03851660008181526007602090815260408083203384528252918290209390935580519182529181018590528082018490526060810183905242608082015290517f655671079493fa2ffb38e7aa405b2e78b5d7fd641fdf541a6cd862f33e98ef149181900360a00190a16001600160a01b0384166000908152601060205260409020548111156118be576001600160a01b03841660009081526010602052604090208190555b50505050565b33600090815260086020526040902054811115611916576040805162461bcd60e51b815260206004820181905260248201526000805160206143af833981519152604482015290519081900360640190fd5b6018548110156119575760405162461bcd60e51b815260040180806020018281038252602581526020018061457a6025913960400191505060405180910390fd5b33600090815260086020526040902054611977908263ffffffff613c9116565b33600081815260086020908152604080832094909455600354845163a9059cbb60e01b815260048101949094526024840186905293516001600160a01b039094169363a9059cbb93604480820194918390030190829087803b15801561125b57600080fd5b6119e4611f08565b611a1f5760405162461bcd60e51b81526004018080602001828103825260298152602001806143cf6029913960400191505060405180910390fd5b600193909355600291909155600e805460ff191660ff9092169190911790556402540be40002601855565b60015481565b6004546001600160a01b031681565b60185481565b611a6d611f08565b611aa85760405162461bcd60e51b81526004018080602001828103825260298152602001806143cf6029913960400191505060405180910390fd5b604080516370a0823160e01b8152336004820152905183916001600160a01b038616916370a0823191602480820192602092909190829003018186803b158015611af157600080fd5b505afa158015611b05573d6000803e3d6000fd5b505050506040513d6020811015611b1b57600080fd5b50511015611b5a5760405162461bcd60e51b81526004018080602001828103825260278152602001806144fd6027913960400191505060405180910390fd5b826001600160a01b031663ac86bce16040518163ffffffff1660e01b815260040160206040518083038186803b158015611b9357600080fd5b505afa158015611ba7573d6000803e3d6000fd5b505050506040513d6020811015611bbd57600080fd5b505115611bfb5760405162461bcd60e51b81526004018080602001828103825260498152602001806143f86049913960600191505060405180910390fd5b826001600160a01b031663ef2cd7c66040518163ffffffff1660e01b8152600401600060405180830381600087803b158015611c3657600080fd5b505af1158015611c4a573d6000803e3d6000fd5b505050506000611c6f83610967670de0b6b3a7640000856133e790919063ffffffff16565b9050611c7c843385613d83565b604051806101c00160405280600d548152602001336001600160a01b03168152602001856001600160a01b031681526020018481526020018381526020018281526020018481526020018381526020016000815260200160008152602001600015158152602001600154815260200142815260200160006003811115611cfe57fe5b9052600d80546000908152600b60208181526040928390208551815590850151600180830180546001600160a01b039384166001600160a01b0319918216179091559487015160028401805491909316951694909417905560608501516003808301919091556080860151600483015560a0860151600583015560c0860151600683015560e0860151600783015561010086015160088301556101208601516009830155610140860151600a8301805491151560ff1992831617905561016087015193830193909355610180860151600c8301556101a0860151948201805492959490939290921691908490811115611df357fe5b021790555050600d546001600160a01b0386166000908152601760209081526040808320939093556007815282822033835290522054611e3a91508463ffffffff613ddc16565b6001600160a01b0385166000818152600760209081526040808320338085529083529281902094909455600d5484519081529081019190915280830191909152606081018590526080810184905260a081018390524260c082015290517ff228d323e5c900847ce107cbbf6184c0813d4edafec11f2aaf5b3c6bea4cdba99181900360e00190a1600d54611ed590600163ffffffff613ddc16565b600d556001600160a01b039093166000908152601060205260409020929092555050565b6000546001600160a01b031690565b6000546001600160a01b0316331490565b33600090815260096020526040902054811115611f6b576040805162461bcd60e51b815260206004820181905260248201526000805160206143af833981519152604482015290519081900360640190fd5b612003670de0b6b3a7640000610967600560009054906101000a90046001600160a01b03166001600160a01b031663e54f08806040518163ffffffff1660e01b815260040160206040518083038186803b158015611fc857600080fd5b505afa158015611fdc573d6000803e3d6000fd5b505050506040513d6020811015611ff257600080fd5b50516018549063ffffffff6133e716565b8110156120415760405162461bcd60e51b815260040180806020018281038252602581526020018061457a6025913960400191505060405180910390fd5b33600090815260096020526040902054612061908263ffffffff613c9116565b3360008181526009602090815260408083209490945560048054855163a9059cbb60e01b8152918201949094526024810186905293516001600160a01b039093169363a9059cbb9360448083019491928390030190829087803b15801561125b57600080fd5b6120cf611f08565b61210a5760405162461bcd60e51b81526004018080602001828103825260298152602001806143cf6029913960400191505060405180910390fd5b600480546001600160a01b039586166001600160a01b0319918216179091556003805494861694821694909417909355600580549285169284169290921790915560068054919093169116179055565b6000818152600a60205260409020600101546001600160a01b031633146121b25760405162461bcd60e51b81526004018080602001828103825260308152602001806145c86030913960400191505060405180910390fd5b6000818152600a60205260409020600881015460078201546001909201549101906121e6906001600160a01b031682613cd3565b6000828152600a602052604090206009810154600190910154612212906001600160a01b031682613d29565b6000838152600a602090815260408083206007808201546003546001600160a01b039081168752918552838620600190930154909116855292529091205461225f9163ffffffff613c9116565b600380546001600160a01b039081166000908152600760209081526040808320898452600a8084528285206001810180548816875292855283862098909855938a9052928252600d8601805460ff191690951790945590546002909401548351888152948316918501919091521682820152426060830152517fac163ee11256420e1edd28dd50b31ce7acd675b030960b0f560fde30a2eabb399181900360800190a1505050565b600760209081526000928352604080842090915290825290205481565b600c5481565b60096020526000908152604090205481565b846001600160a01b031663ac86bce16040518163ffffffff1660e01b815260040160206040518083038186803b15801561237557600080fd5b505afa158015612389573d6000803e3d6000fd5b505050506040513d602081101561239f57600080fd5b50516123dc5760405162461bcd60e51b815260040180806020018281038252602b815260200180614441602b913960400191505060405180910390fd5b60006123fa8561096786670de0b6b3a764000063ffffffff6133e716565b9050600080831561250b57600554604080516301ca9e1160e71b815290516000926001600160a01b03169163e54f0880916004808301926020929190829003018186803b15801561244a57600080fd5b505afa15801561245e573d6000803e3d6000fd5b505050506040513d602081101561247457600080fd5b50516001549091506124ad906ec097ce7bc90715b34b9f1000000000906109679060029082908690610a23908e9063ffffffff6133e716565b86146124ee576040805162461bcd60e51b8152602060048201526015602482015260008051602061446c833981519152604482015290519081900360640190fd5b6124f83387613489565b6125023388613513565b8591505061258a565b61252c670de0b6b3a7640000610967600154896133e790919063ffffffff16565b851461256d576040805162461bcd60e51b8152602060048201526015602482015260008051602061446c833981519152604482015290519081900360640190fd5b61258633612581888863ffffffff613ddc16565b613513565b8491505b604051806101c00160405280600c548152602001336001600160a01b03168152602001896001600160a01b03168152602001888152602001878152602001848152602001888152602001878152602001838152602001828152602001851515815260200160015481526020014281526020016000600381111561260957fe5b9052600c80546000908152600a60208181526040928390208551815590850151600180830180546001600160a01b039384166001600160a01b0319918216179091559487015160028401805491909316951694909417905560608501516003808301919091556080860151600483015560a0860151600583015560c0860151600683015560e0860151600783015561010086015160088301556101208601516009830155610140860151928201805493151560ff19948516179055610160860151600b830155610180860151948201949094556101a0850151600d8201805492959194909392909216919084908111156126ff57fe5b0217905550506003546001600160a01b0316600090815260076020908152604080832033845290915290205461273c91508763ffffffff613ddc16565b6003546001600160a01b039081166000908152600760209081526040808320338085529083529281902094909455600c54845190815290810191909152908a1681830152606081018990526080810188905260a0810184905260c0810183905260e081018590524261010082015290517f7605d95596476e976e4d4397ab97a3a3294452ecccdfe7c505ad7cd1cbbbb7ca918190036101200190a1600c546127eb90600163ffffffff613ddc16565b600c555050505050505050565b6000848152600a60205260409020600101546001600160a01b03163314156128515760405162461bcd60e51b81526004018080602001828103825260298152602001806145246029913960400191505060405180910390fd5b600c54841061289e576040805162461bcd60e51b815260206004820152601460248201527313dc99195c88191bd95cc81b9bdd08195e1a5cdd60621b604482015290519081900360640190fd5b60026000858152600a60205260409020600d015460ff1660038111156128c057fe5b141580156128ee575060036000858152600a60205260409020600d015460ff1660038111156128eb57fe5b14155b6129295760405162461bcd60e51b81526004018080602001828103825260228152602001806144ad6022913960400191505060405180910390fd5b60008311801561294a57506000848152600a60205260409020600601548311155b6129855760405162461bcd60e51b815260040180806020018281038252602e8152602001806144cf602e913960400191505060405180910390fd5b6000848152600a6020526040812060050154819081906129ba90670de0b6b3a76400009061096790899063ffffffff6133e716565b90508315612abe57600554604080516301ca9e1160e71b815290516000926001600160a01b03169163e54f0880916004808301926020929190829003018186803b158015612a0757600080fd5b505afa158015612a1b573d6000803e3d6000fd5b505050506040513d6020811015612a3157600080fd5b5051600154909150612a6a906ec097ce7bc90715b34b9f1000000000906109679060029082908690610a2390899063ffffffff6133e716565b8614612aab576040805162461bcd60e51b8152602060048201526015602482015260008051602061446c833981519152604482015290519081900360640190fd5b612ab53387613489565b85925050612b2e565b612adf670de0b6b3a7640000610967600154846133e790919063ffffffff16565b8514612b20576040805162461bcd60e51b8152602060048201526015602482015260008051602061446c833981519152604482015290519081900360640190fd5b612b2a3386613513565b8492505b6000878152600a602052604090206002810154600190910154612b60916001600160a01b039081169133911689613e36565b612b6a3382613cd3565b612b7687878486613ec3565b6000878152600a6020526040902060060154612b98908763ffffffff613c9116565b6000888152600a60205260409020600681019190915560070154612bc2908263ffffffff613c9116565b6000888152600a602090815260408083206007808201959095556003546001600160a01b03908116855294835281842060019091015490941683529290522054612c12908263ffffffff613c9116565b6003546001600160a01b0390811660009081526007602090815260408083208c8452600a8084528285206001810154909616855290835290832094909455908a9052919091526006015415612cf4576000878152600a6020908152604091829020600d8101805460ff19166001179055805460058201546006830154600790930154855192835233948301949094528185018b90526060820152608081019190915260a08101919091524260c082015290517ff189e1e8638a97904b465af4cf8de1d26fdb845ca6d46e34a9ebaf139e239ad89160e0908290030190a1612d6c565b6000878152600a6020908152604091829020600d8101805460ff19166002179055805460059091015483519182523392820192909252808301899052606081019190915242608082015290517fda485001ba5b88dc00e5ca6ed535db2745a08787a1b9d454c02a6dc2a47492c79160a0908290030190a15b6000878152600a6020908152604080832060058101546002918201546001600160a01b039081168652600f8552838620919091559a84526019835281842082516080810184523381528085019b8c529283019586524260608401908152815460018082018455928752949095209251600490940290920180546001600160a01b03191693909b16929092178a55975197890197909755905195870195909555505091516003909301929092555050565b604080516370a0823160e01b8152336004820152905185916001600160a01b038816916370a0823191602480820192602092909190829003018186803b158015612e6557600080fd5b505afa158015612e79573d6000803e3d6000fd5b505050506040513d6020811015612e8f57600080fd5b50511015612ece5760405162461bcd60e51b81526004018080602001828103825260278152602001806144fd6027913960400191505060405180910390fd5b846001600160a01b031663ac86bce16040518163ffffffff1660e01b815260040160206040518083038186803b158015612f0757600080fd5b505afa158015612f1b573d6000803e3d6000fd5b505050506040513d6020811015612f3157600080fd5b5051612f6e5760405162461bcd60e51b815260040180806020018281038252602b815260200180614441602b913960400191505060405180910390fd5b6000612f8c8561096786670de0b6b3a764000063ffffffff6133e716565b9050600080831561309357600554604080516301ca9e1160e71b815290516000926001600160a01b03169163e54f0880916004808301926020929190829003018186803b158015612fdc57600080fd5b505afa158015612ff0573d6000803e3d6000fd5b505050506040513d602081101561300657600080fd5b505160015490915061303f906ec097ce7bc90715b34b9f1000000000906109679060029082908690610a23908e9063ffffffff6133e716565b8614613080576040805162461bcd60e51b8152602060048201526015602482015260008051602061446c833981519152604482015290519081900360640190fd5b61308a3387613489565b85915050613103565b6130b4670de0b6b3a7640000610967600154896133e790919063ffffffff16565b85146130f5576040805162461bcd60e51b8152602060048201526015602482015260008051602061446c833981519152604482015290519081900360640190fd5b6130ff3387613513565b8491505b61310e883389613d83565b604051806101c00160405280600d548152602001336001600160a01b03168152602001896001600160a01b03168152602001888152602001878152602001848152602001888152602001878152602001838152602001828152602001851515815260200160015481526020014281526020016000600381111561318d57fe5b9052600d80546000908152600b60208181526040928390208551815590850151600180830180546001600160a01b039384166001600160a01b0319918216179091559487015160028401805491909316951694909417905560608501516003808301919091556080860151600483015560a0860151600583015560c0860151600683015560e0860151600783015561010086015160088301556101208601516009830155610140860151600a8301805491151560ff1992831617905561016087015193830193909355610180860151600c8301556101a086015194820180549295949093929092169190849081111561328257fe5b021790555050506001600160a01b03881660009081526007602090815260408083203384529091529020546132bd908863ffffffff613ddc16565b6001600160a01b0389166000818152600760209081526040808320338085529083529281902094909455600d5484519081529081019190915280830191909152606081018990526080810188905260a081018590524260c082015290517f9fc86657b1d3b131b90b2bb031d623fda8b628d1944816c58c49679e30c9fdfe9181900360e00190a1600d5461335890600163ffffffff613ddc16565b600d555050505050505050565b61336d611f08565b6133a85760405162461bcd60e51b81526004018080602001828103825260298152602001806143cf6029913960400191505060405180910390fd5b6133b181614212565b50565b600d5481565b6001600160a01b038083166000908152600760209081526040808320938516835292905220545b92915050565b6000826133f6575060006133e1565b8282028284828161340357fe5b04146134405760405162461bcd60e51b815260040180806020018281038252602181526020018061448c6021913960400191505060405180910390fd5b9392505050565b600061344083836040518060400160405280601a81526020017f536166654d6174683a206469766973696f6e206279207a65726f0000000000008152506142b2565b60048054604080516323b872dd60e01b81526001600160a01b038681169482019490945230602482015260448101859052905192909116916323b872dd916064808201926020929091908290030181600087803b1580156134e957600080fd5b505af11580156134fd573d6000803e3d6000fd5b505050506040513d60208110156118be57600080fd5b60035460408051636eb1769f60e11b81526001600160a01b03858116600483015230602483015291518493929092169163dd62ed3e91604480820192602092909190829003018186803b15801561356957600080fd5b505afa15801561357d573d6000803e3d6000fd5b505050506040513d602081101561359357600080fd5b505110156135d25760405162461bcd60e51b815260040180806020018281038252602981526020018061459f6029913960400191505060405180910390fd5b600354604080516323b872dd60e01b81526001600160a01b03858116600483015230602483015260448201859052915191909216916323b872dd9160648083019260209291908290030181600087803b1580156134e957600080fd5b60035460408051636eb1769f60e11b81526001600160a01b03868116600483015230602483015291518493929092169163dd62ed3e91604480820192602092909190829003018186803b15801561368457600080fd5b505afa158015613698573d6000803e3d6000fd5b505050506040513d60208110156136ae57600080fd5b505110156136ed5760405162461bcd60e51b815260040180806020018281038252602981526020018061459f6029913960400191505060405180910390fd5b600354604080516323b872dd60e01b81526001600160a01b038681166004830152858116602483015260448201859052915191909216916323b872dd9160648083019260209291908290030181600087803b15801561374b57600080fd5b505af115801561375f573d6000803e3d6000fd5b505050506040513d602081101561377557600080fd5b5050505050565b826001600160a01b031663a9059cbb83836040518363ffffffff1660e01b815260040180836001600160a01b03166001600160a01b0316815260200182815260200192505050602060405180830381600087803b15801561374b57600080fd5b6000848152600b60205260408120600601546137ff90859063ffffffff61344716565b6000868152600b602052604081206008015491925090613825908363ffffffff6133e716565b6000878152600b60205260408120600901549192509061384b908463ffffffff6133e716565b6006546000898152600b6020908152604080832060020154815163af640d0f60e01b8152915195965092946001600160a01b0394851694636352211e94169263af640d0f9260048082019391829003018186803b1580156138ab57600080fd5b505afa1580156138bf573d6000803e3d6000fd5b505050506040513d60208110156138d557600080fd5b5051604080516001600160e01b031960e085901b1681526004810192909252516024808301926020929190829003018186803b15801561391457600080fd5b505afa158015613928573d6000803e3d6000fd5b505050506040513d602081101561393e57600080fd5b505160025490915060009061396890670de0b6b3a76400009061096790869063ffffffff6133e716565b9050600061398d670de0b6b3a7640000610967600254886133e790919063ffffffff16565b60008b8152600b60205260409020600a015490915060ff1615613a8d576139ef6139bd858463ffffffff613c9116565b600960006139c9611ef9565b6001600160a01b031681526020810191909152604001600020549063ffffffff613ddc16565b600960006139fb611ef9565b6001600160a01b0390811682526020808301939093526040918201600090812094909455861683526009909152902054613a3b908363ffffffff613ddc16565b6001600160a01b0384166000908152600960208181526040808420949094558d8352600b90529190200154613a76908563ffffffff613c9116565b60008b8152600b6020526040902060090155613b46565b613aac613aa0868363ffffffff613c9116565b600860006139c9611ef9565b60086000613ab8611ef9565b6001600160a01b0390811682526020808301939093526040918201600090812094909455861683526008909152902054613af8908263ffffffff613ddc16565b6001600160a01b0384166000908152600860208181526040808420949094558d8352600b90529190200154613b33908663ffffffff613c9116565b60008b8152600b60205260409020600801555b6000613b69670de0b6b3a76400006109676002548c6133e790919063ffffffff16565b90506000613b8e670de0b6b3a76400006109676002548c6133e790919063ffffffff16565b9050613ba36139bd8b8463ffffffff613c9116565b60096000613baf611ef9565b6001600160a01b0390811682526020808301939093526040918201600090812094909455881683526009909152902054613bef908363ffffffff613ddc16565b6001600160a01b038616600090815260096020526040902055613c1b613aa08a8363ffffffff613c9116565b60086000613c27611ef9565b6001600160a01b0390811682526020808301939093526040918201600090812094909455881683526008909152902054613c67908263ffffffff613ddc16565b6001600160a01b039095166000908152600860205260409020949094555050505050505050505050565b600061344083836040518060400160405280601e81526020017f536166654d6174683a207375627472616374696f6e206f766572666c6f770000815250614354565b6003546040805163a9059cbb60e01b81526001600160a01b038581166004830152602482018590529151919092169163a9059cbb9160448083019260209291908290030181600087803b1580156134e957600080fd5b600480546040805163a9059cbb60e01b81526001600160a01b0386811694820194909452602481018590529051929091169163a9059cbb916044808201926020929091908290030181600087803b1580156134e957600080fd5b604080516323b872dd60e01b81526001600160a01b038481166004830152306024830152604482018490529151918516916323b872dd916064808201926020929091908290030181600087803b15801561374b57600080fd5b600082820183811015613440576040805162461bcd60e51b815260206004820152601b60248201527f536166654d6174683a206164646974696f6e206f766572666c6f770000000000604482015290519081900360640190fd5b604080516323b872dd60e01b81526001600160a01b0385811660048301528481166024830152604482018490529151918616916323b872dd916064808201926020929091908290030181600087803b158015613e9157600080fd5b505af1158015613ea5573d6000803e3d6000fd5b505050506040513d6020811015613ebb57600080fd5b505050505050565b6000848152600a6020526040812060060154613ee690859063ffffffff61344716565b6000868152600a602052604081206008015491925090613f0c908363ffffffff6133e716565b6000878152600a602052604081206009015491925090613f32908463ffffffff6133e716565b6006546000898152600a6020908152604080832060020154815163af640d0f60e01b8152915195965092946001600160a01b0394851694636352211e94169263af640d0f9260048082019391829003018186803b158015613f9257600080fd5b505afa158015613fa6573d6000803e3d6000fd5b505050506040513d6020811015613fbc57600080fd5b5051604080516001600160e01b031960e085901b1681526004810192909252516024808301926020929190829003018186803b158015613ffb57600080fd5b505afa15801561400f573d6000803e3d6000fd5b505050506040513d602081101561402557600080fd5b505160025490915060009061404f90670de0b6b3a76400009061096790869063ffffffff6133e716565b90506000614074670de0b6b3a7640000610967600254886133e790919063ffffffff16565b60008b8152600a60208190526040909120015490915060ff1615614143576140a56139bd858463ffffffff613c9116565b600960006140b1611ef9565b6001600160a01b03908116825260208083019390935260409182016000908120949094558616835260099091529020546140f1908363ffffffff613ddc16565b6001600160a01b0384166000908152600960208181526040808420949094558d8352600a9052919020015461412c908563ffffffff613c9116565b60008b8152600a6020526040902060090155613b46565b614156613aa0868363ffffffff613c9116565b60086000614162611ef9565b6001600160a01b03908116825260208083019390935260409182016000908120949094558616835260089091529020546141a2908263ffffffff613ddc16565b6001600160a01b0384166000908152600860208181526040808420949094558d8352600a905291902001546141dd908663ffffffff613c9116565b60008b8152600a60205260409020600801556000613b69670de0b6b3a76400006109676002548c6133e790919063ffffffff16565b6001600160a01b0381166142575760405162461bcd60e51b815260040180806020018281038252602d81526020018061454d602d913960400191505060405180910390fd5b600080546040516001600160a01b03808516939216917f8be0079c531659141344cd1fd0a4f28419497f9722a3daafe3b4186f6b6457e091a3600080546001600160a01b0319166001600160a01b0392909216919091179055565b6000818361433e5760405162461bcd60e51b81526004018080602001828103825283818151815260200191508051906020019080838360005b838110156143035781810151838201526020016142eb565b50505050905090810190601f1680156143305780820380516001836020036101000a031916815260200191505b509250505060405180910390fd5b50600083858161434a57fe5b0495945050505050565b600081848411156143a65760405162461bcd60e51b81526020600482018181528351602484015283519092839260449091019190850190808383600083156143035781810151838201526020016142eb565b50505090039056fe4e6f7420656e6f7567682066756e647320696e207468652070726f746f636f6c4f4e4c5920434f4e5452414354204f574e45522043414e20504552464f524d204f5045524154494f4e496e697469616c2053656c6c206f726465722063616e6e6f7420626520706c61636564207768656e20746f6b656e20616c72656164792074726164656420696e2065786368616e676554726164696e67206f6620746869732043656c656272697479206173736574206e6f7420616c6c6f776564496e636f72726563742066656520656e74657265640000000000000000000000536166654d6174683a206d756c7469706c69636174696f6e206f766572666c6f774f7264657220686173206265656e2046696c6c6564206f722043616e63656c6c65644e6f7420656e6f75676820746f6b656e73206c65667420696e20746865206f7264657220746f20657865637574654e6f7420656e6f75676820746f6b656e2062616c616e636520746f20706c616365206f7264657253616d6520757365722063616e6e6f7420706c61636520616e642066696c6c20746865206f7264657241444d494e20524f4c452043414e4e4f542042452041535349474e454420544f20307830302041444452455353416d6f756e74206c657373207468616e206d696e207769746864726177616c206c696d69744e6f7420656e6f75676820616c6c6f636174696f6e20696e204d61746963205745544820746f6b656e4f6e6c792074686520757365722077686f20706c6163656420746865206f726465722063616e2063616e63656c206974a265627a7a72315820d83d93711fcb52d629daf288b405272056f944874e048a363e3e453a12e589a464736f6c63430005100032",
  "source": "pragma solidity =0.5.16;\nimport \"../_supportingContracts/SafeMath.sol\";\nimport \"../_supportingContracts/Ownable.sol\";\nimport \"../celebrity-contracts/CelebrityERC20Token.sol\";\nimport \"../celebrity-contracts/CelebrityERC721Token.sol\";\nimport \"../_supportingContracts/MaticWETH.sol\";\nimport \"../FANC-token-contracts/FANCTOKEN.sol\";\nimport \"./Oracle.sol\";\n\ncontract CelebrityExchange is Ownable {\n    using SafeMath for uint256;\n    uint256 public feePercent;\n    uint256 public allocationToNFTOwner;\n    address public WETHERADDRESS; //store Ether in tokens mapping with blank address\n    address public FANCTOKENAddress; //store FANC Tokens in tokens mapping with FANC Token address\n    address payable public ORACLEADDRESS;\n    address public CelebrityOwnerTokenAddress;\n    mapping(address => mapping(address => uint256))\n        public tokensAndEtherInExchange;\n    mapping(address => uint256) public feeCollectedInEther;\n    mapping(address => uint256) public feeCollectedInFANC;\n    mapping(uint256 => _BuyOrder) public buyOrders;\n    mapping(uint256 => _SellOrder) public sellOrders;\n    uint256 public buyOrderCount;\n    uint256 public sellOrderCount;\n    uint8 private sellPriceSpread;\n    mapping(address => uint256) public latestPrice;\n    mapping(address => uint256) public currentHighestSellOrderPrice;\n    uint256[3] internal highestThreeBuyOrderQuantities;\n    uint256[3] internal highestThreeBuyOrderPrices;\n    mapping(address => uint256) private initialSellOrder;\n    uint256 public minWithdrawalInEtherAllowed;\n\n    constructor(\n        uint256 _feePercent,\n        address _FANCTokenAddress,\n        address _WETHERAddress,\n        address _CelebrityOwnerTokenAddress,\n        address payable _oracleAddress,\n        uint256 _allocationToNFTOwner,\n        uint8 _sellPriceSpread,\n        uint256 _minWithdrawalInEtherAllowed // Protocol multiplies the argument by 10**10\n    ) public {\n        feePercent = _feePercent;\n        allocationToNFTOwner = _allocationToNFTOwner;\n        FANCTOKENAddress = _FANCTokenAddress;\n        WETHERADDRESS = _WETHERAddress;\n        ORACLEADDRESS = _oracleAddress;\n        CelebrityOwnerTokenAddress = _CelebrityOwnerTokenAddress;\n        sellPriceSpread = _sellPriceSpread;\n        minWithdrawalInEtherAllowed = _minWithdrawalInEtherAllowed * (10**10);\n    }\n\n    function() external {\n        revert();\n    }\n\n    event BuyOrderPlaced(\n        uint256 id,\n        address user,\n        address celebrityToken,\n        uint256 tokenBuy,\n        uint256 amountSend,\n        uint256 feesInEther,\n        uint256 feesInFANC,\n        uint256 price,\n        uint256 timestamp\n    );\n    event SellOrderPlaced(\n        uint256 id,\n        address user,\n        address celebrityToken,\n        uint256 tokenSell,\n        uint256 amountReceive,\n        uint256 price,\n        uint256 timestamp\n    );\n    event InitialSellOrderPlaced(\n        uint256 id,\n        address user,\n        address celebrityToken,\n        uint256 tokenSell,\n        uint256 amountReceive,\n        uint256 price,\n        uint256 timestamp\n    );\n    event InitialSellOrderUpdated(\n        address celebrityToken,\n        uint256 tokenSell,\n        uint256 amountReceive,\n        uint256 price,\n        uint256 timestamp\n    );\n    event BuyOrderCancelled(\n        uint256 id,\n        address user,\n        address celebrityToken,\n        uint256 timestamp\n    );\n    event SellOrderCancelled(\n        uint256 id,\n        address user,\n        address celebrityToken,\n        uint256 timestamp\n    );\n    event BuyOrderPartiallyFilled(\n        uint256 id,\n        address executor,\n        uint256 numberOfTokens,\n        uint256 price,\n        uint256 tokensLeftToBuy,\n        uint256 etherAmountLeft,\n        uint256 timestamp\n    );\n    event SellOrderPartiallyFilled(\n        uint256 id,\n        address executor,\n        uint256 numberOfTokens,\n        uint256 price,\n        uint256 tokensLeftToSell,\n        uint256 etherAmountLeft,\n        uint256 timestamp\n    );\n    event BuyOrderFilled(\n        uint256 id,\n        address executor,\n        uint256 numberOfTokens,\n        uint256 price,\n        uint256 timestamp\n    );\n    event SellOrderFilled(\n        uint256 id,\n        address executor,\n        uint256 numberOfTokens,\n        uint256 price,\n        uint256 timestamp\n    );\n\n    enum OrderStatus {OPEN, PARTIALLYFILLED, FILLED, CANCELLED}\n    //a way to model Order - Struct\n    struct _OrderFills {\n        address user;\n        uint256 tokensFilled;\n        uint256 amount;\n        uint256 timestamp;\n    }\n    mapping(uint256 => _OrderFills[]) public buyOrderExecutedTrades;\n    mapping(uint256 => _OrderFills[]) public sellOrderExecutedTrades;\n    struct _BuyOrder {\n        uint256 id;\n        address user;\n        address celebrityToken;\n        uint256 tokenBuy;\n        uint256 amountSend;\n        uint256 buyPrice;\n        uint256 tokensLeftToBuy;\n        uint256 etherAmountLeft;\n        uint256 feeAllocatedAsEther;\n        uint256 feeAllocatedAsFANC;\n        bool isFeePaidUsingFANC;\n        uint256 currentFeePercent;\n        uint256 timestamp;\n        OrderStatus status;\n    }\n    struct _SellOrder {\n        uint256 id;\n        address payable user;\n        address celebrityToken;\n        uint256 tokenSell;\n        uint256 amountReceive;\n        uint256 sellPrice;\n        uint256 tokensLeftToSell;\n        uint256 etherAmountLeft;\n        uint256 feeAllocatedAsEther;\n        uint256 feeAllocatedAsFANC;\n        bool isFeePaidUsingFANC;\n        uint256 currentFeePercent;\n        uint256 timestamp;\n        OrderStatus status;\n    }\n\n    function changeTokenAddress(\n        address _FANCTokenAddress,\n        address _WETHERAddress,\n        address payable _oracleAddress,\n        address _CelebrityOwnerTokenAddress\n    ) public onlyOwner {\n        FANCTOKENAddress = _FANCTokenAddress;\n        WETHERADDRESS = _WETHERAddress;\n        ORACLEADDRESS = _oracleAddress;\n        CelebrityOwnerTokenAddress = _CelebrityOwnerTokenAddress;\n    }\n\n    function changeFeePercent(\n        uint256 _feePercent,\n        uint256 _allocationToNFTOwner,\n        uint8 _sellPriceSpread,\n        uint256 _minWithdrawalInEtherAllowed10Power6 // Protocol multiplies the argument by 10**10\n    ) public onlyOwner {\n        feePercent = _feePercent;\n        allocationToNFTOwner = _allocationToNFTOwner;\n        sellPriceSpread = _sellPriceSpread;\n        minWithdrawalInEtherAllowed =\n            _minWithdrawalInEtherAllowed10Power6 *\n            (10**10);\n    }\n\n    function placeBuyOrder(\n        address _celebrityToken,\n        uint256 _tokenBuy,\n        uint256 _amountSend,\n        uint256 _fees,\n        bool _usingFANCTokenForFees\n    ) public {\n        require(\n            CelebrityToken(_celebrityToken)\n                .isTradingAllowedOnCelebrityExchange(),\n            \"Trading of this Celebrity asset not allowed\"\n        );\n        uint256 askPrice = _amountSend.mul(10**18).div(_tokenBuy);\n        uint256 tempFeeAsEther = 0;\n        uint256 tempFeeAsFANC = 0;\n        if (_usingFANCTokenForFees) {\n            uint256 FANCTokenPriceInEther =\n                Oracle(ORACLEADDRESS).getAssetPrice();\n            require(\n                _fees ==\n                    _amountSend\n                        .mul(feePercent)\n                        .mul(FANCTokenPriceInEther)\n                        .div(2)\n                        .div(10**36), // Due to multiplication by 10**18 twice in feepercent and fantokenprice\n                \"Incorrect fee entered\"\n            );\n            _getFANCFrom(msg.sender, _fees);\n            _getEtherFrom(msg.sender, _amountSend);\n            tempFeeAsFANC = _fees;\n        } else {\n            require(\n                _fees == (_amountSend.mul(feePercent).div(10**18)),\n                \"Incorrect fee entered\"\n            );\n            _getEtherFrom(msg.sender, _amountSend.add(_fees));\n            tempFeeAsEther = _fees;\n        }\n        buyOrders[buyOrderCount] = _BuyOrder(\n            buyOrderCount,\n            msg.sender,\n            _celebrityToken,\n            _tokenBuy,\n            _amountSend,\n            askPrice,\n            _tokenBuy,\n            _amountSend,\n            tempFeeAsEther,\n            tempFeeAsFANC,\n            _usingFANCTokenForFees,\n            feePercent,\n            block.timestamp,\n            OrderStatus.OPEN\n        );\n\n        tokensAndEtherInExchange[WETHERADDRESS][\n            msg.sender\n        ] = tokensAndEtherInExchange[WETHERADDRESS][msg.sender].add(\n            _amountSend\n        );\n        emit BuyOrderPlaced(\n            buyOrderCount,\n            msg.sender,\n            _celebrityToken,\n            _tokenBuy,\n            _amountSend,\n            tempFeeAsEther,\n            tempFeeAsFANC,\n            askPrice,\n            block.timestamp\n        );\n        buyOrderCount = buyOrderCount.add(1);\n        // _updateInitialSellOrderOnBuyOrderChange(\n        // \t_celebrityToken,\n        // \taskPrice,\n        // \t_tokenBuy\n        // );\n    }\n\n    // function _updateInitialSellOrderOnSellOrderChange(\n    // \taddress _celebrityToken,\n    // \tuint256 bidPrice\n    // ) internal {\n    // \tif (\n    // \t\tbidPrice > currentHighestSellOrderPrice[_celebrityToken] &&\n    // \t\tbidPrice <=\n    // \t\tcurrentHighestSellOrderPrice[_celebrityToken].add(\n    // \t\t\t(\n    // \t\t\t\tcurrentHighestSellOrderPrice[_celebrityToken]\n    // \t\t\t\t\t.mul(sellPriceSpread)\n    // \t\t\t\t\t.div(100 * 10**18)\n    // \t\t\t)\n    // \t\t)\n    // \t) {\n    // \t\t// update existing admin order\n    // \t\t// update price and quantity\n    // \t\tcurrentHighestSellOrderPrice[_celebrityToken] = bidPrice;\n\n    // \t\tuint256 updatedPrice = bidPrice;\n    // \t\tuint256 newEtherToBeSent =\n    // \t\t\tsellOrders[initialSellOrder[_celebrityToken]]\n    // \t\t\t\t.tokensLeftToSell\n    // \t\t\t\t.mul(10**18)\n    // \t\t\t\t.div(updatedPrice);\n    // \t\tsellOrders[initialSellOrder[_celebrityToken]].amountReceive = sellOrders[\n    // \t\t\tinitialSellOrder[_celebrityToken]\n    // \t\t]\n    // \t\t\t.amountReceive\n    // \t\t\t.add(newEtherToBeSent);\n    // \t\tsellOrders[initialSellOrder[_celebrityToken]]\n    // \t\t\t.etherAmountLeft = sellOrders[initialSellOrder[_celebrityToken]]\n    // \t\t\t.etherAmountLeft\n    // \t\t\t.add(newEtherToBeSent);\n    // \t}\n    // }\n\n    // function _updateInitialSellOrderOnBuyOrderChange(\n    // \taddress _celebrityToken,\n    // \tuint256 askPrice,\n    // \tuint256 _tokenBuy\n    // ) internal {\n    // \tif (askPrice >= highestThreeBuyOrderPrices[0]) {\n    // \t\thighestThreeBuyOrderPrices[2] = highestThreeBuyOrderPrices[1];\n    // \t\thighestThreeBuyOrderPrices[1] = highestThreeBuyOrderPrices[0];\n    // \t\thighestThreeBuyOrderPrices[0] = askPrice;\n    // \t\t// update equivalent quantity\n    // \t\thighestThreeBuyOrderQuantities[2] = highestThreeBuyOrderQuantities[1];\n    // \t\thighestThreeBuyOrderQuantities[1] = highestThreeBuyOrderQuantities[0];\n    // \t\thighestThreeBuyOrderQuantities[0] = _tokenBuy;\n    // \t} else if (askPrice >= highestThreeBuyOrderPrices[1]) {\n    // \t\thighestThreeBuyOrderPrices[2] = highestThreeBuyOrderPrices[1];\n    // \t\thighestThreeBuyOrderPrices[1] = askPrice;\n    // \t\t// update equivalent quantity\n    // \t\thighestThreeBuyOrderQuantities[2] = highestThreeBuyOrderQuantities[1];\n    // \t\thighestThreeBuyOrderQuantities[1] = _tokenBuy;\n    // \t} else if (askPrice >= highestThreeBuyOrderPrices[2]) {\n    // \t\thighestThreeBuyOrderPrices[2] = askPrice;\n    // \t\thighestThreeBuyOrderQuantities[2] = _tokenBuy;\n    // \t}\n    // \tif (askPrice >= highestThreeBuyOrderPrices[2]) {\n    // \t\tuint256 newBuyQuantity =\n    // \t\t\thighestThreeBuyOrderQuantities[0]\n    // \t\t\t\t.add(highestThreeBuyOrderQuantities[1])\n    // \t\t\t\t.add(highestThreeBuyOrderQuantities[2]);\n    // \t\tif (\n    // \t\t\tsellOrders[initialSellOrder[_celebrityToken]].tokensLeftToSell <\n    // \t\t\tnewBuyQuantity\n    // \t\t) {\n    // \t\t\tuint256 newSellQuantity =\n    // \t\t\t\tnewBuyQuantity.sub(\n    // \t\t\t\t\tsellOrders[initialSellOrder[_celebrityToken]].tokensLeftToSell\n    // \t\t\t\t);\n    // \t\t\tsellOrders[initialSellOrder[_celebrityToken]].tokenSell = sellOrders[\n    // \t\t\t\tinitialSellOrder[_celebrityToken]\n    // \t\t\t]\n    // \t\t\t\t.tokenSell\n    // \t\t\t\t.add(newSellQuantity);\n    // \t\t\tsellOrders[initialSellOrder[_celebrityToken]]\n    // \t\t\t\t.tokensLeftToSell = sellOrders[initialSellOrder[_celebrityToken]]\n    // \t\t\t\t.tokensLeftToSell\n    // \t\t\t\t.add(newSellQuantity);\n    // \t\t\tuint256 currentPrice =\n    // \t\t\t\tsellOrders[initialSellOrder[_celebrityToken]].sellPrice;\n    // \t\t\tuint256 newEtherToBeSent =\n    // \t\t\t\tnewSellQuantity.mul(10**18).div(currentPrice);\n    // \t\t\tsellOrders[initialSellOrder[_celebrityToken]]\n    // \t\t\t\t.amountReceive = sellOrders[initialSellOrder[_celebrityToken]]\n    // \t\t\t\t.amountReceive\n    // \t\t\t\t.add(newEtherToBeSent);\n    // \t\t\tsellOrders[initialSellOrder[_celebrityToken]]\n    // \t\t\t\t.etherAmountLeft = sellOrders[initialSellOrder[_celebrityToken]]\n    // \t\t\t\t.etherAmountLeft\n    // \t\t\t\t.add(newEtherToBeSent);\n    // \t\t}\n    // \t}\n    // }\n\n    function placeSellOrder(\n        address _celebrityToken,\n        uint256 _tokenSell,\n        uint256 _amountReceive,\n        uint256 _fees,\n        bool _usingFANCTokenForFees\n    ) public {\n        require(\n            CelebrityToken(_celebrityToken).balanceOf(msg.sender) >= _tokenSell,\n            \"Not enough token balance to place order\"\n        );\n        require(\n            CelebrityToken(_celebrityToken)\n                .isTradingAllowedOnCelebrityExchange(),\n            \"Trading of this Celebrity asset not allowed\"\n        );\n        uint256 bidPrice = _amountReceive.mul(10**18).div(_tokenSell);\n        uint256 tempFeeAsEther = 0;\n        uint256 tempFeeAsFANC = 0;\n        if (_usingFANCTokenForFees) {\n            uint256 FANCTokenPriceInEther =\n                Oracle(ORACLEADDRESS).getAssetPrice();\n            require(\n                _fees ==\n                    _amountReceive\n                        .mul(feePercent)\n                        .mul(FANCTokenPriceInEther)\n                        .div(2)\n                        .div(10**36), // Due to multiplication by 10**18 twice in feepercent and fantokenprice\n                \"Incorrect fee entered\"\n            );\n            _getFANCFrom(msg.sender, _fees);\n            tempFeeAsFANC = _fees;\n        } else {\n            require(\n                _fees == (_amountReceive.mul(feePercent).div(10**18)),\n                \"Incorrect fee entered\"\n            );\n            _getEtherFrom(msg.sender, _amountReceive);\n            tempFeeAsEther = _fees;\n        }\n        _getTokenFrom(_celebrityToken, msg.sender, _tokenSell);\n        sellOrders[sellOrderCount] = _SellOrder(\n            sellOrderCount,\n            msg.sender,\n            _celebrityToken,\n            _tokenSell,\n            _amountReceive,\n            bidPrice,\n            _tokenSell,\n            _amountReceive,\n            tempFeeAsEther,\n            tempFeeAsFANC,\n            _usingFANCTokenForFees,\n            feePercent,\n            block.timestamp,\n            OrderStatus.OPEN\n        );\n        tokensAndEtherInExchange[_celebrityToken][\n            msg.sender\n        ] = tokensAndEtherInExchange[_celebrityToken][msg.sender].add(\n            _tokenSell\n        );\n        emit SellOrderPlaced(\n            sellOrderCount,\n            msg.sender,\n            _celebrityToken,\n            _tokenSell,\n            _amountReceive,\n            bidPrice,\n            block.timestamp\n        );\n        sellOrderCount = sellOrderCount.add(1);\n        // _updateInitialSellOrderOnSellOrderChange(_celebrityToken, bidPrice);\n    }\n\n    function fillBuyOrder(\n        uint256 _buyOrderId,\n        uint256 _tokensFilled,\n        uint256 _fees,\n        bool _usingFANCTokenForFees\n    ) public {\n        require(\n            msg.sender != buyOrders[_buyOrderId].user,\n            \"Same user cannot place and fill the order\"\n        );\n        require(\n            _buyOrderId >= 0 && _buyOrderId < buyOrderCount,\n            \"Order does not exist\"\n        );\n        require(\n            buyOrders[_buyOrderId].status != OrderStatus.FILLED &&\n                buyOrders[_buyOrderId].status != OrderStatus.CANCELLED,\n            \"Order has been Filled or Cancelled\"\n        );\n        require(\n            _tokensFilled > 0 &&\n                _tokensFilled <= buyOrders[_buyOrderId].tokensLeftToBuy,\n            \"Not enough tokens left in the order to execute\"\n        );\n        // get fees\n        uint256 tempFeeAsEther = 0;\n        uint256 tempFeeAsFANC = 0;\n        uint256 tradeAmount =\n            _tokensFilled.mul(buyOrders[_buyOrderId].buyPrice).div(10**18);\n        if (_usingFANCTokenForFees) {\n            uint256 FANCTokenPriceInEther =\n                Oracle(ORACLEADDRESS).getAssetPrice();\n            require(\n                _fees ==\n                    tradeAmount\n                        .mul(feePercent)\n                        .mul(FANCTokenPriceInEther)\n                        .div(2)\n                        .div(10**36), // Due to multiplication by 10**18 twice in feepercent and fantokenprice\n                \"Incorrect fee entered\"\n            );\n            _getFANCFrom(msg.sender, _fees);\n            tempFeeAsFANC = _fees;\n        } else {\n            require(\n                _fees == (tradeAmount.mul(feePercent).div(10**18)),\n                \"Incorrect fee entered\"\n            );\n            _getEtherFrom(msg.sender, _fees);\n            tempFeeAsEther = _fees;\n        }\n        // send token from sender to buyer\n        _transferTokenFromTo(\n            buyOrders[_buyOrderId].celebrityToken,\n            msg.sender,\n            buyOrders[_buyOrderId].user,\n            _tokensFilled\n        );\n        // send ether to sender\n        _sendEtherTo(msg.sender, tradeAmount);\n\n        _calculateAndAllocateFeesForBuyOrderFill(\n            _buyOrderId,\n            _tokensFilled,\n            tempFeeAsFANC,\n            tempFeeAsEther\n        );\n        buyOrders[_buyOrderId].tokensLeftToBuy = buyOrders[_buyOrderId]\n            .tokensLeftToBuy\n            .sub(_tokensFilled);\n        buyOrders[_buyOrderId].etherAmountLeft = buyOrders[_buyOrderId]\n            .etherAmountLeft\n            .sub(tradeAmount);\n        tokensAndEtherInExchange[WETHERADDRESS][\n            buyOrders[_buyOrderId].user\n        ] = tokensAndEtherInExchange[WETHERADDRESS][buyOrders[_buyOrderId].user]\n            .sub(tradeAmount);\n        if (buyOrders[_buyOrderId].tokensLeftToBuy != 0) {\n            buyOrders[_buyOrderId].status = OrderStatus.PARTIALLYFILLED;\n            emit BuyOrderPartiallyFilled(\n                buyOrders[_buyOrderId].id,\n                msg.sender,\n                _tokensFilled,\n                buyOrders[_buyOrderId].buyPrice,\n                buyOrders[_buyOrderId].tokensLeftToBuy,\n                buyOrders[_buyOrderId].etherAmountLeft,\n                block.timestamp\n            );\n        } else {\n            buyOrders[_buyOrderId].status = OrderStatus.FILLED;\n            emit BuyOrderFilled(\n                buyOrders[_buyOrderId].id,\n                msg.sender,\n                _tokensFilled,\n                buyOrders[_buyOrderId].buyPrice,\n                block.timestamp\n            );\n        }\n        latestPrice[buyOrders[_buyOrderId].celebrityToken] = buyOrders[\n            _buyOrderId\n        ]\n            .buyPrice;\n        buyOrderExecutedTrades[_buyOrderId].push(\n            _OrderFills(msg.sender, _tokensFilled, tradeAmount, block.timestamp)\n        );\n    }\n\n    function fillSellOrder(\n        uint256 _sellOrderId,\n        uint256 _tokensFilled,\n        uint256 _fees,\n        bool _usingFANCTokenForFees\n    ) public {\n        // send ether from sender to seller\n        // send token to sender\n        // get fees\n        require(\n            msg.sender != sellOrders[_sellOrderId].user,\n            \"Same user cannot place and fill the order\"\n        );\n        require(\n            _sellOrderId >= 0 && _sellOrderId < sellOrderCount,\n            \"Order does not exist\"\n        );\n        require(\n            sellOrders[_sellOrderId].status != OrderStatus.FILLED &&\n                sellOrders[_sellOrderId].status != OrderStatus.CANCELLED,\n            \"Order has been Filled or Cancelled\"\n        );\n        require(\n            _tokensFilled > 0 &&\n                _tokensFilled <= sellOrders[_sellOrderId].tokensLeftToSell,\n            \"Not enough tokens left in the order to execute\"\n        );\n        // get fees\n        uint256 tempFeeAsEther = 0;\n        uint256 tempFeeAsFANC = 0;\n        uint256 tradeAmount =\n            _tokensFilled.mul(sellOrders[_sellOrderId].sellPrice).div(10**18);\n        if (_usingFANCTokenForFees) {\n            uint256 FANCTokenPriceInEther =\n                Oracle(ORACLEADDRESS).getAssetPrice();\n            require(\n                _fees ==\n                    tradeAmount\n                        .mul(feePercent)\n                        .mul(FANCTokenPriceInEther)\n                        .div(2)\n                        .div(10**36), // Due to multiplication by 10**18 twice in feepercent and fantokenprice\n                \"Incorrect fee entered\"\n            );\n            _getFANCFrom(msg.sender, _fees);\n            tempFeeAsFANC = _fees;\n        } else {\n            require(\n                _fees == (tradeAmount.mul(feePercent).div(10**18)),\n                \"Incorrect fee entered\"\n            );\n            _getEtherFrom(msg.sender, _fees);\n            tempFeeAsEther = _fees;\n        }\n        // send ether from sender to seller\n        _transferEtherFromTo(\n            msg.sender,\n            sellOrders[_sellOrderId].user,\n            tradeAmount\n        );\n        // send token to sender\n        _sendTokenTo(\n            sellOrders[_sellOrderId].celebrityToken,\n            msg.sender,\n            _tokensFilled\n        );\n\n        _calculateAndAllocateFeesForSellOrderFill(\n            _sellOrderId,\n            _tokensFilled,\n            tempFeeAsFANC,\n            tempFeeAsEther\n        );\n        sellOrders[_sellOrderId].tokensLeftToSell = sellOrders[_sellOrderId]\n            .tokensLeftToSell\n            .sub(_tokensFilled);\n        sellOrders[_sellOrderId].etherAmountLeft = sellOrders[_sellOrderId]\n            .etherAmountLeft\n            .sub(tradeAmount);\n        tokensAndEtherInExchange[sellOrders[_sellOrderId].celebrityToken][\n            sellOrders[_sellOrderId].user\n        ] = tokensAndEtherInExchange[sellOrders[_sellOrderId].celebrityToken][\n            sellOrders[_sellOrderId].user\n        ]\n            .sub(tradeAmount);\n        if (sellOrders[_sellOrderId].tokensLeftToSell != 0) {\n            sellOrders[_sellOrderId].status = OrderStatus.PARTIALLYFILLED;\n            emit SellOrderPartiallyFilled(\n                sellOrders[_sellOrderId].id,\n                msg.sender,\n                _tokensFilled,\n                sellOrders[_sellOrderId].sellPrice,\n                sellOrders[_sellOrderId].tokensLeftToSell,\n                sellOrders[_sellOrderId].etherAmountLeft,\n                block.timestamp\n            );\n        } else {\n            sellOrders[_sellOrderId].status = OrderStatus.FILLED;\n            emit SellOrderFilled(\n                sellOrders[_sellOrderId].id,\n                msg.sender,\n                _tokensFilled,\n                sellOrders[_sellOrderId].sellPrice,\n                block.timestamp\n            );\n        }\n        latestPrice[sellOrders[_sellOrderId].celebrityToken] = sellOrders[\n            _sellOrderId\n        ]\n            .sellPrice;\n        sellOrderExecutedTrades[_sellOrderId].push(\n            _OrderFills(msg.sender, _tokensFilled, tradeAmount, block.timestamp)\n        );\n    }\n\n    function cancelBuyOrder(uint256 _buyOrderId) public {\n        require(\n            msg.sender == buyOrders[_buyOrderId].user,\n            \"Only the user who placed the order can cancel it\"\n        );\n        uint256 etherToRefund =\n            buyOrders[_buyOrderId].etherAmountLeft +\n                buyOrders[_buyOrderId].feeAllocatedAsEther;\n        _sendEtherTo(buyOrders[_buyOrderId].user, etherToRefund);\n        uint256 FANCToRefund = buyOrders[_buyOrderId].feeAllocatedAsFANC;\n        _sendFANCTo(buyOrders[_buyOrderId].user, FANCToRefund);\n        tokensAndEtherInExchange[WETHERADDRESS][\n            buyOrders[_buyOrderId].user\n        ] = tokensAndEtherInExchange[WETHERADDRESS][buyOrders[_buyOrderId].user]\n            .sub(buyOrders[_buyOrderId].etherAmountLeft);\n        buyOrders[_buyOrderId].status = OrderStatus.CANCELLED;\n        emit BuyOrderCancelled(\n            _buyOrderId,\n            buyOrders[_buyOrderId].user,\n            buyOrders[_buyOrderId].celebrityToken,\n            block.timestamp\n        );\n    }\n\n    function cancelSellOrder(uint256 _sellOrderId) public {\n        require(\n            msg.sender == sellOrders[_sellOrderId].user,\n            \"Only the user who placed the order can cancel it\"\n        );\n        uint256 etherToRefund = sellOrders[_sellOrderId].feeAllocatedAsEther;\n        _sendEtherTo(sellOrders[_sellOrderId].user, etherToRefund);\n        uint256 tokenToRefund = sellOrders[_sellOrderId].tokensLeftToSell;\n        _sendTokenTo(\n            sellOrders[_sellOrderId].celebrityToken,\n            sellOrders[_sellOrderId].user,\n            tokenToRefund\n        );\n        uint256 FANCToRefund = sellOrders[_sellOrderId].feeAllocatedAsFANC;\n        _sendFANCTo(sellOrders[_sellOrderId].user, FANCToRefund);\n        tokensAndEtherInExchange[sellOrders[_sellOrderId].celebrityToken][\n            sellOrders[_sellOrderId].user\n        ] = tokensAndEtherInExchange[sellOrders[_sellOrderId].celebrityToken][\n            sellOrders[_sellOrderId].user\n        ]\n            .sub(sellOrders[_sellOrderId].etherAmountLeft);\n        sellOrders[_sellOrderId].status = OrderStatus.CANCELLED;\n        emit SellOrderCancelled(\n            _sellOrderId,\n            sellOrders[_sellOrderId].user,\n            sellOrders[_sellOrderId].celebrityToken,\n            block.timestamp\n        );\n    }\n\n    function placeInitialSellOrder(\n        address _celebrityToken,\n        uint256 _tokenSell,\n        uint256 _amountReceive\n    ) public onlyOwner {\n        require(\n            CelebrityToken(_celebrityToken).balanceOf(msg.sender) >= _tokenSell,\n            \"Not enough token balance to place order\"\n        );\n        require(\n            !CelebrityToken(_celebrityToken)\n                .isTradingAllowedOnCelebrityExchange(),\n            \"Initial Sell order cannot be placed when token already traded in exchange\"\n        );\n        CelebrityToken(_celebrityToken)\n            .toggeleAllowTradingOnCelebrityExchange();\n\n        uint256 bidPrice = _amountReceive.mul(10**18).div(_tokenSell);\n\n        _getTokenFrom(_celebrityToken, msg.sender, _tokenSell);\n        sellOrders[sellOrderCount] = _SellOrder(\n            sellOrderCount,\n            msg.sender,\n            _celebrityToken,\n            _tokenSell,\n            _amountReceive,\n            bidPrice,\n            _tokenSell,\n            _amountReceive,\n            0,\n            0,\n            false,\n            feePercent,\n            block.timestamp,\n            OrderStatus.OPEN\n        );\n        initialSellOrder[_celebrityToken] = sellOrderCount;\n        tokensAndEtherInExchange[_celebrityToken][\n            msg.sender\n        ] = tokensAndEtherInExchange[_celebrityToken][msg.sender].add(\n            _tokenSell\n        );\n        emit InitialSellOrderPlaced(\n            sellOrderCount,\n            msg.sender,\n            _celebrityToken,\n            _tokenSell,\n            _amountReceive,\n            bidPrice,\n            block.timestamp\n        );\n        sellOrderCount = sellOrderCount.add(1);\n        currentHighestSellOrderPrice[_celebrityToken] = bidPrice;\n    }\n\n    function updateInitialSellOrder(\n        address _celebrityToken,\n        uint256 _tokenSell,\n        uint256 _amountReceive\n    ) public onlyOwner {\n        require(\n            CelebrityToken(_celebrityToken).balanceOf(msg.sender) >= _tokenSell,\n            \"Not enough token balance to place order\"\n        );\n        require(\n            !CelebrityToken(_celebrityToken)\n                .isTradingAllowedOnCelebrityExchange(),\n            \"Initial Sell order cannot be placed when token already traded in exchange\"\n        );\n\n        uint256 bidPrice = _amountReceive.mul(10**18).div(_tokenSell);\n\n        _getTokenFrom(\n            _celebrityToken,\n            msg.sender,\n            _tokenSell.sub(\n                sellOrders[initialSellOrder[_celebrityToken]].tokensLeftToSell\n            )\n        );\n        sellOrders[initialSellOrder[_celebrityToken]].tokenSell = _tokenSell;\n        sellOrders[initialSellOrder[_celebrityToken]]\n            .amountReceive = _amountReceive;\n        sellOrders[initialSellOrder[_celebrityToken]].sellPrice = bidPrice;\n        sellOrders[initialSellOrder[_celebrityToken]]\n            .tokensLeftToSell = _tokenSell;\n        sellOrders[initialSellOrder[_celebrityToken]]\n            .etherAmountLeft = _amountReceive;\n        sellOrders[initialSellOrder[_celebrityToken]].timestamp = block\n            .timestamp;\n        tokensAndEtherInExchange[_celebrityToken][\n            msg.sender\n        ] = tokensAndEtherInExchange[_celebrityToken][msg.sender].add(\n            _tokenSell.sub(\n                sellOrders[initialSellOrder[_celebrityToken]].tokensLeftToSell\n            )\n        );\n        emit InitialSellOrderUpdated(\n            _celebrityToken,\n            _tokenSell,\n            _amountReceive,\n            bidPrice,\n            block.timestamp\n        );\n        if (currentHighestSellOrderPrice[_celebrityToken] < bidPrice) {\n            currentHighestSellOrderPrice[_celebrityToken] = bidPrice;\n        }\n    }\n\n    function _transferEtherFromTo(\n        address from,\n        address to,\n        uint256 _amount\n    ) internal {\n        require(\n            WETHToken(WETHERADDRESS).allowance(from, address(this)) >= _amount,\n            \"Not enough allocation in Matic WETH token\"\n        );\n        WETHToken(WETHERADDRESS).transferFrom(from, to, _amount);\n    }\n\n    function _transferTokenFromTo(\n        address _celebrityToken,\n        address from,\n        address to,\n        uint256 _amount\n    ) internal {\n        CelebrityToken(_celebrityToken).transferFrom(from, to, _amount);\n    }\n\n    function _getEtherFrom(address from, uint256 _amount) internal {\n        require(\n            WETHToken(WETHERADDRESS).allowance(from, address(this)) >= _amount,\n            \"Not enough allocation in Matic WETH token\"\n        );\n        WETHToken(WETHERADDRESS).transferFrom(from, address(this), _amount);\n    }\n\n    function _getTokenFrom(\n        address _celebrityToken,\n        address from,\n        uint256 _amount\n    ) internal {\n        CelebrityToken(_celebrityToken).transferFrom(\n            from,\n            address(this),\n            _amount\n        );\n    }\n\n    function _getFANCFrom(address from, uint256 _amount) internal {\n        FANCTOKEN(FANCTOKENAddress).transferFrom(from, address(this), _amount);\n    }\n\n    function _sendFANCTo(address to, uint256 _amount) internal {\n        require(_amount >= 0);\n        FANCTOKEN(FANCTOKENAddress).transfer(to, _amount);\n    }\n\n    function _sendEtherTo(address to, uint256 _amount) internal {\n        WETHToken(WETHERADDRESS).transfer(to, _amount);\n    }\n\n    function _sendTokenTo(\n        address _celebrityToken,\n        address to,\n        uint256 _amount\n    ) internal {\n        CelebrityToken(_celebrityToken).transfer(to, _amount);\n    }\n\n    function _calculateAndAllocateFeesForBuyOrderFill(\n        uint256 _buyOrderId,\n        uint256 _tokensFilled,\n        uint256 _feesInFANC,\n        uint256 _feesInEther\n    ) internal {\n        //buyer\n        // reduce feesallocated in the struct\n        // reduce feesallocated in global mapping\n        // add fees to the feescollected gloabl mapping - both owner and nftowner\n        uint256 proportionOfTokensSold =\n            _tokensFilled.div(buyOrders[_buyOrderId].tokensLeftToBuy);\n        uint256 etherFees =\n            buyOrders[_buyOrderId].feeAllocatedAsEther.mul(\n                proportionOfTokensSold\n            );\n        uint256 FANCFees =\n            buyOrders[_buyOrderId].feeAllocatedAsFANC.mul(\n                proportionOfTokensSold\n            );\n        address NFTOwner =\n            CelebrityOwnerToken(CelebrityOwnerTokenAddress).ownerOf(\n                CelebrityToken(buyOrders[_buyOrderId].celebrityToken).id()\n            );\n        uint256 feeAllocationToNFTOwnerFANC =\n            FANCFees.mul(allocationToNFTOwner).div(10**18);\n        uint256 feeAllocationToNFTOwnerEther =\n            etherFees.mul(allocationToNFTOwner).div(10**18);\n        if (buyOrders[_buyOrderId].isFeePaidUsingFANC) {\n            // add buyer side fees and sender side fees both to the feesCollected mapping\n            feeCollectedInFANC[owner()] = feeCollectedInFANC[owner()].add(\n                FANCFees.sub(feeAllocationToNFTOwnerFANC)\n            );\n            feeCollectedInFANC[NFTOwner] = feeCollectedInFANC[NFTOwner].add(\n                feeAllocationToNFTOwnerFANC\n            );\n            buyOrders[_buyOrderId].feeAllocatedAsFANC = buyOrders[_buyOrderId]\n                .feeAllocatedAsFANC\n                .sub(FANCFees);\n        } else {\n            feeCollectedInEther[owner()] = feeCollectedInEther[owner()].add(\n                etherFees.sub(feeAllocationToNFTOwnerEther)\n            );\n            feeCollectedInEther[NFTOwner] = feeCollectedInEther[NFTOwner].add(\n                feeAllocationToNFTOwnerEther\n            );\n            buyOrders[_buyOrderId].feeAllocatedAsEther = buyOrders[_buyOrderId]\n                .feeAllocatedAsEther\n                .sub(etherFees);\n        }\n\n        // seller\n        // add fees to the feescollected gloabl mapping - both owner and nftowner\n        uint256 sellerFeeAllocationToNFTOwnerFANC =\n            _feesInFANC.mul(allocationToNFTOwner).div(10**18);\n        uint256 sellerDeeAllocationToNFTOwnerEther =\n            _feesInEther.mul(allocationToNFTOwner).div(10**18);\n        feeCollectedInFANC[owner()] = feeCollectedInFANC[owner()].add(\n            _feesInFANC.sub(sellerFeeAllocationToNFTOwnerFANC)\n        );\n        feeCollectedInFANC[NFTOwner] = feeCollectedInFANC[NFTOwner].add(\n            sellerFeeAllocationToNFTOwnerFANC\n        );\n        feeCollectedInEther[owner()] = feeCollectedInEther[owner()].add(\n            _feesInEther.sub(sellerDeeAllocationToNFTOwnerEther)\n        );\n        feeCollectedInEther[NFTOwner] = feeCollectedInEther[NFTOwner].add(\n            sellerDeeAllocationToNFTOwnerEther\n        );\n    }\n\n    function _calculateAndAllocateFeesForSellOrderFill(\n        uint256 _sellOrderId,\n        uint256 _tokensFilled,\n        uint256 _feesInFANC,\n        uint256 _feesInEther\n    ) internal {\n        //buyer\n        // reduce feesallocated in the struct\n        // reduce feesallocated in global mapping\n        // add fees to the feescollected gloabl mapping - both owner and nftowner\n        uint256 proportionOfTokensSold =\n            _tokensFilled.div(sellOrders[_sellOrderId].tokensLeftToSell);\n        uint256 etherFees =\n            sellOrders[_sellOrderId].feeAllocatedAsEther.mul(\n                proportionOfTokensSold\n            );\n        uint256 FANCFees =\n            sellOrders[_sellOrderId].feeAllocatedAsFANC.mul(\n                proportionOfTokensSold\n            );\n        address NFTOwner =\n            CelebrityOwnerToken(CelebrityOwnerTokenAddress).ownerOf(\n                CelebrityToken(sellOrders[_sellOrderId].celebrityToken).id()\n            );\n        uint256 feeAllocationToNFTOwnerFANC =\n            FANCFees.mul(allocationToNFTOwner).div(10**18);\n        uint256 feeAllocationToNFTOwnerEther =\n            etherFees.mul(allocationToNFTOwner).div(10**18);\n        if (sellOrders[_sellOrderId].isFeePaidUsingFANC) {\n            // add buyer side fees and sender side fees both to the feesCollected mapping\n            feeCollectedInFANC[owner()] = feeCollectedInFANC[owner()].add(\n                FANCFees.sub(feeAllocationToNFTOwnerFANC)\n            );\n            feeCollectedInFANC[NFTOwner] = feeCollectedInFANC[NFTOwner].add(\n                feeAllocationToNFTOwnerFANC\n            );\n            sellOrders[_sellOrderId].feeAllocatedAsFANC = sellOrders[\n                _sellOrderId\n            ]\n                .feeAllocatedAsFANC\n                .sub(FANCFees);\n        } else {\n            feeCollectedInEther[owner()] = feeCollectedInEther[owner()].add(\n                etherFees.sub(feeAllocationToNFTOwnerEther)\n            );\n            feeCollectedInEther[NFTOwner] = feeCollectedInEther[NFTOwner].add(\n                feeAllocationToNFTOwnerEther\n            );\n            sellOrders[_sellOrderId].feeAllocatedAsEther = sellOrders[\n                _sellOrderId\n            ]\n                .feeAllocatedAsEther\n                .sub(etherFees);\n        }\n\n        // seller\n        // add fees to the feescollected gloabl mapping - both owner and nftowner\n        uint256 sellerFeeAllocationToNFTOwnerFANC =\n            _feesInFANC.mul(allocationToNFTOwner).div(10**18);\n        uint256 sellerDeeAllocationToNFTOwnerEther =\n            _feesInEther.mul(allocationToNFTOwner).div(10**18);\n        feeCollectedInFANC[owner()] = feeCollectedInFANC[owner()].add(\n            _feesInFANC.sub(sellerFeeAllocationToNFTOwnerFANC)\n        );\n        feeCollectedInFANC[NFTOwner] = feeCollectedInFANC[NFTOwner].add(\n            sellerFeeAllocationToNFTOwnerFANC\n        );\n        feeCollectedInEther[owner()] = feeCollectedInEther[owner()].add(\n            _feesInEther.sub(sellerDeeAllocationToNFTOwnerEther)\n        );\n        feeCollectedInEther[NFTOwner] = feeCollectedInEther[NFTOwner].add(\n            sellerDeeAllocationToNFTOwnerEther\n        );\n    }\n\n    function balanceOf(address _token, address _user)\n        public\n        view\n        returns (uint256)\n    {\n        return tokensAndEtherInExchange[_token][_user];\n    }\n\n    function withdrawEther(uint256 _amount) public onlyOwner {\n        require(\n            tokensAndEtherInExchange[WETHERADDRESS][owner()] >= _amount,\n            \"Not enough funds in the protocol\"\n        );\n        tokensAndEtherInExchange[WETHERADDRESS][\n            owner()\n        ] = tokensAndEtherInExchange[WETHERADDRESS][owner()].sub(_amount);\n        WETHToken(WETHERADDRESS).transfer(owner(), _amount);\n    }\n\n    function withdrawFANC(uint256 _amount) public onlyOwner {\n        require(\n            tokensAndEtherInExchange[FANCTOKENAddress][owner()] >= _amount,\n            \"Not enough funds in the protocol\"\n        );\n        tokensAndEtherInExchange[FANCTOKENAddress][\n            owner()\n        ] = tokensAndEtherInExchange[FANCTOKENAddress][owner()].sub(_amount);\n        FANCTOKEN(FANCTOKENAddress).transfer(owner(), _amount);\n    }\n\n    function withdrawEtherFees(uint256 _amount) public {\n        require(\n            feeCollectedInEther[msg.sender] >= _amount,\n            \"Not enough funds in the protocol\"\n        );\n        require(\n            _amount >= minWithdrawalInEtherAllowed,\n            \"Amount less than min withdrawal limit\"\n        );\n        feeCollectedInEther[msg.sender] = feeCollectedInEther[msg.sender].sub(\n            _amount\n        );\n        WETHToken(WETHERADDRESS).transfer(msg.sender, _amount);\n    }\n\n    function withdrawFANCFees(uint256 _amount) public {\n        require(\n            feeCollectedInFANC[msg.sender] >= _amount,\n            \"Not enough funds in the protocol\"\n        );\n        require(\n            _amount >=\n                minWithdrawalInEtherAllowed\n                    .mul(Oracle(ORACLEADDRESS).getAssetPrice())\n                    .div(10**18),\n            \"Amount less than min withdrawal limit\"\n        );\n        feeCollectedInFANC[msg.sender] = feeCollectedInFANC[msg.sender].sub(\n            _amount\n        );\n        FANCTOKEN(FANCTOKENAddress).transfer(msg.sender, _amount);\n    }\n}\n",
  "sourcePath": "/Users/raghu/Fanance/fanance-dapp/contracts/exchange-contracts/CelebrityExchange.sol",
  "compiler": {
    "name": "solc",
    "version": "0.5.16+commit.9c3226ce.Emscripten.clang"
  },
  "schemaVersion": "3.2.3",
  "updatedAt": "2021-01-01T20:39:08.422Z",
  "networkType": "ethereum",
  "devdoc": {
    "methods": {
      "isOwner()": {
        "return": "true if `msg.sender` is the owner of the contract."
      },
      "owner()": {
        "return": "the address of the owner."
      },
      "renounceOwnership()": {
        "details": "Allows the current owner to relinquish control of the contract."
      },
      "transferOwnership(address)": {
        "details": "Allows the current owner to transfer control of the contract to a newOwner.",
        "params": {
          "newOwner": "The address to transfer ownership to."
        }
      }
    }
  },
  "userdoc": {
    "methods": {
      "renounceOwnership()": {
        "notice": "Renouncing to ownership will leave the contract without an owner. It will not be possible to call the functions with the `onlyOwner` modifier anymore."
      }
    }
  }
}