{
  "contractName": "FANCToken",
  "abi": [
    {
      "inputs": [
        {
          "internalType": "string",
          "name": "_name",
          "type": "string"
        },
        {
          "internalType": "string",
          "name": "_symbol",
          "type": "string"
        },
        {
          "internalType": "uint256",
          "name": "_supplyInWholeNumber",
          "type": "uint256"
        },
        {
          "internalType": "address",
          "name": "_FANCExchangeAddress",
          "type": "address"
        },
        {
          "internalType": "address",
          "name": "_FANCICOAddress",
          "type": "address"
        },
        {
          "internalType": "address",
          "name": "_CelebrityExchangeAddress",
          "type": "address"
        }
      ],
      "payable": false,
      "stateMutability": "nonpayable",
      "type": "constructor"
    },
    {
      "anonymous": false,
      "inputs": [
        {
          "indexed": true,
          "internalType": "address",
          "name": "owner",
          "type": "address"
        },
        {
          "indexed": true,
          "internalType": "address",
          "name": "spender",
          "type": "address"
        },
        {
          "indexed": false,
          "internalType": "uint256",
          "name": "value",
          "type": "uint256"
        }
      ],
      "name": "Approval",
      "type": "event"
    },
    {
      "anonymous": false,
      "inputs": [
        {
          "indexed": false,
          "internalType": "string",
          "name": "contractName",
          "type": "string"
        },
        {
          "indexed": false,
          "internalType": "string",
          "name": "operation",
          "type": "string"
        },
        {
          "indexed": false,
          "internalType": "string",
          "name": "error",
          "type": "string"
        },
        {
          "indexed": false,
          "internalType": "string",
          "name": "info",
          "type": "string"
        },
        {
          "indexed": false,
          "internalType": "address",
          "name": "user",
          "type": "address"
        },
        {
          "indexed": false,
          "internalType": "uint256",
          "name": "blockNumber",
          "type": "uint256"
        }
      ],
      "name": "Failure",
      "type": "event"
    },
    {
      "anonymous": false,
      "inputs": [
        {
          "indexed": true,
          "internalType": "address",
          "name": "previousOwner",
          "type": "address"
        },
        {
          "indexed": true,
          "internalType": "address",
          "name": "newOwner",
          "type": "address"
        }
      ],
      "name": "OwnershipTransferred",
      "type": "event"
    },
    {
      "anonymous": false,
      "inputs": [
        {
          "indexed": false,
          "internalType": "address",
          "name": "account",
          "type": "address"
        }
      ],
      "name": "Paused",
      "type": "event"
    },
    {
      "anonymous": false,
      "inputs": [
        {
          "indexed": true,
          "internalType": "address",
          "name": "account",
          "type": "address"
        }
      ],
      "name": "PauserAdded",
      "type": "event"
    },
    {
      "anonymous": false,
      "inputs": [
        {
          "indexed": true,
          "internalType": "address",
          "name": "account",
          "type": "address"
        }
      ],
      "name": "PauserRemoved",
      "type": "event"
    },
    {
      "anonymous": false,
      "inputs": [
        {
          "indexed": true,
          "internalType": "address",
          "name": "from",
          "type": "address"
        },
        {
          "indexed": true,
          "internalType": "address",
          "name": "to",
          "type": "address"
        },
        {
          "indexed": false,
          "internalType": "uint256",
          "name": "value",
          "type": "uint256"
        }
      ],
      "name": "Transfer",
      "type": "event"
    },
    {
      "anonymous": false,
      "inputs": [
        {
          "indexed": false,
          "internalType": "address",
          "name": "account",
          "type": "address"
        }
      ],
      "name": "Unpaused",
      "type": "event"
    },
    {
      "constant": true,
      "inputs": [],
      "name": "CelebrityExchangeAddress",
      "outputs": [
        {
          "internalType": "address",
          "name": "",
          "type": "address"
        }
      ],
      "payable": false,
      "stateMutability": "view",
      "type": "function"
    },
    {
      "constant": true,
      "inputs": [],
      "name": "FANCExchangeAddress",
      "outputs": [
        {
          "internalType": "address",
          "name": "",
          "type": "address"
        }
      ],
      "payable": false,
      "stateMutability": "view",
      "type": "function"
    },
    {
      "constant": true,
      "inputs": [],
      "name": "FANCICOAddress",
      "outputs": [
        {
          "internalType": "address",
          "name": "",
          "type": "address"
        }
      ],
      "payable": false,
      "stateMutability": "view",
      "type": "function"
    },
    {
      "constant": false,
      "inputs": [
        {
          "internalType": "address",
          "name": "account",
          "type": "address"
        }
      ],
      "name": "addPauser",
      "outputs": [],
      "payable": false,
      "stateMutability": "nonpayable",
      "type": "function"
    },
    {
      "constant": true,
      "inputs": [],
      "name": "decimals",
      "outputs": [
        {
          "internalType": "uint256",
          "name": "",
          "type": "uint256"
        }
      ],
      "payable": false,
      "stateMutability": "view",
      "type": "function"
    },
    {
      "constant": true,
      "inputs": [],
      "name": "isOwner",
      "outputs": [
        {
          "internalType": "bool",
          "name": "",
          "type": "bool"
        }
      ],
      "payable": false,
      "stateMutability": "view",
      "type": "function"
    },
    {
      "constant": true,
      "inputs": [
        {
          "internalType": "address",
          "name": "account",
          "type": "address"
        }
      ],
      "name": "isPauser",
      "outputs": [
        {
          "internalType": "bool",
          "name": "",
          "type": "bool"
        }
      ],
      "payable": false,
      "stateMutability": "view",
      "type": "function"
    },
    {
      "constant": true,
      "inputs": [],
      "name": "name",
      "outputs": [
        {
          "internalType": "string",
          "name": "",
          "type": "string"
        }
      ],
      "payable": false,
      "stateMutability": "view",
      "type": "function"
    },
    {
      "constant": true,
      "inputs": [],
      "name": "owner",
      "outputs": [
        {
          "internalType": "address",
          "name": "",
          "type": "address"
        }
      ],
      "payable": false,
      "stateMutability": "view",
      "type": "function"
    },
    {
      "constant": false,
      "inputs": [],
      "name": "pause",
      "outputs": [],
      "payable": false,
      "stateMutability": "nonpayable",
      "type": "function"
    },
    {
      "constant": true,
      "inputs": [],
      "name": "paused",
      "outputs": [
        {
          "internalType": "bool",
          "name": "",
          "type": "bool"
        }
      ],
      "payable": false,
      "stateMutability": "view",
      "type": "function"
    },
    {
      "constant": false,
      "inputs": [],
      "name": "renounceOwnership",
      "outputs": [],
      "payable": false,
      "stateMutability": "nonpayable",
      "type": "function"
    },
    {
      "constant": false,
      "inputs": [],
      "name": "renouncePauser",
      "outputs": [],
      "payable": false,
      "stateMutability": "nonpayable",
      "type": "function"
    },
    {
      "constant": true,
      "inputs": [],
      "name": "symbol",
      "outputs": [
        {
          "internalType": "string",
          "name": "",
          "type": "string"
        }
      ],
      "payable": false,
      "stateMutability": "view",
      "type": "function"
    },
    {
      "constant": true,
      "inputs": [],
      "name": "tradedOnFANCExchange",
      "outputs": [
        {
          "internalType": "bool",
          "name": "",
          "type": "bool"
        }
      ],
      "payable": false,
      "stateMutability": "view",
      "type": "function"
    },
    {
      "constant": false,
      "inputs": [
        {
          "internalType": "address",
          "name": "newOwner",
          "type": "address"
        }
      ],
      "name": "transferOwnership",
      "outputs": [],
      "payable": false,
      "stateMutability": "nonpayable",
      "type": "function"
    },
    {
      "constant": false,
      "inputs": [],
      "name": "unpause",
      "outputs": [],
      "payable": false,
      "stateMutability": "nonpayable",
      "type": "function"
    },
    {
      "constant": true,
      "inputs": [],
      "name": "totalSupply",
      "outputs": [
        {
          "internalType": "uint256",
          "name": "",
          "type": "uint256"
        }
      ],
      "payable": false,
      "stateMutability": "view",
      "type": "function"
    },
    {
      "constant": true,
      "inputs": [
        {
          "internalType": "address",
          "name": "owner",
          "type": "address"
        }
      ],
      "name": "balanceOf",
      "outputs": [
        {
          "internalType": "uint256",
          "name": "",
          "type": "uint256"
        }
      ],
      "payable": false,
      "stateMutability": "view",
      "type": "function"
    },
    {
      "constant": true,
      "inputs": [
        {
          "internalType": "address",
          "name": "owner",
          "type": "address"
        },
        {
          "internalType": "address",
          "name": "spender",
          "type": "address"
        }
      ],
      "name": "allowance",
      "outputs": [
        {
          "internalType": "uint256",
          "name": "",
          "type": "uint256"
        }
      ],
      "payable": false,
      "stateMutability": "view",
      "type": "function"
    },
    {
      "constant": false,
      "inputs": [
        {
          "internalType": "address",
          "name": "to",
          "type": "address"
        },
        {
          "internalType": "uint256",
          "name": "value",
          "type": "uint256"
        }
      ],
      "name": "transfer",
      "outputs": [
        {
          "internalType": "bool",
          "name": "",
          "type": "bool"
        }
      ],
      "payable": false,
      "stateMutability": "nonpayable",
      "type": "function"
    },
    {
      "constant": false,
      "inputs": [
        {
          "internalType": "address",
          "name": "spender",
          "type": "address"
        },
        {
          "internalType": "uint256",
          "name": "value",
          "type": "uint256"
        }
      ],
      "name": "approve",
      "outputs": [
        {
          "internalType": "bool",
          "name": "",
          "type": "bool"
        }
      ],
      "payable": false,
      "stateMutability": "nonpayable",
      "type": "function"
    },
    {
      "constant": false,
      "inputs": [
        {
          "internalType": "address",
          "name": "from",
          "type": "address"
        },
        {
          "internalType": "address",
          "name": "to",
          "type": "address"
        },
        {
          "internalType": "uint256",
          "name": "value",
          "type": "uint256"
        }
      ],
      "name": "transferFrom",
      "outputs": [
        {
          "internalType": "bool",
          "name": "",
          "type": "bool"
        }
      ],
      "payable": false,
      "stateMutability": "nonpayable",
      "type": "function"
    },
    {
      "constant": false,
      "inputs": [
        {
          "internalType": "address",
          "name": "spender",
          "type": "address"
        },
        {
          "internalType": "uint256",
          "name": "addedValue",
          "type": "uint256"
        }
      ],
      "name": "increaseAllowance",
      "outputs": [
        {
          "internalType": "bool",
          "name": "",
          "type": "bool"
        }
      ],
      "payable": false,
      "stateMutability": "nonpayable",
      "type": "function"
    },
    {
      "constant": false,
      "inputs": [
        {
          "internalType": "address",
          "name": "spender",
          "type": "address"
        },
        {
          "internalType": "uint256",
          "name": "subtractedValue",
          "type": "uint256"
        }
      ],
      "name": "decreaseAllowance",
      "outputs": [
        {
          "internalType": "bool",
          "name": "",
          "type": "bool"
        }
      ],
      "payable": false,
      "stateMutability": "nonpayable",
      "type": "function"
    },
    {
      "constant": false,
      "inputs": [
        {
          "internalType": "address",
          "name": "_CelebrityExchangeAddress",
          "type": "address"
        },
        {
          "internalType": "address",
          "name": "_FANCExchangeAddress",
          "type": "address"
        },
        {
          "internalType": "address",
          "name": "_FANCICOAddress",
          "type": "address"
        }
      ],
      "name": "changeExchangeAddresses",
      "outputs": [],
      "payable": false,
      "stateMutability": "nonpayable",
      "type": "function"
    },
    {
      "constant": false,
      "inputs": [],
      "name": "toggleExchangeTradeStatus",
      "outputs": [],
      "payable": false,
      "stateMutability": "nonpayable",
      "type": "function"
    }
  ],
  "bytecode": "0x60806040523480156200001157600080fd5b5060405162001acf38038062001acf833981810160405260c08110156200003757600080fd5b81019080805160405193929190846401000000008211156200005857600080fd5b9083019060208201858111156200006e57600080fd5b82516401000000008111828201881017156200008957600080fd5b82525081516020918201929091019080838360005b83811015620000b85781810151838201526020016200009e565b50505050905090810190601f168015620000e65780820380516001836020036101000a031916815260200191505b50604052602001805160405193929190846401000000008211156200010a57600080fd5b9083019060208201858111156200012057600080fd5b82516401000000008111828201881017156200013b57600080fd5b82525081516020918201929091019080838360005b838110156200016a57818101518382015260200162000150565b50505050905090810190601f168015620001985780820380516001836020036101000a031916815260200191505b5060408181526020830151908301516060840151608090940151600080546001600160a01b0319163317808255939750919550926001600160a01b0392909216917f8be0079c531659141344cd1fd0a4f28419497f9722a3daafe3b4186f6b6457e0908290a362000212336001600160e01b03620002b516565b6002805460ff1916905585516200023190600390602089019062000459565b5084516200024790600490602088019062000459565b506012600555670de0b6b3a7640000939093026006819055336000908152600a6020526040902055600780546001600160a01b03199081166001600160a01b039485161790915560088054821692841692909217909155600980549091169190921617905550620004fe9050565b620002d08160016200030760201b620013591790919060201c565b6040516001600160a01b038216907f6719d08c1888103bea251a4ed56406bd0c3e69723c8a1686e017e7bbe159b6f890600090a250565b6001600160a01b03811662000363576040805162461bcd60e51b815260206004820152601d60248201527f50617573657220616464726573732063616e6e6f742062652030783030000000604482015290519081900360640190fd5b6200037882826001600160e01b03620003db16565b15620003b65760405162461bcd60e51b815260040180806020018281038252602581526020018062001aaa6025913960400191505060405180910390fd5b6001600160a01b0316600090815260209190915260409020805460ff19166001179055565b60006001600160a01b03821662000439576040805162461bcd60e51b815260206004820152601d60248201527f50617573657220616464726573732063616e6e6f742062652030783030000000604482015290519081900360640190fd5b506001600160a01b03166000908152602091909152604090205460ff1690565b828054600181600116156101000203166002900490600052602060002090601f016020900481019282601f106200049c57805160ff1916838001178555620004cc565b82800160010185558215620004cc579182015b82811115620004cc578251825591602001919060010190620004af565b50620004da929150620004de565b5090565b620004fb91905b80821115620004da5760008155600101620004e5565b90565b61159c806200050e6000396000f3fe608060405234801561001057600080fd5b50600436106101a95760003560e01c8063715018a6116100f9578063a9059cbb11610097578063ee23909c11610071578063ee23909c1461048d578063f2fde38b14610495578063fee82818146104bb578063ff451b3c146104c3576101a9565b8063a9059cbb146103fb578063d3c6182214610427578063dd62ed3e1461045f576101a9565b80638da5cb5b116100d35780638da5cb5b146103b75780638f32d59b146103bf57806395d89b41146103c7578063a457c2d7146103cf576101a9565b8063715018a61461038157806382dc1ec4146103895780638456cb59146103af576101a9565b806332cae5831161016657806346fbf68e1161014057806346fbf68e146103255780635c975abb1461034b5780636ef8d66d1461035357806370a082311461035b576101a9565b806332cae583146102cb57806339509351146102ef5780633f4ba83a1461031b576101a9565b806306fdde03146101ae578063095ea7b31461022b5780630f56c0a61461026b57806318160ddd1461027357806323b872dd1461028d578063313ce567146102c3575b600080fd5b6101b66104cb565b6040805160208082528351818301528351919283929083019185019080838360005b838110156101f05781810151838201526020016101d8565b50505050905090810190601f16801561021d5780820380516001836020036101000a031916815260200191505b509250505060405180910390f35b6102576004803603604081101561024157600080fd5b506001600160a01b038135169060200135610559565b604080519115158252519081900360200190f35b610257610657565b61027b610667565b60408051918252519081900360200190f35b610257600480360360608110156102a357600080fd5b506001600160a01b0381358116916020810135909116906040013561066d565b61027b61081d565b6102d3610823565b604080516001600160a01b039092168252519081900360200190f35b6102576004803603604081101561030557600080fd5b506001600160a01b038135169060200135610832565b610323610912565b005b6102576004803603602081101561033b57600080fd5b50356001600160a01b03166109e3565b6102576109f6565b6103236109ff565b61027b6004803603602081101561037157600080fd5b50356001600160a01b0316610a0a565b610323610a25565b6103236004803603602081101561039f57600080fd5b50356001600160a01b0316610ab2565b610323610b02565b6102d3610bd3565b610257610be2565b6101b6610bf3565b610257600480360360408110156103e557600080fd5b506001600160a01b038135169060200135610c4e565b6102576004803603604081101561041157600080fd5b506001600160a01b038135169060200135610cc9565b6103236004803603606081101561043d57600080fd5b506001600160a01b038135811691602081013582169160409091013516610d19565b61027b6004803603604081101561047557600080fd5b506001600160a01b0381358116916020013516610d9b565b6102d3610dc6565b610323600480360360208110156104ab57600080fd5b50356001600160a01b0316610dd5565b6102d3610e21565b610323610e30565b6003805460408051602060026001851615610100026000190190941693909304601f810184900484028201840190925281815292918301828280156105515780601f1061052657610100808354040283529160200191610551565b820191906000526020600020905b81548152906001019060200180831161053457829003601f168201915b505050505081565b60006001600160a01b0383166105a05760405162461bcd60e51b81526004018080602001828103825260368152602001806114756036913960400191505060405180910390fd5b8115806105b457506105b23384610d9b565b155b6105ef5760405162461bcd60e51b81526004018080602001828103825260468152602001806114f56046913960600191505060405180910390fd5b336000818152600b602090815260408083206001600160a01b03881680855290835292819020869055805186815290519293927f8c5be1e5ebec7d5bd14f71427d1e84f3dd0314c0f7b2291e5b200ac8c7c3b925929181900390910190a35060015b92915050565b600954600160a01b900460ff1681565b60065490565b6009546000906001600160a01b0316331480159061069657506007546001600160a01b03163314155b80156106ad57506008546001600160a01b03163314155b1561076957816106bd8533610d9b565b1015610710576040805162461bcd60e51b815260206004820152601f60248201527f496e73756666696369656e7420616c6c6f77616e636520696e20746f6b656e00604482015290519081900360640190fd5b6001600160a01b0384166000908152600b60209081526040808320338452909152902054610744908363ffffffff610e9416565b6001600160a01b0385166000908152600b602090815260408083203384529091529020555b610774848484610edd565b6107b7576040805162461bcd60e51b815260206004820152600f60248201526e151c985b9cd9995c8811985a5b1959608a1b604482015290519081900360640190fd5b6001600160a01b0384166000818152600b60209081526040808320338085529083529281902054815190815290519293927f8c5be1e5ebec7d5bd14f71427d1e84f3dd0314c0f7b2291e5b200ac8c7c3b925929181900390910190a35060019392505050565b60055481565b6008546001600160a01b031681565b60006001600160a01b0383166108795760405162461bcd60e51b81526004018080602001828103825260368152602001806114756036913960400191505060405180910390fd5b336000908152600b602090815260408083206001600160a01b03871684529091529020546108ad908363ffffffff610ff916565b336000818152600b602090815260408083206001600160a01b0389168085529083529281902085905580519485525191937f8c5be1e5ebec7d5bd14f71427d1e84f3dd0314c0f7b2291e5b200ac8c7c3b925929081900390910190a350600192915050565b61091b336109e3565b6109565760405162461bcd60e51b81526004018080602001828103825260258152602001806114d06025913960400191505060405180910390fd5b60025460ff166109a4576040805162461bcd60e51b815260206004820152601460248201527314185d5cd8589b194e881b9bdd081c185d5cd95960621b604482015290519081900360640190fd5b6002805460ff191690556040805133815290517f5db9ee0a495bf2e6ff9c91a7834c1ba4fdd244a5e8aa4e537bd38aeae4b073aa9181900360200190a1565b600061065160018363ffffffff61105316565b60025460ff1690565b610a08336110d0565b565b6001600160a01b03166000908152600a602052604090205490565b610a2d610be2565b610a685760405162461bcd60e51b81526004018080602001828103825260298152602001806114206029913960400191505060405180910390fd5b600080546040516001600160a01b03909116907f8be0079c531659141344cd1fd0a4f28419497f9722a3daafe3b4186f6b6457e0908390a3600080546001600160a01b0319169055565b610abb336109e3565b610af65760405162461bcd60e51b81526004018080602001828103825260258152602001806114d06025913960400191505060405180910390fd5b610aff81611118565b50565b610b0b336109e3565b610b465760405162461bcd60e51b81526004018080602001828103825260258152602001806114d06025913960400191505060405180910390fd5b60025460ff1615610b91576040805162461bcd60e51b815260206004820152601060248201526f14185d5cd8589b194e881c185d5cd95960821b604482015290519081900360640190fd5b6002805460ff191660011790556040805133815290517f62e78cea01bee320cd4e420270b5ea74000d11b0c9f74754ebdbfc544b05a2589181900360200190a1565b6000546001600160a01b031690565b6000546001600160a01b0316331490565b6004805460408051602060026001851615610100026000190190941693909304601f810184900484028201840190925281815292918301828280156105515780601f1061052657610100808354040283529160200191610551565b60006001600160a01b038316610c955760405162461bcd60e51b81526004018080602001828103825260368152602001806114756036913960400191505060405180910390fd5b336000908152600b602090815260408083206001600160a01b03871684529091529020546108ad908363ffffffff610e9416565b6000610cd6338484610edd565b610651576040805162461bcd60e51b815260206004820152600f60248201526e151c985b9cd9995c8811985a5b1959608a1b604482015290519081900360640190fd5b610d21610be2565b610d5c5760405162461bcd60e51b81526004018080602001828103825260298152602001806114206029913960400191505060405180910390fd5b600980546001600160a01b039485166001600160a01b031991821617909155600780549385169382169390931790925560088054919093169116179055565b6001600160a01b039182166000908152600b6020908152604080832093909416825291909152205490565b6007546001600160a01b031681565b610ddd610be2565b610e185760405162461bcd60e51b81526004018080602001828103825260298152602001806114206029913960400191505060405180910390fd5b610aff81611160565b6009546001600160a01b031681565b610e38610be2565b610e735760405162461bcd60e51b81526004018080602001828103825260298152602001806114206029913960400191505060405180910390fd5b6009805460ff60a01b198116600160a01b9182900460ff1615909102179055565b6000610ed683836040518060400160405280601e81526020017f536166654d6174683a207375627472616374696f6e206f766572666c6f770000815250611200565b9392505050565b60006001600160a01b038316610f3a576040805162461bcd60e51b815260206004820152601f60248201527f43616e6e6f74207472616e7366657220746f2030783030206164647265737300604482015290519081900360640190fd5b6001600160a01b0384166000908152600a6020526040902054610f63908363ffffffff610e9416565b6001600160a01b038086166000908152600a60205260408082209390935590851681522054610f98908363ffffffff610ff916565b6001600160a01b038085166000818152600a602090815260409182902094909455805186815290519193928816927fddf252ad1be2c89b69c2b068fc378daa952ba7f163c4a11628f55a4df523b3ef92918290030190a35060019392505050565b600082820183811015610ed6576040805162461bcd60e51b815260206004820152601b60248201527f536166654d6174683a206164646974696f6e206f766572666c6f770000000000604482015290519081900360640190fd5b60006001600160a01b0382166110b0576040805162461bcd60e51b815260206004820152601d60248201527f50617573657220616464726573732063616e6e6f742062652030783030000000604482015290519081900360640190fd5b506001600160a01b03166000908152602091909152604090205460ff1690565b6110e160018263ffffffff61129716565b6040516001600160a01b038216907fcd265ebaf09df2871cc7bd4133404a235ba12eff2041bb89d9c714a2621c7c7e90600090a250565b61112960018263ffffffff61135916565b6040516001600160a01b038216907f6719d08c1888103bea251a4ed56406bd0c3e69723c8a1686e017e7bbe159b6f890600090a250565b6001600160a01b0381166111a55760405162461bcd60e51b815260040180806020018281038252602d81526020018061153b602d913960400191505060405180910390fd5b600080546040516001600160a01b03808516939216917f8be0079c531659141344cd1fd0a4f28419497f9722a3daafe3b4186f6b6457e091a3600080546001600160a01b0319166001600160a01b0392909216919091179055565b6000818484111561128f5760405162461bcd60e51b81526004018080602001828103825283818151815260200191508051906020019080838360005b8381101561125457818101518382015260200161123c565b50505050905090810190601f1680156112815780820380516001836020036101000a031916815260200191505b509250505060405180910390fd5b505050900390565b6001600160a01b0381166112f2576040805162461bcd60e51b815260206004820152601d60248201527f50617573657220616464726573732063616e6e6f742062652030783030000000604482015290519081900360640190fd5b6112fc8282611053565b6113375760405162461bcd60e51b815260040180806020018281038252602c815260200180611449602c913960400191505060405180910390fd5b6001600160a01b0316600090815260209190915260409020805460ff19169055565b6001600160a01b0381166113b4576040805162461bcd60e51b815260206004820152601d60248201527f50617573657220616464726573732063616e6e6f742062652030783030000000604482015290519081900360640190fd5b6113be8282611053565b156113fa5760405162461bcd60e51b81526004018080602001828103825260258152602001806114ab6025913960400191505060405180910390fd5b6001600160a01b0316600090815260209190915260409020805460ff1916600117905556fe4f4e4c5920434f4e5452414354204f574e45522043414e20504552464f524d204f5045524154494f4e43616e6e6f742072656d6f7665206e6f6e206578697374656e74206163636f756e74206173207061757365725370656e64696e672064656c65676174696f6e2063616e6e6f742062652061737369676e656420746f2030783030206164647265737343616e6e6f7420616464206578697374696e67206163636f756e74206173207061757365724f6e6c79207061757365722063616e20706572666f726d20746865206f7065726174696f6e43616c6c20696e637265617365416c6c6f77616e63652829206f72206465637265617365416c6c6f77616e636528292066756e6374696f6e7320726573706563746976656c7941444d494e20524f4c452043414e4e4f542042452041535349474e454420544f20307830302041444452455353a265627a7a72315820dc2b7ee07a78f6108e6b62a5221ac76b682f65b0e864df0742d22e4d1a42eb7764736f6c6343000510003243616e6e6f7420616464206578697374696e67206163636f756e7420617320706175736572",
  "source": "pragma solidity =0.5.16;\n\nimport \"../_supportingContracts/IERC20.sol\";\nimport \"../_supportingContracts/SafeMath.sol\";\nimport \"../_supportingContracts/Ownable.sol\";\nimport \"../_supportingContracts/Pausable.sol\";\n\n/**\n * @title Standard ERC20 token\n *\n * @dev Implementation of the basic standard token.\n * https://github.com/ethereum/EIPs/blob/master/EIPS/eip-20.md\n * Originally based on code by FirstBlood:\n * https://github.com/Firstbloodio/token/blob/master/smart_contract/FirstBloodToken.sol\n *\n * This implementation emits additional Approval events, allowing applications to reconstruct the allowance status for\n * all accounts just by listening to said events. Note that this isn't required by the specification, and other\n * compliant implementations may not do it.\n */\ncontract FANCToken is IERC20, Ownable, Pausable {\n\tusing SafeMath for uint256;\n\tstring public name;\n\tstring public symbol;\n\tuint256 public decimals;\n\tuint256 private _totalSupply;\n\n\taddress public FANCExchangeAddress;\n\taddress public FANCICOAddress;\n\taddress public CelebrityExchangeAddress;\n\tbool public tradedOnFANCExchange;\n\n\tmapping(address => uint256) private _balances;\n\n\tmapping(address => mapping(address => uint256)) private _allowed;\n\n\tevent Failure(\n\t\tstring contractName,\n\t\tstring operation,\n\t\tstring error,\n\t\tstring info,\n\t\taddress user,\n\t\tuint256 blockNumber\n\t);\n\n\t/**\n\t * @dev Constructor to initialize the ERC-20 token\n\t * @param _name Name of the token\n\t * @param _symbol Symbol used for trading and wallet display purposes\n\t * @param _supplyInWholeNumber Total supply of the tokens => enter whole numbre and it will be converted automatically\n\t */\n\tconstructor(\n\t\tstring memory _name,\n\t\tstring memory _symbol,\n\t\tuint256 _supplyInWholeNumber,\n\t\taddress _FANCExchangeAddress,\n\t\taddress _FANCICOAddress,\n\t\taddress _CelebrityExchangeAddress\n\t) public {\n\t\tname = _name;\n\t\tsymbol = _symbol;\n\t\tdecimals = 18;\n\t\t_totalSupply = _supplyInWholeNumber * (10**decimals);\n\t\t_balances[msg.sender] = _totalSupply;\n\t\tFANCExchangeAddress = _FANCExchangeAddress;\n\t\tFANCICOAddress = _FANCICOAddress;\n\t\tCelebrityExchangeAddress = _CelebrityExchangeAddress;\n\t}\n\n\t/**\n\t * @dev Total number of tokens in existence\n\t */\n\tfunction totalSupply() public view returns (uint256) {\n\t\treturn _totalSupply;\n\t}\n\n\t/**\n\t * @dev Gets the balance of the specified address.\n\t * @param owner The address to query the balance of.\n\t * @return An uint256 representing the amount owned by the passed address.\n\t */\n\tfunction balanceOf(address owner) public view returns (uint256) {\n\t\treturn _balances[owner];\n\t}\n\n\t/**\n\t * @dev Function to check the amount of tokens that an owner allowed to a spender.\n\t * @param owner address The address which owns the funds.\n\t * @param spender address The address which will spend the funds.\n\t * @return A uint256 specifying the amount of tokens still available for the spender.\n\t */\n\tfunction allowance(address owner, address spender)\n\t\tpublic\n\t\tview\n\t\treturns (uint256)\n\t{\n\t\treturn _allowed[owner][spender];\n\t}\n\n\t/**\n\t * @dev Transfer token for a specified address\n\t * @param to The address to transfer to.\n\t * @param value The amount to be transferred.\n\t */\n\tfunction transfer(address to, uint256 value) public returns (bool) {\n\t\trequire(_transfer(msg.sender, to, value), \"Transfer Failed\");\n\t}\n\n\t/**\n\t * @dev Approve the passed address to spend the specified amount of tokens on behalf of msg.sender.\n\t * Beware that changing an allowance with this method brings the risk that someone may use both the old\n\t * and the new allowance by unfortunate transaction ordering. One possible solution to mitigate this\n\t * race condition is to first reduce the spender's allowance to 0 and set the desired value afterwards:\n\t * https://github.com/ethereum/EIPs/issues/20#issuecomment-263524729\n\t * @param spender The address which will spend the funds.\n\t * @param value The amount of tokens to be spent.\n\t */\n\tfunction approve(address spender, uint256 value) public returns (bool) {\n\t\trequire(\n\t\t\tspender != address(0),\n\t\t\t\"Spending delegation cannot be assigned to 0x00 address\"\n\t\t);\n\t\t// approve() should only be called when setting an initial allowance,\n\t\t// or when resetting it to zero. To increase and decrease it, use\n\t\t// 'increaseAllowance' and 'decreaseAllowance'\n\t\trequire(\n\t\t\tvalue == 0 || (allowance(msg.sender, spender) == 0),\n\t\t\t\"Call increaseAllowance() or decreaseAllowance() functions respectively\"\n\t\t);\n\t\t_allowed[msg.sender][spender] = value;\n\t\temit Approval(msg.sender, spender, value);\n\t\treturn true;\n\t}\n\n\t/**\n\t * @dev Transfer tokens from one address to another.\n\t * Note that while this function emits an Approval event, this is not required as per the specification,\n\t * and other compliant implementations may not emit the event.\n\t * @param from address The address which you want to send tokens from\n\t * @param to address The address which you want to transfer to\n\t * @param value uint256 the amount of tokens to be transferred\n\t */\n\tfunction transferFrom(\n\t\taddress from,\n\t\taddress to,\n\t\tuint256 value\n\t) public returns (bool) {\n\t\tif (\n\t\t\tmsg.sender != CelebrityExchangeAddress &&\n\t\t\tmsg.sender != FANCExchangeAddress &&\n\t\t\tmsg.sender != FANCICOAddress\n\t\t) {\n\t\t\trequire(\n\t\t\t\tallowance(from, msg.sender) >= value,\n\t\t\t\t\"Insufficient allowance in token\"\n\t\t\t);\n\t\t\t_allowed[from][msg.sender] = _allowed[from][msg.sender].sub(value);\n\t\t}\n\n\t\trequire(_transfer(from, to, value), \"Transfer Failed\");\n\t\temit Approval(from, msg.sender, _allowed[from][msg.sender]);\n\t\treturn true;\n\t}\n\n\t/**\n\t * @dev Increase the amount of tokens that an owner allowed to a spender.\n\t * approve should be called when allowed_[_spender] == 0. To increment\n\t * allowed value is better to use this function to avoid 2 calls (and wait until\n\t * the first transaction is mined)\n\t * From MonolithDAO Token.sol\n\t * Emits an Approval event.\n\t * @param spender The address which will spend the funds.\n\t * @param addedValue The amount of tokens to increase the allowance by.\n\t */\n\tfunction increaseAllowance(address spender, uint256 addedValue)\n\t\tpublic\n\t\treturns (bool)\n\t{\n\t\trequire(\n\t\t\tspender != address(0),\n\t\t\t\"Spending delegation cannot be assigned to 0x00 address\"\n\t\t);\n\n\t\t_allowed[msg.sender][spender] = _allowed[msg.sender][spender].add(\n\t\t\taddedValue\n\t\t);\n\t\temit Approval(msg.sender, spender, _allowed[msg.sender][spender]);\n\t\treturn true;\n\t}\n\n\t/**\n\t * @dev Decrease the amount of tokens that an owner allowed to a spender.\n\t * approve should be called when allowed_[_spender] == 0. To decrement\n\t * allowed value is better to use this function to avoid 2 calls (and wait until\n\t * the first transaction is mined)\n\t * From MonolithDAO Token.sol\n\t * Emits an Approval event.\n\t * @param spender The address which will spend the funds.\n\t * @param subtractedValue The amount of tokens to decrease the allowance by.\n\t */\n\tfunction decreaseAllowance(address spender, uint256 subtractedValue)\n\t\tpublic\n\t\treturns (bool)\n\t{\n\t\trequire(\n\t\t\tspender != address(0),\n\t\t\t\"Spending delegation cannot be assigned to 0x00 address\"\n\t\t);\n\n\t\t_allowed[msg.sender][spender] = _allowed[msg.sender][spender].sub(\n\t\t\tsubtractedValue\n\t\t);\n\t\temit Approval(msg.sender, spender, _allowed[msg.sender][spender]);\n\t\treturn true;\n\t}\n\n\t/**\n\t * @dev Transfer token for a specified addresses\n\t * @param from The address to transfer from.\n\t * @param to The address to transfer to.\n\t * @param value The amount to be transferred.\n\t */\n\tfunction _transfer(\n\t\taddress from,\n\t\taddress to,\n\t\tuint256 value\n\t) internal returns (bool) {\n\t\trequire(to != address(0), \"Cannot transfer to 0x00 address\");\n\n\t\t_balances[from] = _balances[from].sub(value);\n\t\t_balances[to] = _balances[to].add(value);\n\t\temit Transfer(from, to, value);\n\t\treturn true;\n\t}\n\n\t/**\n\t * @dev Internal function that mints an amount of the token and assigns it to\n\t * an account. This encapsulates the modification of balances such that the\n\t * proper events are emitted.\n\t * @param account The account that will receive the created tokens.\n\t * @param value The amount that will be created.\n\t */\n\tfunction _mint(address account, uint256 value) internal onlyOwner {\n\t\trequire(account != address(0), \"Cannot mint to 0x00 address\");\n\n\t\t_totalSupply = _totalSupply.add(value);\n\t\t_balances[account] = _balances[account].add(value);\n\t\temit Transfer(address(0), account, value);\n\t}\n\n\t/**\n\t * @dev Internal function that burns an amount of the token of a given\n\t * account.\n\t * @param account The account whose tokens will be burnt.\n\t * @param value The amount that will be burnt.\n\t */\n\tfunction _burn(address account, uint256 value) internal onlyOwner {\n\t\trequire(account != address(0), \"Cannot burn from 0x00 address\");\n\n\t\t_totalSupply = _totalSupply.sub(value);\n\t\t_balances[account] = _balances[account].sub(value);\n\t\temit Transfer(account, address(0), value);\n\t}\n\n\t/**\n\t * @dev Internal function that burns an amount of the token of a given\n\t * account, deducting from the sender's allowance for said account. Uses the\n\t * internal burn function.\n\t * Emits an Approval event (reflecting the reduced allowance).\n\t * @param account The account whose tokens will be burnt.\n\t * @param value The amount that will be burnt.\n\t */\n\tfunction _burnFrom(address account, uint256 value) internal onlyOwner {\n\t\t_allowed[account][msg.sender] = _allowed[account][msg.sender].sub(value);\n\t\t_burn(account, value);\n\t\temit Approval(account, msg.sender, _allowed[account][msg.sender]);\n\t}\n\n\tfunction changeExchangeAddresses(\n\t\taddress _CelebrityExchangeAddress,\n\t\taddress _FANCExchangeAddress,\n\t\taddress _FANCICOAddress\n\t) public onlyOwner {\n\t\tCelebrityExchangeAddress = _CelebrityExchangeAddress;\n\t\tFANCExchangeAddress = _FANCExchangeAddress;\n\t\tFANCICOAddress = _FANCICOAddress;\n\t}\n\n\tfunction toggleExchangeTradeStatus() public onlyOwner {\n\t\ttradedOnFANCExchange = !tradedOnFANCExchange;\n\t}\n}\n",
  "sourcePath": "/Users/raghu/Fanance/fanance-dapp/contracts/FANC-token-contracts/FANCToken.sol",
  "compiler": {
    "name": "solc",
    "version": "0.5.16+commit.9c3226ce.Emscripten.clang"
  },
  "schemaVersion": "3.2.3",
  "updatedAt": "2021-01-02T13:11:13.789Z",
  "networkType": "ethereum",
  "devdoc": {
    "details": "Implementation of the basic standard token. https://github.com/ethereum/EIPs/blob/master/EIPS/eip-20.md Originally based on code by FirstBlood: https://github.com/Firstbloodio/token/blob/master/smart_contract/FirstBloodToken.sol * This implementation emits additional Approval events, allowing applications to reconstruct the allowance status for all accounts just by listening to said events. Note that this isn't required by the specification, and other compliant implementations may not do it.",
    "methods": {
      "allowance(address,address)": {
        "details": "Function to check the amount of tokens that an owner allowed to a spender.",
        "params": {
          "owner": "address The address which owns the funds.",
          "spender": "address The address which will spend the funds."
        },
        "return": "A uint256 specifying the amount of tokens still available for the spender."
      },
      "approve(address,uint256)": {
        "details": "Approve the passed address to spend the specified amount of tokens on behalf of msg.sender. Beware that changing an allowance with this method brings the risk that someone may use both the old and the new allowance by unfortunate transaction ordering. One possible solution to mitigate this race condition is to first reduce the spender's allowance to 0 and set the desired value afterwards: https://github.com/ethereum/EIPs/issues/20#issuecomment-263524729",
        "params": {
          "spender": "The address which will spend the funds.",
          "value": "The amount of tokens to be spent."
        }
      },
      "balanceOf(address)": {
        "details": "Gets the balance of the specified address.",
        "params": {
          "owner": "The address to query the balance of."
        },
        "return": "An uint256 representing the amount owned by the passed address."
      },
      "constructor": {
        "details": "Constructor to initialize the ERC-20 token",
        "params": {
          "_name": "Name of the token",
          "_supplyInWholeNumber": "Total supply of the tokens => enter whole numbre and it will be converted automatically",
          "_symbol": "Symbol used for trading and wallet display purposes"
        }
      },
      "decreaseAllowance(address,uint256)": {
        "details": "Decrease the amount of tokens that an owner allowed to a spender. approve should be called when allowed_[_spender] == 0. To decrement allowed value is better to use this function to avoid 2 calls (and wait until the first transaction is mined) From MonolithDAO Token.sol Emits an Approval event.",
        "params": {
          "spender": "The address which will spend the funds.",
          "subtractedValue": "The amount of tokens to decrease the allowance by."
        }
      },
      "increaseAllowance(address,uint256)": {
        "details": "Increase the amount of tokens that an owner allowed to a spender. approve should be called when allowed_[_spender] == 0. To increment allowed value is better to use this function to avoid 2 calls (and wait until the first transaction is mined) From MonolithDAO Token.sol Emits an Approval event.",
        "params": {
          "addedValue": "The amount of tokens to increase the allowance by.",
          "spender": "The address which will spend the funds."
        }
      },
      "isOwner()": {
        "return": "true if `msg.sender` is the owner of the contract."
      },
      "owner()": {
        "return": "the address of the owner."
      },
      "pause()": {
        "details": "Called by a pauser to pause, triggers stopped state."
      },
      "paused()": {
        "details": "Returns true if the contract is paused, and false otherwise."
      },
      "renounceOwnership()": {
        "details": "Allows the current owner to relinquish control of the contract."
      },
      "totalSupply()": {
        "details": "Total number of tokens in existence"
      },
      "transfer(address,uint256)": {
        "details": "Transfer token for a specified address",
        "params": {
          "to": "The address to transfer to.",
          "value": "The amount to be transferred."
        }
      },
      "transferFrom(address,address,uint256)": {
        "details": "Transfer tokens from one address to another. Note that while this function emits an Approval event, this is not required as per the specification, and other compliant implementations may not emit the event.",
        "params": {
          "from": "address The address which you want to send tokens from",
          "to": "address The address which you want to transfer to",
          "value": "uint256 the amount of tokens to be transferred"
        }
      },
      "transferOwnership(address)": {
        "details": "Allows the current owner to transfer control of the contract to a newOwner.",
        "params": {
          "newOwner": "The address to transfer ownership to."
        }
      },
      "unpause()": {
        "details": "Called by a pauser to unpause, returns to normal state."
      }
    },
    "title": "Standard ERC20 token"
  },
  "userdoc": {
    "methods": {
      "renounceOwnership()": {
        "notice": "Renouncing to ownership will leave the contract without an owner. It will not be possible to call the functions with the `onlyOwner` modifier anymore."
      }
    }
  }
}