{
  "contractName": "FANCTokenICO",
  "abi": [
    {
      "inputs": [
        {
          "internalType": "contract FANCTOKEN",
          "name": "_token",
          "type": "address"
        },
        {
          "internalType": "address",
          "name": "_WETHTokenAddress",
          "type": "address"
        },
        {
          "internalType": "address",
          "name": "_ICOTreasury",
          "type": "address"
        }
      ],
      "payable": false,
      "stateMutability": "nonpayable",
      "type": "constructor"
    },
    {
      "anonymous": false,
      "inputs": [
        {
          "indexed": false,
          "internalType": "string",
          "name": "contractName",
          "type": "string"
        },
        {
          "indexed": false,
          "internalType": "string",
          "name": "operation",
          "type": "string"
        },
        {
          "indexed": false,
          "internalType": "string",
          "name": "error",
          "type": "string"
        },
        {
          "indexed": false,
          "internalType": "string",
          "name": "info",
          "type": "string"
        },
        {
          "indexed": false,
          "internalType": "address",
          "name": "user",
          "type": "address"
        },
        {
          "indexed": false,
          "internalType": "uint256",
          "name": "blockNumber",
          "type": "uint256"
        }
      ],
      "name": "Failure",
      "type": "event"
    },
    {
      "anonymous": false,
      "inputs": [
        {
          "indexed": false,
          "internalType": "uint256",
          "name": "tokenPrice",
          "type": "uint256"
        },
        {
          "indexed": false,
          "internalType": "uint256",
          "name": "blockNumber",
          "type": "uint256"
        },
        {
          "indexed": false,
          "internalType": "uint256",
          "name": "raisedAmountInCurrentRound",
          "type": "uint256"
        },
        {
          "indexed": false,
          "internalType": "uint256",
          "name": "raisedAmountTotal",
          "type": "uint256"
        },
        {
          "indexed": false,
          "internalType": "uint256",
          "name": "numberOfInvestors",
          "type": "uint256"
        }
      ],
      "name": "ICORoundEnded",
      "type": "event"
    },
    {
      "anonymous": false,
      "inputs": [
        {
          "indexed": false,
          "internalType": "uint256",
          "name": "tokenPrice",
          "type": "uint256"
        },
        {
          "indexed": false,
          "internalType": "uint256",
          "name": "blockNumber",
          "type": "uint256"
        },
        {
          "indexed": false,
          "internalType": "uint256",
          "name": "minInvestment",
          "type": "uint256"
        },
        {
          "indexed": false,
          "internalType": "uint256",
          "name": "maxInvestment",
          "type": "uint256"
        }
      ],
      "name": "ICORoundStarted",
      "type": "event"
    },
    {
      "anonymous": false,
      "inputs": [
        {
          "indexed": false,
          "internalType": "uint256",
          "name": "ICORound",
          "type": "uint256"
        },
        {
          "indexed": false,
          "internalType": "address",
          "name": "investor",
          "type": "address"
        },
        {
          "indexed": false,
          "internalType": "uint256",
          "name": "value",
          "type": "uint256"
        },
        {
          "indexed": false,
          "internalType": "uint256",
          "name": "tokens",
          "type": "uint256"
        }
      ],
      "name": "InvestmentReceived",
      "type": "event"
    },
    {
      "anonymous": false,
      "inputs": [
        {
          "indexed": true,
          "internalType": "address",
          "name": "previousOwner",
          "type": "address"
        },
        {
          "indexed": true,
          "internalType": "address",
          "name": "newOwner",
          "type": "address"
        }
      ],
      "name": "OwnershipTransferred",
      "type": "event"
    },
    {
      "payable": true,
      "stateMutability": "payable",
      "type": "fallback"
    },
    {
      "constant": true,
      "inputs": [],
      "name": "ICORound",
      "outputs": [
        {
          "internalType": "uint256",
          "name": "",
          "type": "uint256"
        }
      ],
      "payable": false,
      "stateMutability": "view",
      "type": "function"
    },
    {
      "constant": true,
      "inputs": [],
      "name": "ICOTreasury",
      "outputs": [
        {
          "internalType": "address",
          "name": "",
          "type": "address"
        }
      ],
      "payable": false,
      "stateMutability": "view",
      "type": "function"
    },
    {
      "constant": true,
      "inputs": [],
      "name": "WETHTokenAddress",
      "outputs": [
        {
          "internalType": "address",
          "name": "",
          "type": "address"
        }
      ],
      "payable": false,
      "stateMutability": "view",
      "type": "function"
    },
    {
      "constant": true,
      "inputs": [],
      "name": "icoState",
      "outputs": [
        {
          "internalType": "enum FANCTokenICO.State",
          "name": "",
          "type": "uint8"
        }
      ],
      "payable": false,
      "stateMutability": "view",
      "type": "function"
    },
    {
      "constant": true,
      "inputs": [
        {
          "internalType": "address",
          "name": "",
          "type": "address"
        }
      ],
      "name": "investmentOf",
      "outputs": [
        {
          "internalType": "uint256",
          "name": "amount",
          "type": "uint256"
        },
        {
          "internalType": "uint256",
          "name": "tokens",
          "type": "uint256"
        },
        {
          "internalType": "bool",
          "name": "existingInvestor",
          "type": "bool"
        }
      ],
      "payable": false,
      "stateMutability": "view",
      "type": "function"
    },
    {
      "constant": true,
      "inputs": [],
      "name": "isOwner",
      "outputs": [
        {
          "internalType": "bool",
          "name": "",
          "type": "bool"
        }
      ],
      "payable": false,
      "stateMutability": "view",
      "type": "function"
    },
    {
      "constant": true,
      "inputs": [],
      "name": "maxInvestment",
      "outputs": [
        {
          "internalType": "uint256",
          "name": "",
          "type": "uint256"
        }
      ],
      "payable": false,
      "stateMutability": "view",
      "type": "function"
    },
    {
      "constant": true,
      "inputs": [],
      "name": "minInvestment",
      "outputs": [
        {
          "internalType": "uint256",
          "name": "",
          "type": "uint256"
        }
      ],
      "payable": false,
      "stateMutability": "view",
      "type": "function"
    },
    {
      "constant": true,
      "inputs": [],
      "name": "numberOfInvestorsInCurrentRound",
      "outputs": [
        {
          "internalType": "uint256",
          "name": "",
          "type": "uint256"
        }
      ],
      "payable": false,
      "stateMutability": "view",
      "type": "function"
    },
    {
      "constant": true,
      "inputs": [],
      "name": "owner",
      "outputs": [
        {
          "internalType": "address",
          "name": "",
          "type": "address"
        }
      ],
      "payable": false,
      "stateMutability": "view",
      "type": "function"
    },
    {
      "constant": true,
      "inputs": [],
      "name": "raisedAmountInCurrentRound",
      "outputs": [
        {
          "internalType": "uint256",
          "name": "",
          "type": "uint256"
        }
      ],
      "payable": false,
      "stateMutability": "view",
      "type": "function"
    },
    {
      "constant": true,
      "inputs": [],
      "name": "raisedAmountTotal",
      "outputs": [
        {
          "internalType": "uint256",
          "name": "",
          "type": "uint256"
        }
      ],
      "payable": false,
      "stateMutability": "view",
      "type": "function"
    },
    {
      "constant": false,
      "inputs": [],
      "name": "renounceOwnership",
      "outputs": [],
      "payable": false,
      "stateMutability": "nonpayable",
      "type": "function"
    },
    {
      "constant": true,
      "inputs": [],
      "name": "token",
      "outputs": [
        {
          "internalType": "contract FANCTOKEN",
          "name": "",
          "type": "address"
        }
      ],
      "payable": false,
      "stateMutability": "view",
      "type": "function"
    },
    {
      "constant": true,
      "inputs": [],
      "name": "tokenPrice",
      "outputs": [
        {
          "internalType": "uint256",
          "name": "",
          "type": "uint256"
        }
      ],
      "payable": false,
      "stateMutability": "view",
      "type": "function"
    },
    {
      "constant": false,
      "inputs": [
        {
          "internalType": "address",
          "name": "newOwner",
          "type": "address"
        }
      ],
      "name": "transferOwnership",
      "outputs": [],
      "payable": false,
      "stateMutability": "nonpayable",
      "type": "function"
    },
    {
      "constant": false,
      "inputs": [],
      "name": "halt",
      "outputs": [],
      "payable": false,
      "stateMutability": "nonpayable",
      "type": "function"
    },
    {
      "constant": false,
      "inputs": [],
      "name": "unhalt",
      "outputs": [],
      "payable": false,
      "stateMutability": "nonpayable",
      "type": "function"
    },
    {
      "constant": true,
      "inputs": [],
      "name": "getCurrentState",
      "outputs": [
        {
          "internalType": "enum FANCTokenICO.State",
          "name": "",
          "type": "uint8"
        }
      ],
      "payable": false,
      "stateMutability": "view",
      "type": "function"
    },
    {
      "constant": false,
      "inputs": [
        {
          "internalType": "uint256",
          "name": "_tokenPrice",
          "type": "uint256"
        },
        {
          "internalType": "uint256",
          "name": "_minInvestment",
          "type": "uint256"
        },
        {
          "internalType": "uint256",
          "name": "_maxInvestment",
          "type": "uint256"
        }
      ],
      "name": "startNextRound",
      "outputs": [],
      "payable": false,
      "stateMutability": "nonpayable",
      "type": "function"
    },
    {
      "constant": false,
      "inputs": [],
      "name": "endCurrentRound",
      "outputs": [],
      "payable": false,
      "stateMutability": "nonpayable",
      "type": "function"
    },
    {
      "constant": false,
      "inputs": [
        {
          "internalType": "uint256",
          "name": "_amount",
          "type": "uint256"
        }
      ],
      "name": "invest",
      "outputs": [
        {
          "internalType": "bool",
          "name": "",
          "type": "bool"
        }
      ],
      "payable": false,
      "stateMutability": "nonpayable",
      "type": "function"
    },
    {
      "constant": false,
      "inputs": [],
      "name": "refundAll",
      "outputs": [],
      "payable": false,
      "stateMutability": "nonpayable",
      "type": "function"
    },
    {
      "constant": true,
      "inputs": [
        {
          "internalType": "uint256",
          "name": "index",
          "type": "uint256"
        }
      ],
      "name": "investmentDetails",
      "outputs": [
        {
          "internalType": "uint256",
          "name": "amount",
          "type": "uint256"
        },
        {
          "internalType": "uint256",
          "name": "tokens",
          "type": "uint256"
        }
      ],
      "payable": false,
      "stateMutability": "view",
      "type": "function"
    },
    {
      "constant": true,
      "inputs": [],
      "name": "getAllInvestors",
      "outputs": [
        {
          "internalType": "address[]",
          "name": "investorsList",
          "type": "address[]"
        }
      ],
      "payable": false,
      "stateMutability": "view",
      "type": "function"
    },
    {
      "constant": false,
      "inputs": [
        {
          "internalType": "contract FANCTOKEN",
          "name": "_token",
          "type": "address"
        },
        {
          "internalType": "address",
          "name": "_WETHTokenAddress",
          "type": "address"
        },
        {
          "internalType": "address",
          "name": "_ICOTreasury",
          "type": "address"
        }
      ],
      "name": "changeAddresses",
      "outputs": [],
      "payable": false,
      "stateMutability": "nonpayable",
      "type": "function"
    },
    {
      "constant": false,
      "inputs": [
        {
          "internalType": "uint256",
          "name": "_amount",
          "type": "uint256"
        }
      ],
      "name": "investAsAdmin",
      "outputs": [],
      "payable": false,
      "stateMutability": "nonpayable",
      "type": "function"
    },
    {
      "constant": true,
      "inputs": [],
      "name": "getLatestPrice",
      "outputs": [
        {
          "internalType": "uint256",
          "name": "",
          "type": "uint256"
        }
      ],
      "payable": false,
      "stateMutability": "view",
      "type": "function"
    },
    {
      "constant": true,
      "inputs": [],
      "name": "getNumberOfInvestors",
      "outputs": [
        {
          "internalType": "uint256",
          "name": "",
          "type": "uint256"
        }
      ],
      "payable": false,
      "stateMutability": "view",
      "type": "function"
    }
  ],
  "bytecode": "0x608060405234801561001057600080fd5b50604051611c72380380611c728339818101604052606081101561003357600080fd5b5080516020820151604092830151600080546001600160a01b031916331780825594519394929391926001600160a01b0316917f8be0079c531659141344cd1fd0a4f28419497f9722a3daafe3b4186f6b6457e0908290a3600c80546000600481905560078190556006819055600581905560088190556009819055600280546001600160a01b03199081166001600160a01b03978816179091556001600160a81b0319909216958516959095179091556001805490911691909216179055611b7090819061010290396000f3fe6080604052600436106101c15760003560e01c8063804a8521116100f7578063c08a96ab11610095578063e51c94fb11610064578063e51c94fb14610572578063f2fde38b14610587578063f4e3bdc8146105ba578063fc0c546a146105cf576101c1565b8063c08a96ab146104ce578063cb02d427146104e3578063cb3e64fd146104f8578063d0a2f2c41461050d576101c1565b80638e15f473116100d15780638e15f4731461043c5780638f32d59b1461045157806395c08f92146104665780639dd9a274146104b9576101c1565b8063804a8521146103c05780638ac2c680146103f65780638da5cb5b1461040b576101c1565b806338e771ab116101645780636281f4311161013e5780636281f4311461033e5780636a869d6814610381578063715018a6146103965780637ff9b596146103ab576101c1565b806338e771ab146102ff57806344f38756146103145780635ed7ca5b14610329576101c1565b806318c1d2e5116101a057806318c1d2e51461022e5780632afcf480146102435780632e8a9cc414610281578063378aa701146102c6576101c1565b80622e1316146101c657806303ca2965146101ed578063050eba1714610202575b600080fd5b3480156101d257600080fd5b506101db6105e4565b60408051918252519081900360200190f35b3480156101f957600080fd5b506101db6105ea565b34801561020e57600080fd5b5061022c6004803603602081101561022557600080fd5b50356105f0565b005b34801561023a57600080fd5b506101db610776565b34801561024f57600080fd5b5061026d6004803603602081101561026657600080fd5b503561077c565b604080519115158252519081900360200190f35b34801561028d57600080fd5b5061022c600480360360608110156102a457600080fd5b506001600160a01b038135811691602081013582169160409091013516610e49565b3480156102d257600080fd5b506102db610ecb565b604051808260038111156102eb57fe5b60ff16815260200191505060405180910390f35b34801561030b57600080fd5b5061022c610edb565b34801561032057600080fd5b506102db611046565b34801561033557600080fd5b5061022c611056565b34801561034a57600080fd5b506103686004803603602081101561036157600080fd5b50356110b6565b6040805192835260208301919091528051918290030190f35b34801561038d57600080fd5b506101db61117a565b3480156103a257600080fd5b5061022c611180565b3480156103b757600080fd5b506101db61120d565b3480156103cc57600080fd5b5061022c600480360360608110156103e357600080fd5b5080359060208101359060400135611213565b34801561040257600080fd5b506101db6113fd565b34801561041757600080fd5b50610420611403565b604080516001600160a01b039092168252519081900360200190f35b34801561044857600080fd5b506101db611412565b34801561045d57600080fd5b5061026d611418565b34801561047257600080fd5b506104996004803603602081101561048957600080fd5b50356001600160a01b0316611429565b604080519384526020840192909252151582820152519081900360600190f35b3480156104c557600080fd5b5061042061144d565b3480156104da57600080fd5b506101db61145c565b3480156104ef57600080fd5b50610420611462565b34801561050457600080fd5b5061022c611471565b34801561051957600080fd5b506105226114ce565b60408051602080825283518183015283519192839290830191858101910280838360005b8381101561055e578181015183820152602001610546565b505050509050019250505060405180910390f35b34801561057e57600080fd5b506101db611573565b34801561059357600080fd5b5061022c600480360360208110156105aa57600080fd5b50356001600160a01b0316611579565b3480156105c657600080fd5b5061022c6115c5565b3480156105db57600080fd5b506104206117a0565b60085481565b60055481565b6105f8611418565b6106335760405162461bcd60e51b8152600401808060200182810382526029815260200180611a4b6029913960400191505060405180910390fd5b600c60009054906101000a90046001600160a01b03166001600160a01b0316630f56c0a66040518163ffffffff1660e01b815260040160206040518083038186803b15801561068157600080fd5b505afa158015610695573d6000803e3d6000fd5b505050506040513d60208110156106ab57600080fd5b5051156106ed576040805162461bcd60e51b81526020600482018190526024820152600080516020611b1c833981519152604482015290519081900360640190fd5b600254604080516323b872dd60e01b81523360048201523060248201526044810184905290516001600160a01b03909216916323b872dd916064808201926020929091908290030181600087803b15801561074757600080fd5b505af115801561075b573d6000803e3d6000fd5b505050506040513d602081101561077157600080fd5b505050565b60045481565b600c54604080516307ab605360e11b815290516000926001600160a01b031691630f56c0a6916004808301926020929190829003018186803b1580156107c157600080fd5b505afa1580156107d5573d6000803e3d6000fd5b505050506040513d60208110156107eb57600080fd5b50511561082d576040805162461bcd60e51b81526020600482018190526024820152600080516020611b1c833981519152604482015290519081900360640190fd5b610835610ecb565b600c805460ff60a01b1916600160a01b83600381111561085157fe5b02179055506001600c54600160a01b900460ff16600381111561087057fe5b146108bd576040805162461bcd60e51b815260206004820152601860248201527749434f206e6f74206163746976656c792072756e6e696e6760401b604482015290519081900360640190fd5b600954821015806108d057506008548211155b61090b5760405162461bcd60e51b8152600401808060200182810382526023815260200180611aab6023913960400191505060405180910390fd5b60006109ac6003546109a0600c60009054906101000a90046001600160a01b03166001600160a01b031663313ce5676040518163ffffffff1660e01b815260040160206040518083038186803b15801561096457600080fd5b505afa158015610978573d6000803e3d6000fd5b505050506040513d602081101561098e57600080fd5b50518690600a0a63ffffffff6117af16565b9063ffffffff61181116565b6005549091506109c2908463ffffffff61185316565b6005556006546109d8908463ffffffff61185316565b600655600c5460408051638da5cb5b60e01b815290516001600160a01b03909216916323b872dd918391638da5cb5b91600480820192602092909190829003018186803b158015610a2857600080fd5b505afa158015610a3c573d6000803e3d6000fd5b505050506040513d6020811015610a5257600080fd5b5051604080516001600160e01b031960e085901b1681526001600160a01b039092166004830152336024830152604482018590525160648083019260209291908290030181600087803b158015610aa857600080fd5b505af1158015610abc573d6000803e3d6000fd5b505050506040513d6020811015610ad257600080fd5b5050600254604080516370a0823160e01b8152336004820152905185926001600160a01b0316916370a08231916024808301926020929190829003018186803b158015610b1e57600080fd5b505afa158015610b32573d6000803e3d6000fd5b505050506040513d6020811015610b4857600080fd5b50511015610b875760405162461bcd60e51b8152600401808060200182810382526038815260200180611a136038913960400191505060405180910390fd5b60025460408051636eb1769f60e11b8152336004820152306024820152905185926001600160a01b03169163dd62ed3e916044808301926020929190829003018186803b158015610bd757600080fd5b505afa158015610beb573d6000803e3d6000fd5b505050506040513d6020811015610c0157600080fd5b50511015610c405760405162461bcd60e51b8152600401808060200182810382526037815260200180611a746037913960400191505060405180910390fd5b600254600154604080516323b872dd60e01b81523360048201526001600160a01b03928316602482015260448101879052905191909216916323b872dd9160648083019260209291908290030181600087803b158015610c9f57600080fd5b505af1158015610cb3573d6000803e3d6000fd5b505050506040513d6020811015610cc957600080fd5b5050600754610cdf90600163ffffffff61185316565b600755610cea6119ef565b50336000908152600b60209081526040918290208251606081018452815480825260018301549382019390935260029091015460ff16151592810192909252610d39908563ffffffff61185316565b81526020810151610d50908363ffffffff61185316565b602080830191909152336000908152600b909152604090206002015460ff16610db657600a80546001810182556000919091527fc65a7bb8d6351c1cf70c95a316cc6a92839c986682d98bc35f958f4883f9d2a80180546001600160a01b031916331790555b60016040828101828152336000818152600b60209081529084902086518155818701519581019590955591516002909401805460ff19169415159490941790935560045482519081529081019290925281810186905260608201849052517f4684230a49a39b13c7e5c4d8d9c524a2ee99cdd5cfdb881c4edb27e6daef626d916080908290030190a15060019392505050565b610e51611418565b610e8c5760405162461bcd60e51b8152600401808060200182810382526029815260200180611a4b6029913960400191505060405180910390fd5b600c80546001600160a01b039485166001600160a01b031991821617909155600280549385169382169390931790925560018054919093169116179055565b600c54600160a01b900460ff1690565b610ee3611418565b610f1e5760405162461bcd60e51b8152600401808060200182810382526029815260200180611a4b6029913960400191505060405180910390fd5b60005b600a5481101561104357600254600a80546001600160a01b039092169163a9059cbb919084908110610f4f57fe5b9060005260206000200160009054906101000a90046001600160a01b0316600b6000600a8681548110610f7e57fe5b9060005260206000200160009054906101000a90046001600160a01b03166001600160a01b03166001600160a01b03168152602001908152602001600020600001546040518363ffffffff1660e01b815260040180836001600160a01b03166001600160a01b0316815260200182815260200192505050602060405180830381600087803b15801561100f57600080fd5b505af1158015611023573d6000803e3d6000fd5b505050506040513d602081101561103957600080fd5b5050600101610f21565b50565b600c54600160a01b900460ff1681565b61105e611418565b6110995760405162461bcd60e51b8152600401808060200182810382526029815260200180611a4b6029913960400191505060405180910390fd5b600c80546003919060ff60a01b1916600160a01b835b0217905550565b6000806110c1611418565b6110fc5760405162461bcd60e51b8152600401808060200182810382526029815260200180611a4b6029913960400191505060405180910390fd5b600b6000600a858154811061110d57fe5b60009182526020808320909101546001600160a01b03168352820192909252604001812054600a80549192600b929091908790811061114857fe5b60009182526020808320909101546001600160a01b031683528201929092526040019020600101549092509050915091565b60075481565b611188611418565b6111c35760405162461bcd60e51b8152600401808060200182810382526029815260200180611a4b6029913960400191505060405180910390fd5b600080546040516001600160a01b03909116907f8be0079c531659141344cd1fd0a4f28419497f9722a3daafe3b4186f6b6457e0908390a3600080546001600160a01b0319169055565b60035481565b61121b611418565b6112565760405162461bcd60e51b8152600401808060200182810382526029815260200180611a4b6029913960400191505060405180910390fd5b600c60009054906101000a90046001600160a01b03166001600160a01b0316630f56c0a66040518163ffffffff1660e01b815260040160206040518083038186803b1580156112a457600080fd5b505afa1580156112b8573d6000803e3d6000fd5b505050506040513d60208110156112ce57600080fd5b505115611310576040805162461bcd60e51b81526020600482018190526024820152600080516020611b1c833981519152604482015290519081900360640190fd5b6001600c54600160a01b900460ff16600381111561132a57fe5b141561137d576040805162461bcd60e51b815260206004820152601f60248201527f4578697374696e6720726f756e64206973207374696c6c2072756e6e696e6700604482015290519081900360640190fd5b6003839055600c805460ff60a01b1916600160a01b1790556004546113a3906001611853565b600455600982905560088190556003546040805191825243602083015281810183905260608201849052517fa2dc91b93761a78a96034f6c0363a615bcec828da0fd2c5c34da148a7d481e599181900360800190a1505050565b60095481565b6000546001600160a01b031690565b60035490565b6000546001600160a01b0316331490565b600b6020526000908152604090208054600182015460029092015490919060ff1683565b6002546001600160a01b031681565b60065481565b6001546001600160a01b031681565b611479611418565b6114b45760405162461bcd60e51b8152600401808060200182810382526029815260200180611a4b6029913960400191505060405180910390fd5b600c80546001919060ff60a01b1916600160a01b836110af565b60606114d8611418565b6115135760405162461bcd60e51b8152600401808060200182810382526029815260200180611a4b6029913960400191505060405180910390fd5b600a80548060200260200160405190810160405280929190818152602001828054801561156957602002820191906000526020600020905b81546001600160a01b0316815260019091019060200180831161154b575b5050505050905090565b600a5490565b611581611418565b6115bc5760405162461bcd60e51b8152600401808060200182810382526029815260200180611a4b6029913960400191505060405180910390fd5b611043816118ad565b6115cd611418565b6116085760405162461bcd60e51b8152600401808060200182810382526029815260200180611a4b6029913960400191505060405180910390fd5b600c60009054906101000a90046001600160a01b03166001600160a01b0316630f56c0a66040518163ffffffff1660e01b815260040160206040518083038186803b15801561165657600080fd5b505afa15801561166a573d6000803e3d6000fd5b505050506040513d602081101561168057600080fd5b5051156116c2576040805162461bcd60e51b81526020600482018190526024820152600080516020611b1c833981519152604482015290519081900360640190fd5b6001600c54600160a01b900460ff1660038111156116dc57fe5b14611729576040805162461bcd60e51b815260206004820152601860248201527749434f206e6f74206163746976656c792072756e6e696e6760401b604482015290519081900360640190fd5b600c805460ff60a01b1916600160a11b179055600354600654600554600754604080519485524360208601528481019390935260608401919091526080830152517fc4312f94a738fee80fbd976676e29ef90dd886e2a823dc5467d086f27d8bf5499181900360a00190a160006007819055600655565b600c546001600160a01b031681565b6000826117be5750600061180b565b828202828482816117cb57fe5b04146118085760405162461bcd60e51b8152600401808060200182810382526021815260200180611ace6021913960400191505060405180910390fd5b90505b92915050565b600061180883836040518060400160405280601a81526020017f536166654d6174683a206469766973696f6e206279207a65726f00000000000081525061194d565b600082820183811015611808576040805162461bcd60e51b815260206004820152601b60248201527f536166654d6174683a206164646974696f6e206f766572666c6f770000000000604482015290519081900360640190fd5b6001600160a01b0381166118f25760405162461bcd60e51b815260040180806020018281038252602d815260200180611aef602d913960400191505060405180910390fd5b600080546040516001600160a01b03808516939216917f8be0079c531659141344cd1fd0a4f28419497f9722a3daafe3b4186f6b6457e091a3600080546001600160a01b0319166001600160a01b0392909216919091179055565b600081836119d95760405162461bcd60e51b81526004018080602001828103825283818151815260200191508051906020019080838360005b8381101561199e578181015183820152602001611986565b50505050905090810190601f1680156119cb5780820380516001836020036101000a031916815260200191505b509250505060405180910390fd5b5060008385816119e557fe5b0495945050505050565b60405180606001604052806000815260200160008152602001600015158152509056fe4e6f7420656e6f7567682062616c616e636520696e205745544820636f6e747261637420666f722074686973207472616e73616374696f6e4f4e4c5920434f4e5452414354204f574e45522043414e20504552464f524d204f5045524154494f4e4e6f7420656e6f75676820616c6c6f77616e636520696e205745544820636f6e747261637420666f7220746869732065786368616e6765496e766573746d656e74206f7574206f66206d696e20616e64206d61782072616e6765536166654d6174683a206d756c7469706c69636174696f6e206f766572666c6f7741444d494e20524f4c452043414e4e4f542042452041535349474e454420544f2030783030204144445245535346414e4320546f6b656e20697320747261646564206f6e2065786368616e6765a265627a7a723158208ef4c4b030d6e2b78382d9443622699c34d04165cfe0b2968b7e7cef621abb5464736f6c63430005100032",
  "source": "pragma solidity =0.5.16;\n\nimport \"../_supportingContracts/SafeMath.sol\";\nimport \"../_supportingContracts/Ownable.sol\";\nimport \"../_supportingContracts/MaticWETH.sol\";\nimport \"./FANCTOKEN.sol\";\n\ncontract FANCTokenICO is Ownable {\n    using SafeMath for uint256;\n\n    address public ICOTreasury;\n    address public WETHTokenAddress;\n\n    //token price in wei\n    uint256 public tokenPrice;\n\n    uint256 public ICORound;\n    uint256 public raisedAmountTotal;\n    uint256 public raisedAmountInCurrentRound;\n    uint256 public numberOfInvestorsInCurrentRound;\n\n    uint256 public maxInvestment;\n    uint256 public minInvestment;\n\n    struct investment {\n        uint256 amount;\n        uint256 tokens;\n        bool existingInvestor;\n    }\n    address[] private investors;\n    mapping(address => investment) public investmentOf;\n\n    FANCTOKEN public token;\n\n    enum State {notStarted, running, ended, halted}\n    State public icoState;\n\n    event InvestmentReceived(\n        uint256 ICORound,\n        address investor,\n        uint256 value,\n        uint256 tokens\n    );\n    event ICORoundStarted(\n        uint256 tokenPrice,\n        uint256 blockNumber,\n        uint256 minInvestment,\n        uint256 maxInvestment\n    );\n    event ICORoundEnded(\n        uint256 tokenPrice,\n        uint256 blockNumber,\n        uint256 raisedAmountInCurrentRound,\n        uint256 raisedAmountTotal,\n        uint256 numberOfInvestors\n    );\n    event Failure(\n        string contractName,\n        string operation,\n        string error,\n        string info,\n        address user,\n        uint256 blockNumber\n    );\n\n    constructor(\n        FANCTOKEN _token,\n        address _WETHTokenAddress,\n        address _ICOTreasury\n    ) public {\n        icoState = State.notStarted;\n        ICORound = 0;\n        numberOfInvestorsInCurrentRound = 0;\n        raisedAmountInCurrentRound = 0;\n        raisedAmountTotal = 0;\n        maxInvestment = 0;\n        minInvestment = 0;\n        WETHTokenAddress = _WETHTokenAddress;\n        token = _token;\n        ICOTreasury = _ICOTreasury;\n    }\n\n    modifier isNotTradedOnExchange() {\n        require(\n            !token.tradedOnFANCExchange(),\n            \"FANC Token is traded on exchange\"\n        );\n        _;\n    }\n\n    //emergency stop\n    function halt() public onlyOwner {\n        icoState = State.halted;\n    }\n\n    //restart\n    function unhalt() public onlyOwner {\n        icoState = State.running;\n    }\n\n    //returns ico state\n    function getCurrentState() public view returns (State) {\n        return icoState;\n    }\n\n    // start round\n    function startNextRound(\n        uint256 _tokenPrice,\n        uint256 _minInvestment,\n        uint256 _maxInvestment\n    ) public onlyOwner isNotTradedOnExchange {\n        require(icoState != State.running, \"Existing round is still running\");\n        tokenPrice = _tokenPrice;\n        icoState = State.running;\n        ICORound = ICORound.add(1);\n        minInvestment = _minInvestment;\n        maxInvestment = _maxInvestment;\n        emit ICORoundStarted(\n            tokenPrice,\n            block.number,\n            maxInvestment,\n            minInvestment\n        );\n    }\n\n    // end round\n    function endCurrentRound() public onlyOwner isNotTradedOnExchange {\n        require(icoState == State.running, \"ICO not actively running\");\n        icoState = State.ended;\n        emit ICORoundEnded(\n            tokenPrice,\n            block.number,\n            raisedAmountInCurrentRound,\n            raisedAmountTotal,\n            numberOfInvestorsInCurrentRound\n        );\n        numberOfInvestorsInCurrentRound = 0;\n        raisedAmountInCurrentRound = 0;\n    }\n\n    function invest(uint256 _amount)\n        public\n        isNotTradedOnExchange\n        returns (bool)\n    {\n        //invest only in running\n        icoState = getCurrentState();\n        require(icoState == State.running, \"ICO not actively running\");\n\n        require(\n            _amount >= minInvestment || _amount <= maxInvestment,\n            \"Investment out of min and max range\"\n        );\n\n        uint256 tokens = (_amount.mul(10**token.decimals())).div(tokenPrice);\n\n        raisedAmountTotal = raisedAmountTotal.add(_amount);\n        raisedAmountInCurrentRound = raisedAmountInCurrentRound.add(_amount);\n\n        //add tokens to investor balance from founder balance\n        token.transferFrom(token.owner(), msg.sender, tokens);\n\n        require(\n            WETHToken(WETHTokenAddress).balanceOf(msg.sender) >= _amount,\n            \"Not enough balance in WETH contract for this transaction\"\n        );\n        require(\n            WETHToken(WETHTokenAddress).allowance(msg.sender, address(this)) >=\n                _amount,\n            \"Not enough allowance in WETH contract for this exchange\"\n        );\n        WETHToken(WETHTokenAddress).transferFrom(\n            msg.sender,\n            ICOTreasury,\n            _amount\n        );\n\n        numberOfInvestorsInCurrentRound = numberOfInvestorsInCurrentRound.add(\n            1\n        );\n        investment memory tempInvestment = investmentOf[msg.sender];\n        tempInvestment.amount = tempInvestment.amount.add(_amount);\n        tempInvestment.tokens = tempInvestment.tokens.add(tokens);\n        if (!investmentOf[msg.sender].existingInvestor) {\n            investors.push(msg.sender);\n        }\n        tempInvestment.existingInvestor = true;\n        investmentOf[msg.sender] = tempInvestment;\n\n        //emit event\n        emit InvestmentReceived(ICORound, msg.sender, _amount, tokens);\n\n        return true;\n    }\n\n    function refundAll() public onlyOwner {\n        for (uint256 i = 0; i < investors.length; i++) {\n            WETHToken(WETHTokenAddress).transfer(\n                investors[i],\n                investmentOf[investors[i]].amount\n            );\n        }\n    }\n\n    function investmentDetails(uint256 index)\n        public\n        view\n        onlyOwner\n        returns (uint256 amount, uint256 tokens)\n    {\n        return (\n            investmentOf[investors[index]].amount,\n            investmentOf[investors[index]].tokens\n        );\n    }\n\n    function getAllInvestors()\n        public\n        view\n        onlyOwner\n        returns (address[] memory investorsList)\n    {\n        return investors;\n    }\n\n    function() external payable {\n        revert();\n    }\n\n    function changeAddresses(\n        FANCTOKEN _token,\n        address _WETHTokenAddress,\n        address _ICOTreasury\n    ) public onlyOwner {\n        token = _token;\n        WETHTokenAddress = _WETHTokenAddress;\n        ICOTreasury = _ICOTreasury;\n    }\n\n    function investAsAdmin(uint256 _amount)\n        public\n        onlyOwner\n        isNotTradedOnExchange\n    {\n        WETHToken(WETHTokenAddress).transferFrom(\n            msg.sender,\n            address(this),\n            _amount\n        );\n    }\n\n    function getLatestPrice() public view returns (uint256) {\n        return tokenPrice;\n    }\n\n    function getNumberOfInvestors() public view returns (uint256) {\n        return investors.length;\n    }\n}\n",
  "sourcePath": "/Users/raghu/Fanance/fanance-dapp/contracts/FANC-token-contracts/FANCTokenICO.sol",
  "compiler": {
    "name": "solc",
    "version": "0.5.16+commit.9c3226ce.Emscripten.clang"
  },
  "schemaVersion": "3.2.3",
  "updatedAt": "2021-01-01T20:39:08.371Z",
  "networkType": "ethereum",
  "devdoc": {
    "methods": {
      "isOwner()": {
        "return": "true if `msg.sender` is the owner of the contract."
      },
      "owner()": {
        "return": "the address of the owner."
      },
      "renounceOwnership()": {
        "details": "Allows the current owner to relinquish control of the contract."
      },
      "transferOwnership(address)": {
        "details": "Allows the current owner to transfer control of the contract to a newOwner.",
        "params": {
          "newOwner": "The address to transfer ownership to."
        }
      }
    }
  },
  "userdoc": {
    "methods": {
      "renounceOwnership()": {
        "notice": "Renouncing to ownership will leave the contract without an owner. It will not be possible to call the functions with the `onlyOwner` modifier anymore."
      }
    }
  }
}