{
  "contractName": "Oracle",
  "abi": [
    {
      "inputs": [
        {
          "internalType": "address",
          "name": "_FANCTokenAddress",
          "type": "address"
        },
        {
          "internalType": "address payable",
          "name": "_FANCTokenICOAddress",
          "type": "address"
        },
        {
          "internalType": "address",
          "name": "_FANCExchangeAddress",
          "type": "address"
        },
        {
          "internalType": "contract AggregatorV3Interface",
          "name": "_priceFeedContract",
          "type": "address"
        }
      ],
      "payable": false,
      "stateMutability": "nonpayable",
      "type": "constructor"
    },
    {
      "anonymous": false,
      "inputs": [
        {
          "indexed": false,
          "internalType": "address",
          "name": "FANCTokenAddress",
          "type": "address"
        }
      ],
      "name": "FANCTokenAddressSet",
      "type": "event"
    },
    {
      "anonymous": false,
      "inputs": [
        {
          "indexed": true,
          "internalType": "address",
          "name": "previousOwner",
          "type": "address"
        },
        {
          "indexed": true,
          "internalType": "address",
          "name": "newOwner",
          "type": "address"
        }
      ],
      "name": "OwnershipTransferred",
      "type": "event"
    },
    {
      "payable": true,
      "stateMutability": "payable",
      "type": "fallback"
    },
    {
      "constant": true,
      "inputs": [],
      "name": "FANCExchangeAddress",
      "outputs": [
        {
          "internalType": "address",
          "name": "",
          "type": "address"
        }
      ],
      "payable": false,
      "stateMutability": "view",
      "type": "function"
    },
    {
      "constant": true,
      "inputs": [],
      "name": "FANCTokenAddress",
      "outputs": [
        {
          "internalType": "address",
          "name": "",
          "type": "address"
        }
      ],
      "payable": false,
      "stateMutability": "view",
      "type": "function"
    },
    {
      "constant": true,
      "inputs": [],
      "name": "FANCTokenICOAddress",
      "outputs": [
        {
          "internalType": "address payable",
          "name": "",
          "type": "address"
        }
      ],
      "payable": false,
      "stateMutability": "view",
      "type": "function"
    },
    {
      "constant": true,
      "inputs": [],
      "name": "currentOracleType",
      "outputs": [
        {
          "internalType": "enum Oracle.OracleType",
          "name": "",
          "type": "uint8"
        }
      ],
      "payable": false,
      "stateMutability": "view",
      "type": "function"
    },
    {
      "constant": true,
      "inputs": [],
      "name": "isOwner",
      "outputs": [
        {
          "internalType": "bool",
          "name": "",
          "type": "bool"
        }
      ],
      "payable": false,
      "stateMutability": "view",
      "type": "function"
    },
    {
      "constant": true,
      "inputs": [],
      "name": "owner",
      "outputs": [
        {
          "internalType": "address",
          "name": "",
          "type": "address"
        }
      ],
      "payable": false,
      "stateMutability": "view",
      "type": "function"
    },
    {
      "constant": true,
      "inputs": [],
      "name": "priceFeedContract",
      "outputs": [
        {
          "internalType": "contract AggregatorV3Interface",
          "name": "",
          "type": "address"
        }
      ],
      "payable": false,
      "stateMutability": "view",
      "type": "function"
    },
    {
      "constant": false,
      "inputs": [],
      "name": "renounceOwnership",
      "outputs": [],
      "payable": false,
      "stateMutability": "nonpayable",
      "type": "function"
    },
    {
      "constant": false,
      "inputs": [
        {
          "internalType": "address",
          "name": "newOwner",
          "type": "address"
        }
      ],
      "name": "transferOwnership",
      "outputs": [],
      "payable": false,
      "stateMutability": "nonpayable",
      "type": "function"
    },
    {
      "constant": false,
      "inputs": [
        {
          "internalType": "string",
          "name": "_oracleType",
          "type": "string"
        }
      ],
      "name": "changeCustomOracleStatus",
      "outputs": [],
      "payable": false,
      "stateMutability": "nonpayable",
      "type": "function"
    },
    {
      "constant": false,
      "inputs": [
        {
          "internalType": "address",
          "name": "_FANCTokenAddress",
          "type": "address"
        },
        {
          "internalType": "address payable",
          "name": "_FANCTokenICOAddress",
          "type": "address"
        },
        {
          "internalType": "address",
          "name": "_FANCExchangeAddress",
          "type": "address"
        },
        {
          "internalType": "contract AggregatorV3Interface",
          "name": "_priceFeedContract",
          "type": "address"
        }
      ],
      "name": "setContractAddresses",
      "outputs": [],
      "payable": false,
      "stateMutability": "nonpayable",
      "type": "function"
    },
    {
      "constant": true,
      "inputs": [],
      "name": "getAssetPrice",
      "outputs": [
        {
          "internalType": "uint256",
          "name": "",
          "type": "uint256"
        }
      ],
      "payable": false,
      "stateMutability": "view",
      "type": "function"
    }
  ],
  "bytecode": "0x608060405234801561001057600080fd5b50604051610a3d380380610a3d8339818101604052608081101561003357600080fd5b5080516020820151604080840151606090940151600080546001600160a01b031916331780825592519495939491926001600160a01b0316917f8be0079c531659141344cd1fd0a4f28419497f9722a3daafe3b4186f6b6457e0908290a360048054600180546001600160a01b03199081166001600160a01b03988916179091556002805482169688169690961790955560038054909516938616939093179093556001600160a81b03199091169216919091179055610945806100f86000396000f3fe6080604052600436106100a75760003560e01c8063aaa6877711610064578063aaa687771461024b578063b17c324714610296578063e54f0880146102cf578063ee23909c146102f6578063f2fde38b1461030b578063fdff5fcd1461033e576100a7565b80631c30664e146100ff5780634b6f671014610130578063715018a61461014557806378b9ca7d1461015a5780638da5cb5b1461020d5780638f32d59b14610222575b60405133903480156108fc02916000818181858888f193505050506100fd5760405162461bcd60e51b815260040180806020018281038252602d81526020018061088d602d913960400191505060405180910390fd5b005b34801561010b57600080fd5b50610114610353565b604080516001600160a01b039092168252519081900360200190f35b34801561013c57600080fd5b50610114610362565b34801561015157600080fd5b506100fd610371565b34801561016657600080fd5b506100fd6004803603602081101561017d57600080fd5b81019060208101813564010000000081111561019857600080fd5b8201836020820111156101aa57600080fd5b803590602001918460018302840111640100000000831117156101cc57600080fd5b91908080601f0160208091040260200160405190810160405280939291908181526020018383808284376000920191909152509295506103fe945050505050565b34801561021957600080fd5b5061011461055c565b34801561022e57600080fd5b5061023761056c565b604080519115158252519081900360200190f35b34801561025757600080fd5b506100fd6004803603608081101561026e57600080fd5b506001600160a01b03813581169160208101358216916040820135811691606001351661057d565b3480156102a257600080fd5b506102ab610610565b604051808260028111156102bb57fe5b60ff16815260200191505060405180910390f35b3480156102db57600080fd5b506102e4610620565b60408051918252519081900360200190f35b34801561030257600080fd5b50610114610759565b34801561031757600080fd5b506100fd6004803603602081101561032e57600080fd5b50356001600160a01b0316610768565b34801561034a57600080fd5b506101146107b4565b6002546001600160a01b031681565b6004546001600160a01b031681565b61037961056c565b6103b45760405162461bcd60e51b81526004018080602001828103825260298152602001806108646029913960400191505060405180910390fd5b600080546040516001600160a01b03909116907f8be0079c531659141344cd1fd0a4f28419497f9722a3daafe3b4186f6b6457e0908390a3600080546001600160a01b0319169055565b61040661056c565b6104415760405162461bcd60e51b81526004018080602001828103825260298152602001806108646029913960400191505060405180910390fd5b60408051808201909152600381526249434f60e81b6020918201528151908201207f2eed07af5bdc16d511d9d3be63ff87caf8cc9110a03ad1ebe3b7d0a8a5b294511415610497576004805460ff60a01b191690555b60408051808201909152600881526745584348414e474560c01b6020918201528151908201207f10b261d3bc7a74f38949f9212b0336103474898eda034c06ae0a3e478dc0e4a514156104f8576004805460ff60a01b1916600160a01b1790555b604080518082019091526008815267115615115493905360c21b6020918201528151908201207ff5b45a70bd80d38f3cb0e32e43161b54c18580bfc60b41dc6b995dbcbf980aa21415610559576004805460ff60a01b1916600160a11b1790555b50565b6000546001600160a01b03165b90565b6000546001600160a01b0316331490565b61058561056c565b6105c05760405162461bcd60e51b81526004018080602001828103825260298152602001806108646029913960400191505060405180910390fd5b600180546001600160a01b039586166001600160a01b0319918216179091556002805494861694821694909417909355600380549285169284169290921790915560048054919093169116179055565b600454600160a01b900460ff1681565b600080600454600160a01b900460ff16600281111561063b57fe5b14156106c257600260009054906101000a90046001600160a01b03166001600160a01b0316638e15f4736040518163ffffffff1660e01b815260040160206040518083038186803b15801561068f57600080fd5b505afa1580156106a3573d6000803e3d6000fd5b505050506040513d60208110156106b957600080fd5b50519050610569565b6001600454600160a01b900460ff1660028111156106dc57fe5b14156106ea57506001610569565b6002600454600160a01b900460ff16600281111561070457fe5b1415610569576004546001600160a01b03166107515760405162461bcd60e51b815260040180806020018281038252602a8152602001806108e7602a913960400191505060405180910390fd5b506001610569565b6003546001600160a01b031681565b61077061056c565b6107ab5760405162461bcd60e51b81526004018080602001828103825260298152602001806108646029913960400191505060405180910390fd5b610559816107c3565b6001546001600160a01b031681565b6001600160a01b0381166108085760405162461bcd60e51b815260040180806020018281038252602d8152602001806108ba602d913960400191505060405180910390fd5b600080546040516001600160a01b03808516939216917f8be0079c531659141344cd1fd0a4f28419497f9722a3daafe3b4186f6b6457e091a3600080546001600160a01b0319166001600160a01b039290921691909117905556fe4f4e4c5920434f4e5452414354204f574e45522043414e20504552464f524d204f5045524154494f4e46616c6c6261636b2066756e6374696f6e20696e697469617465642062757420726566756e64206661696c656441444d494e20524f4c452043414e4e4f542042452041535349474e454420544f203078303020414444524553535072696365204665656420636f6e74726163742063616e6e6f7420626520307830302061646472657373a265627a7a72315820d5849392c6c97816aff9fc402e124ad70b6cfa716f9f241f0f4e851b24e3f70364736f6c63430005100032",
  "source": "pragma solidity =0.5.16;\n\nimport \"../_supportingContracts/AggregatorV3Interface.sol\";\nimport \"../_supportingContracts/Ownable.sol\";\nimport \"../FANC-token-contracts/FANCTokenICO.sol\";\n\ncontract Oracle is Ownable {\n    address public FANCTokenAddress;\n    address payable public FANCTokenICOAddress;\n    address public FANCExchangeAddress; // import FANCExchange contract and change FANCExchangeAddress to be exchange type instead of address\n    AggregatorV3Interface public priceFeedContract;\n    enum OracleType {ICO, EXCHANGE, EXTERNAL}\n    OracleType public currentOracleType;\n\n    event FANCTokenAddressSet(address FANCTokenAddress);\n\n    constructor(\n        address _FANCTokenAddress,\n        address payable _FANCTokenICOAddress,\n        address _FANCExchangeAddress,\n        AggregatorV3Interface _priceFeedContract\n    ) public {\n        currentOracleType = OracleType.ICO;\n        FANCTokenAddress = _FANCTokenAddress;\n        FANCTokenICOAddress = _FANCTokenICOAddress;\n        FANCExchangeAddress = _FANCExchangeAddress;\n        priceFeedContract = _priceFeedContract;\n    }\n\n    function changeCustomOracleStatus(string memory _oracleType)\n        public\n        onlyOwner\n    {\n        if (keccak256(bytes(_oracleType)) == keccak256(bytes(\"ICO\"))) {\n            currentOracleType = OracleType.ICO;\n        }\n        if (keccak256(bytes(_oracleType)) == keccak256(bytes(\"EXCHANGE\"))) {\n            currentOracleType = OracleType.EXCHANGE;\n        }\n        if (keccak256(bytes(_oracleType)) == keccak256(bytes(\"EXTERNAL\"))) {\n            currentOracleType = OracleType.EXTERNAL;\n        }\n    }\n\n    function setContractAddresses(\n        address _FANCTokenAddress,\n        address payable _FANCTokenICOAddress,\n        address _FANCExchangeAddress,\n        AggregatorV3Interface _priceFeedContract\n    ) public onlyOwner {\n        FANCTokenAddress = _FANCTokenAddress;\n        FANCTokenICOAddress = _FANCTokenICOAddress;\n        FANCExchangeAddress = _FANCExchangeAddress;\n        priceFeedContract = _priceFeedContract;\n    }\n\n    /**\n     * Returns the latest price\n     */\n    function getAssetPrice() public view returns (uint256) {\n        if (currentOracleType == OracleType.ICO) {\n            // Get latest price from FANC Exchange\n            return FANCTokenICO(FANCTokenICOAddress).getLatestPrice();\n            // return 1; // remove this when exchange implementation is done\n        } else if (currentOracleType == OracleType.EXCHANGE) {\n            return 1;\n        } else if (currentOracleType == OracleType.EXTERNAL) {\n            require(\n                priceFeedContract != AggregatorV3Interface(address(0)),\n                \"Price Feed contract cannot be 0x00 address\"\n            );\n            // Get price from Chainlink\n\n            // (\n            //     uint80 roundID,\n            //     int price,\n            //     uint startedAt,\n            //     uint timeStamp,\n            //     uint80 answeredInRound\n            // ) = priceFeedContract.latestRoundData();\n            // // If the round is not complete yet, timestamp is 0\n            // require(timeStamp > 0, \"Round not complete\");\n            // if(price >0) {\n            //     // Magnify the result based on decimals\n            //     return (uint256(price));\n            // }\n            // else {\n            //     return 0;\n            // }\n            return 1;\n        }\n    }\n\n    function() external payable {\n        require(\n            msg.sender.send(msg.value),\n            \"Fallback function initiated but refund failed\"\n        );\n    }\n}\n",
  "sourcePath": "/Users/raghu/Fanance/fanance-dapp/contracts/exchange-contracts/Oracle.sol",
  "compiler": {
    "name": "solc",
    "version": "0.5.16+commit.9c3226ce.Emscripten.clang"
  },
  "schemaVersion": "3.2.3",
  "updatedAt": "2021-01-03T14:35:29.850Z",
  "networkType": "ethereum",
  "devdoc": {
    "methods": {
      "isOwner()": {
        "return": "true if `msg.sender` is the owner of the contract."
      },
      "owner()": {
        "return": "the address of the owner."
      },
      "renounceOwnership()": {
        "details": "Allows the current owner to relinquish control of the contract."
      },
      "transferOwnership(address)": {
        "details": "Allows the current owner to transfer control of the contract to a newOwner.",
        "params": {
          "newOwner": "The address to transfer ownership to."
        }
      }
    }
  },
  "userdoc": {
    "methods": {
      "getAssetPrice()": {
        "notice": "Returns the latest price"
      },
      "renounceOwnership()": {
        "notice": "Renouncing to ownership will leave the contract without an owner. It will not be possible to call the functions with the `onlyOwner` modifier anymore."
      }
    }
  }
}